{
  "contracts/Meta.sol": {
    "Meta": {
      "abi": [
        {
          "inputs": [],
          "stateMutability": "nonpayable",
          "type": "constructor"
        },
        {
          "anonymous": false,
          "inputs": [
            {
              "indexed": false,
              "internalType": "address",
              "name": "",
              "type": "address"
            }
          ],
          "name": "GotData",
          "type": "event"
        },
        {
          "inputs": [],
          "name": "getValue",
          "outputs": [],
          "stateMutability": "nonpayable",
          "type": "function"
        }
      ],
      "evm": {
        "bytecode": {
          "linkReferences": {},
          "object": "608060405234801561001057600080fd5b50610118806100206000396000f3fe6080604052348015600f57600080fd5b506004361060285760003560e01c80632096525514602d575b600080fd5b60336035565b005b7fa6d9b9a1523583dca58813d1827940cd304a9e3e767319d11967f57c5541c5c033604051606291906079565b60405180910390a1565b60738160b2565b82525050565b6000602082019050608c6000830184606c565b92915050565b600073ffffffffffffffffffffffffffffffffffffffff82169050919050565b600060bb8260c2565b9050919050565b600060cb8260d2565b9050919050565b600060db826092565b905091905056fea2646970667358221220d8c24ca2b3cff828be26532f48cf8c3ad6605a3381d54c5355ecc6772b7818b764736f6c63430007060033",
          "opcodes": "PUSH1 0x80 PUSH1 0x40 MSTORE CALLVALUE DUP1 ISZERO PUSH2 0x10 JUMPI PUSH1 0x0 DUP1 REVERT JUMPDEST POP PUSH2 0x118 DUP1 PUSH2 0x20 PUSH1 0x0 CODECOPY PUSH1 0x0 RETURN INVALID PUSH1 0x80 PUSH1 0x40 MSTORE CALLVALUE DUP1 ISZERO PUSH1 0xF JUMPI PUSH1 0x0 DUP1 REVERT JUMPDEST POP PUSH1 0x4 CALLDATASIZE LT PUSH1 0x28 JUMPI PUSH1 0x0 CALLDATALOAD PUSH1 0xE0 SHR DUP1 PUSH4 0x20965255 EQ PUSH1 0x2D JUMPI JUMPDEST PUSH1 0x0 DUP1 REVERT JUMPDEST PUSH1 0x33 PUSH1 0x35 JUMP JUMPDEST STOP JUMPDEST PUSH32 0xA6D9B9A1523583DCA58813D1827940CD304A9E3E767319D11967F57C5541C5C0 CALLER PUSH1 0x40 MLOAD PUSH1 0x62 SWAP2 SWAP1 PUSH1 0x79 JUMP JUMPDEST PUSH1 0x40 MLOAD DUP1 SWAP2 SUB SWAP1 LOG1 JUMP JUMPDEST PUSH1 0x73 DUP2 PUSH1 0xB2 JUMP JUMPDEST DUP3 MSTORE POP POP JUMP JUMPDEST PUSH1 0x0 PUSH1 0x20 DUP3 ADD SWAP1 POP PUSH1 0x8C PUSH1 0x0 DUP4 ADD DUP5 PUSH1 0x6C JUMP JUMPDEST SWAP3 SWAP2 POP POP JUMP JUMPDEST PUSH1 0x0 PUSH20 0xFFFFFFFFFFFFFFFFFFFFFFFFFFFFFFFFFFFFFFFF DUP3 AND SWAP1 POP SWAP2 SWAP1 POP JUMP JUMPDEST PUSH1 0x0 PUSH1 0xBB DUP3 PUSH1 0xC2 JUMP JUMPDEST SWAP1 POP SWAP2 SWAP1 POP JUMP JUMPDEST PUSH1 0x0 PUSH1 0xCB DUP3 PUSH1 0xD2 JUMP JUMPDEST SWAP1 POP SWAP2 SWAP1 POP JUMP JUMPDEST PUSH1 0x0 PUSH1 0xDB DUP3 PUSH1 0x92 JUMP JUMPDEST SWAP1 POP SWAP2 SWAP1 POP JUMP INVALID LOG2 PUSH5 0x6970667358 0x22 SLT KECCAK256 0xD8 0xC2 0x4C LOG2 0xB3 0xCF 0xF8 0x28 0xBE 0x26 MSTORE8 0x2F 0x48 0xCF DUP13 GASPRICE 0xD6 PUSH1 0x5A CALLER DUP2 0xD5 0x4C MSTORE8 SSTORE 0xEC 0xC6 PUSH24 0x2B7818B764736F6C63430007060033000000000000000000 "
        },
        "methodIdentifiers": {
          "getValue()": "20965255"
        }
      }
    }
  }
}