{
  "_format": "hh-sol-artifact-1",
  "contractName": "Swapper",
  "sourceName": "contracts/Swapper.sol",
  "abi": [
    {
      "inputs": [
        {
          "internalType": "contract ISwapRouter",
          "name": "_swaprouter",
          "type": "address"
        }
      ],
      "stateMutability": "nonpayable",
      "type": "constructor"
    },
    {
      "anonymous": false,
      "inputs": [
        {
          "indexed": true,
          "internalType": "string",
          "name": "position",
          "type": "string"
        }
      ],
      "name": "Checkpoint",
      "type": "event"
    },
    {
      "inputs": [],
      "name": "DAI",
      "outputs": [
        {
          "internalType": "address",
          "name": "",
          "type": "address"
        }
      ],
      "stateMutability": "view",
      "type": "function"
    },
    {
      "inputs": [],
      "name": "WETH",
      "outputs": [
        {
          "internalType": "address",
          "name": "",
          "type": "address"
        }
      ],
      "stateMutability": "view",
      "type": "function"
    },
    {
      "inputs": [],
      "name": "poolFee",
      "outputs": [
        {
          "internalType": "uint24",
          "name": "",
          "type": "uint24"
        }
      ],
      "stateMutability": "view",
      "type": "function"
    },
    {
      "inputs": [
        {
          "internalType": "uint256",
          "name": "amountIn",
          "type": "uint256"
        }
      ],
      "name": "swapExactInputSingle",
      "outputs": [
        {
          "internalType": "uint256",
          "name": "amountOut",
          "type": "uint256"
        }
      ],
      "stateMutability": "nonpayable",
      "type": "function"
    },
    {
      "inputs": [],
      "name": "swapRouter",
      "outputs": [
        {
          "internalType": "contract ISwapRouter",
          "name": "",
          "type": "address"
        }
      ],
      "stateMutability": "view",
      "type": "function"
    }
  ],
  "bytecode": "0x60a060405234801561001057600080fd5b50604051620010183803806200101883398181016040528101906100349190610086565b8073ffffffffffffffffffffffffffffffffffffffff1660808173ffffffffffffffffffffffffffffffffffffffff1660601b815250505061010a565b600081519050610080816100f3565b92915050565b60006020828403121561009857600080fd5b60006100a684828501610071565b91505092915050565b60006100ba826100d3565b9050919050565b60006100cc826100af565b9050919050565b600073ffffffffffffffffffffffffffffffffffffffff82169050919050565b6100fc816100c1565b811461010757600080fd5b50565b60805160601c610ee662000132600039806101c6528061038952806104945250610ee66000f3fe608060405234801561001057600080fd5b50600436106100575760003560e01c8063089fe6aa1461005c57806373bd43ad1461007a578063ad5c4648146100aa578063c31c9c07146100c8578063e0bab4c4146100e6575b600080fd5b610064610104565b6040516100719190610d51565b60405180910390f35b610094600480360381019061008f9190610919565b61010a565b6040516100a19190610d6c565b60405180910390f35b6100b261047a565b6040516100bf9190610cff565b60405180910390f35b6100d0610492565b6040516100dd9190610d1a565b60405180910390f35b6100ee6104b6565b6040516100fb9190610cff565b60405180910390f35b610bb881565b600060405161011890610c7c565b60405180910390207fb1fd29284b7a83462eb2babd0d9990b345c49033826b6cfacfff1ed216beedc060405160405180910390a261016c738f3cf7ad23cd3cadbd9735aff958023239c6a0633330856104ce565b60405161017890610cea565b60405180910390207fb1fd29284b7a83462eb2babd0d9990b345c49033826b6cfacfff1ed216beedc060405160405180910390a26101eb738f3cf7ad23cd3cadbd9735aff958023239c6a0637f0000000000000000000000000000000000000000000000000000000000000000846106ee565b6040516101f790610c52565b60405180910390207fb1fd29284b7a83462eb2babd0d9990b345c49033826b6cfacfff1ed216beedc060405160405180910390a26000604051806101000160405280738f3cf7ad23cd3cadbd9735aff958023239c6a06373ffffffffffffffffffffffffffffffffffffffff168152602001737ceb23fd6bc0add59e62ac25578270cff1b9f61973ffffffffffffffffffffffffffffffffffffffff168152602001610bb862ffffff1681526020013373ffffffffffffffffffffffffffffffffffffffff1681526020016175304201815260200184815260200160008152602001600073ffffffffffffffffffffffffffffffffffffffff168152509050738f3cf7ad23cd3cadbd9735aff958023239c6a063737ceb23fd6bc0add59e62ac25578270cff1b9f619610bb8856040516020016103379493929190610c91565b6040516020818303038152906040526040516103539190610c3b565b60405180910390207fb1fd29284b7a83462eb2babd0d9990b345c49033826b6cfacfff1ed216beedc060405160405180910390a27f000000000000000000000000000000000000000000000000000000000000000073ffffffffffffffffffffffffffffffffffffffff1663414bf389826040518263ffffffff1660e01b81526004016103e09190610d35565b602060405180830381600087803b1580156103fa57600080fd5b505af115801561040e573d6000803e3d6000fd5b505050506040513d601f19601f820116820180604052508101906104329190610942565b915060405161044090610c67565b60405180910390207fb1fd29284b7a83462eb2babd0d9990b345c49033826b6cfacfff1ed216beedc060405160405180910390a250919050565b737ceb23fd6bc0add59e62ac25578270cff1b9f61981565b7f000000000000000000000000000000000000000000000000000000000000000081565b738f3cf7ad23cd3cadbd9735aff958023239c6a06381565b6000808573ffffffffffffffffffffffffffffffffffffffff166323b872dd60e01b868686604051602401808473ffffffffffffffffffffffffffffffffffffffff1681526020018373ffffffffffffffffffffffffffffffffffffffff1681526020018281526020019350505050604051602081830303815290604052907bffffffffffffffffffffffffffffffffffffffffffffffffffffffff19166020820180517bffffffffffffffffffffffffffffffffffffffffffffffffffffffff83818316178352505050506040518082805190602001908083835b602083106105cd57805182526020820191506020810190506020830392506105aa565b6001836020036101000a0380198251168184511680821785525050505050509050019150506000604051808303816000865af19150503d806000811461062f576040519150601f19603f3d011682016040523d82523d6000602084013e610634565b606091505b50915091508180156106745750600081511480610673575080806020019051602081101561066157600080fd5b81019080805190602001909291905050505b5b6106e6576040517f08c379a00000000000000000000000000000000000000000000000000000000081526004018080602001828103825260038152602001807f535446000000000000000000000000000000000000000000000000000000000081525060200191505060405180910390fd5b505050505050565b6000808473ffffffffffffffffffffffffffffffffffffffff1663095ea7b360e01b8585604051602401808373ffffffffffffffffffffffffffffffffffffffff16815260200182815260200192505050604051602081830303815290604052907bffffffffffffffffffffffffffffffffffffffffffffffffffffffff19166020820180517bffffffffffffffffffffffffffffffffffffffffffffffffffffffff83818316178352505050506040518082805190602001908083835b602083106107cf57805182526020820191506020810190506020830392506107ac565b6001836020036101000a0380198251168184511680821785525050505050509050019150506000604051808303816000865af19150503d8060008114610831576040519150601f19603f3d011682016040523d82523d6000602084013e610836565b606091505b50915091508180156108765750600081511480610875575080806020019051602081101561086357600080fd5b81019080805190602001909291905050505b5b6108e8576040517f08c379a00000000000000000000000000000000000000000000000000000000081526004018080602001828103825260028152602001807f534100000000000000000000000000000000000000000000000000000000000081525060200191505060405180910390fd5b5050505050565b6000813590506108fe81610e99565b92915050565b60008151905061091381610e99565b92915050565b60006020828403121561092b57600080fd5b6000610939848285016108ef565b91505092915050565b60006020828403121561095457600080fd5b600061096284828501610904565b91505092915050565b61097481610d9d565b82525050565b61098381610d9d565b82525050565b61099a61099582610d9d565b610e3f565b82525050565b6109a981610de8565b82525050565b60006109ba82610d87565b6109c48185610d92565b93506109d4818560208601610e0c565b80840191505092915050565b60006109ed600c83610d92565b91507f5361666520617070726f766500000000000000000000000000000000000000006000830152600c82019050919050565b6000610a2d600483610d92565b91507f646f6e65000000000000000000000000000000000000000000000000000000006000830152600482019050919050565b6000610a6d600c83610d92565b91507f46756e6374696f6e2072756e00000000000000000000000000000000000000006000830152600c82019050919050565b6000610aad600d83610d92565b91507f5361666520617070726f766520000000000000000000000000000000000000006000830152600d82019050919050565b6000610aed600383610d92565b91507f53544600000000000000000000000000000000000000000000000000000000006000830152600382019050919050565b61010082016000820151610b37600085018261096b565b506020820151610b4a602085018261096b565b506040820151610b5d6040850182610bd1565b506060820151610b70606085018261096b565b506080820151610b836080850182610c06565b5060a0820151610b9660a0850182610c06565b5060c0820151610ba960c0850182610c06565b5060e0820151610bbc60e0850182610bc2565b50505050565b610bcb81610daf565b82525050565b610bda81610dcf565b82525050565b610be981610dcf565b82525050565b610c00610bfb82610dcf565b610e63565b82525050565b610c0f81610dde565b82525050565b610c1e81610dde565b82525050565b610c35610c3082610dde565b610e75565b82525050565b6000610c4782846109af565b915081905092915050565b6000610c5d826109e0565b9150819050919050565b6000610c7282610a20565b9150819050919050565b6000610c8782610a60565b9150819050919050565b6000610c9c82610aa0565b9150610ca88287610989565b601482019150610cb88286610989565b601482019150610cc88285610bef565b600382019150610cd88284610c24565b60208201915081905095945050505050565b6000610cf582610ae0565b9150819050919050565b6000602082019050610d14600083018461097a565b92915050565b6000602082019050610d2f60008301846109a0565b92915050565b600061010082019050610d4b6000830184610b20565b92915050565b6000602082019050610d666000830184610be0565b92915050565b6000602082019050610d816000830184610c15565b92915050565b600081519050919050565b600081905092915050565b6000610da882610daf565b9050919050565b600073ffffffffffffffffffffffffffffffffffffffff82169050919050565b600062ffffff82169050919050565b6000819050919050565b6000610df382610dfa565b9050919050565b6000610e0582610daf565b9050919050565b60005b83811015610e2a578082015181840152602081019050610e0f565b83811115610e39576000848401525b50505050565b6000610e4a82610e51565b9050919050565b6000610e5c82610e8c565b9050919050565b6000610e6e82610e7f565b9050919050565b6000819050919050565b60008160e81b9050919050565b60008160601b9050919050565b610ea281610dde565b8114610ead57600080fd5b5056fea2646970667358221220d1179693ffc18201378c1b63ed6a989d2a14ba7e75069e56b69e587a4ac5b70f64736f6c63430007060033",
  "linkReferences": {},
  "deployedLinkReferences": {}
}