{
  "_format": "hh-sol-artifact-1",
  "contractName": "Swapper",
  "sourceName": "contracts/Swapper.sol",
  "abi": [
    {
      "inputs": [
        {
          "internalType": "contract ISwapRouter",
          "name": "_swaprouter",
          "type": "address"
        }
      ],
      "stateMutability": "nonpayable",
      "type": "constructor"
    },
    {
      "inputs": [],
      "name": "DAI",
      "outputs": [
        {
          "internalType": "address",
          "name": "",
          "type": "address"
        }
      ],
      "stateMutability": "view",
      "type": "function"
    },
    {
      "inputs": [],
      "name": "WETH",
      "outputs": [
        {
          "internalType": "address",
          "name": "",
          "type": "address"
        }
      ],
      "stateMutability": "view",
      "type": "function"
    },
    {
      "inputs": [],
      "name": "poolFee",
      "outputs": [
        {
          "internalType": "uint24",
          "name": "",
          "type": "uint24"
        }
      ],
      "stateMutability": "view",
      "type": "function"
    },
    {
      "inputs": [
        {
          "internalType": "uint256",
          "name": "amountIn",
          "type": "uint256"
        }
      ],
      "name": "swapExactInputSingle",
      "outputs": [
        {
          "internalType": "uint256",
          "name": "amountOut",
          "type": "uint256"
        }
      ],
      "stateMutability": "nonpayable",
      "type": "function"
    },
    {
      "inputs": [],
      "name": "swapRouter",
      "outputs": [
        {
          "internalType": "contract ISwapRouter",
          "name": "",
          "type": "address"
        }
      ],
      "stateMutability": "view",
      "type": "function"
    }
  ],
  "bytecode": "0x60a060405234801561001057600080fd5b50604051610b67380380610b6783398181016040528101906100329190610084565b8073ffffffffffffffffffffffffffffffffffffffff1660808173ffffffffffffffffffffffffffffffffffffffff1660601b8152505050610108565b60008151905061007e816100f1565b92915050565b60006020828403121561009657600080fd5b60006100a48482850161006f565b91505092915050565b60006100b8826100d1565b9050919050565b60006100ca826100ad565b9050919050565b600073ffffffffffffffffffffffffffffffffffffffff82169050919050565b6100fa816100bf565b811461010557600080fd5b50565b60805160601c610a3861012f60003980610146528061023852806103035250610a386000f3fe608060405234801561001057600080fd5b50600436106100575760003560e01c8063089fe6aa1461005c57806373bd43ad1461007a578063ad5c4648146100aa578063c31c9c07146100c8578063e0bab4c4146100e6575b600080fd5b610064610104565b6040516100719190610946565b60405180910390f35b610094600480360381019061008f9190610788565b61010a565b6040516100a19190610961565b60405180910390f35b6100b26102e9565b6040516100bf91906108f4565b60405180910390f35b6100d0610301565b6040516100dd919061090f565b60405180910390f35b6100ee610325565b6040516100fb91906108f4565b60405180910390f35b610bb881565b600061012c738f3cf7ad23cd3cadbd9735aff958023239c6a06333308561033d565b61016b738f3cf7ad23cd3cadbd9735aff958023239c6a0637f00000000000000000000000000000000000000000000000000000000000000008461055d565b6000604051806101000160405280738f3cf7ad23cd3cadbd9735aff958023239c6a06373ffffffffffffffffffffffffffffffffffffffff168152602001737ceb23fd6bc0add59e62ac25578270cff1b9f61973ffffffffffffffffffffffffffffffffffffffff168152602001610bb862ffffff1681526020013373ffffffffffffffffffffffffffffffffffffffff1681526020016175304201815260200184815260200160008152602001600073ffffffffffffffffffffffffffffffffffffffff1681525090507f000000000000000000000000000000000000000000000000000000000000000073ffffffffffffffffffffffffffffffffffffffff1663414bf389826040518263ffffffff1660e01b815260040161028f919061092a565b602060405180830381600087803b1580156102a957600080fd5b505af11580156102bd573d6000803e3d6000fd5b505050506040513d601f19601f820116820180604052508101906102e191906107b1565b915050919050565b737ceb23fd6bc0add59e62ac25578270cff1b9f61981565b7f000000000000000000000000000000000000000000000000000000000000000081565b738f3cf7ad23cd3cadbd9735aff958023239c6a06381565b6000808573ffffffffffffffffffffffffffffffffffffffff166323b872dd60e01b868686604051602401808473ffffffffffffffffffffffffffffffffffffffff1681526020018373ffffffffffffffffffffffffffffffffffffffff1681526020018281526020019350505050604051602081830303815290604052907bffffffffffffffffffffffffffffffffffffffffffffffffffffffff19166020820180517bffffffffffffffffffffffffffffffffffffffffffffffffffffffff83818316178352505050506040518082805190602001908083835b6020831061043c5780518252602082019150602081019050602083039250610419565b6001836020036101000a0380198251168184511680821785525050505050509050019150506000604051808303816000865af19150503d806000811461049e576040519150601f19603f3d011682016040523d82523d6000602084013e6104a3565b606091505b50915091508180156104e357506000815114806104e257508080602001905160208110156104d057600080fd5b81019080805190602001909291905050505b5b610555576040517f08c379a00000000000000000000000000000000000000000000000000000000081526004018080602001828103825260038152602001807f535446000000000000000000000000000000000000000000000000000000000081525060200191505060405180910390fd5b505050505050565b6000808473ffffffffffffffffffffffffffffffffffffffff1663095ea7b360e01b8585604051602401808373ffffffffffffffffffffffffffffffffffffffff16815260200182815260200192505050604051602081830303815290604052907bffffffffffffffffffffffffffffffffffffffffffffffffffffffff19166020820180517bffffffffffffffffffffffffffffffffffffffffffffffffffffffff83818316178352505050506040518082805190602001908083835b6020831061063e578051825260208201915060208101905060208303925061061b565b6001836020036101000a0380198251168184511680821785525050505050509050019150506000604051808303816000865af19150503d80600081146106a0576040519150601f19603f3d011682016040523d82523d6000602084013e6106a5565b606091505b50915091508180156106e557506000815114806106e457508080602001905160208110156106d257600080fd5b81019080805190602001909291905050505b5b610757576040517f08c379a00000000000000000000000000000000000000000000000000000000081526004018080602001828103825260028152602001807f534100000000000000000000000000000000000000000000000000000000000081525060200191505060405180910390fd5b5050505050565b60008135905061076d816109eb565b92915050565b600081519050610782816109eb565b92915050565b60006020828403121561079a57600080fd5b60006107a88482850161075e565b91505092915050565b6000602082840312156107c357600080fd5b60006107d184828501610773565b91505092915050565b6107e38161097c565b82525050565b6107f28161097c565b82525050565b610801816109c7565b82525050565b6101008201600082015161081e60008501826107da565b50602082015161083160208501826107da565b50604082015161084460408501826108b8565b50606082015161085760608501826107da565b50608082015161086a60808501826108d6565b5060a082015161087d60a08501826108d6565b5060c082015161089060c08501826108d6565b5060e08201516108a360e08501826108a9565b50505050565b6108b28161098e565b82525050565b6108c1816109ae565b82525050565b6108d0816109ae565b82525050565b6108df816109bd565b82525050565b6108ee816109bd565b82525050565b600060208201905061090960008301846107e9565b92915050565b600060208201905061092460008301846107f8565b92915050565b6000610100820190506109406000830184610807565b92915050565b600060208201905061095b60008301846108c7565b92915050565b600060208201905061097660008301846108e5565b92915050565b60006109878261098e565b9050919050565b600073ffffffffffffffffffffffffffffffffffffffff82169050919050565b600062ffffff82169050919050565b6000819050919050565b60006109d2826109d9565b9050919050565b60006109e48261098e565b9050919050565b6109f4816109bd565b81146109ff57600080fd5b5056fea2646970667358221220eb3f01391390b95262e22d1de397dc89a75c13817fbe5155051eb7d8e40a431b64736f6c63430007060033",
  "linkReferences": {},
  "deployedLinkReferences": {}
}