{
  "_format": "hh-sol-artifact-1",
  "contractName": "Swapper",
  "sourceName": "contracts/libraries/Swapper.sol",
  "abi": [
    {
      "inputs": [],
      "name": "poolFee",
      "outputs": [
        {
          "internalType": "uint24",
          "name": "",
          "type": "uint24"
        }
      ],
      "stateMutability": "view",
      "type": "function"
    }
  ],
  "bytecode": "0x60c3610025600b82828239805160001a60731461001857fe5b30600052607381538281f3fe730000000000000000000000000000000000000000301460806040526004361060335760003560e01c8063089fe6aa146038575b600080fd5b603e6052565b604051604991906065565b60405180910390f35b6101f481565b605f81607e565b82525050565b6000602082019050607860008301846058565b92915050565b600062ffffff8216905091905056fea2646970667358221220b068bbfef57f7d782d45d043a538a371ddef050d42f00784f71f306c57a139f564736f6c63430007060033",
  "linkReferences": {},
  "deployedLinkReferences": {}
}