{
  "_format": "hh-sol-artifact-1",
  "contractName": "PositionManager",
  "sourceName": "contracts/PositionManager.sol",
  "abi": [
    {
      "inputs": [
        {
          "internalType": "contract INonfungiblePositionManager",
          "name": "_nonfungiblePositionManager",
          "type": "address"
        },
        {
          "internalType": "address",
          "name": "_factory",
          "type": "address"
        },
        {
          "internalType": "address",
          "name": "_WETH9",
          "type": "address"
        }
      ],
      "stateMutability": "nonpayable",
      "type": "constructor"
    },
    {
      "inputs": [],
      "name": "WETH9",
      "outputs": [
        {
          "internalType": "address",
          "name": "",
          "type": "address"
        }
      ],
      "stateMutability": "view",
      "type": "function"
    },
    {
      "inputs": [
        {
          "internalType": "uint256",
          "name": "",
          "type": "uint256"
        }
      ],
      "name": "deposits",
      "outputs": [
        {
          "internalType": "address",
          "name": "owner",
          "type": "address"
        },
        {
          "internalType": "uint128",
          "name": "liquidity",
          "type": "uint128"
        },
        {
          "internalType": "address",
          "name": "token0",
          "type": "address"
        },
        {
          "internalType": "address",
          "name": "token1",
          "type": "address"
        }
      ],
      "stateMutability": "view",
      "type": "function"
    },
    {
      "inputs": [],
      "name": "factory",
      "outputs": [
        {
          "internalType": "address",
          "name": "",
          "type": "address"
        }
      ],
      "stateMutability": "view",
      "type": "function"
    },
    {
      "inputs": [
        {
          "components": [
            {
              "internalType": "uint256",
              "name": "amount0ToMint",
              "type": "uint256"
            },
            {
              "internalType": "uint256",
              "name": "amount1ToMint",
              "type": "uint256"
            },
            {
              "internalType": "address",
              "name": "pool",
              "type": "address"
            }
          ],
          "internalType": "struct PositionManager.MintParams",
          "name": "mintParams",
          "type": "tuple"
        }
      ],
      "name": "mintNewPosition",
      "outputs": [
        {
          "internalType": "uint256",
          "name": "tokenId",
          "type": "uint256"
        },
        {
          "internalType": "uint128",
          "name": "liquidity",
          "type": "uint128"
        },
        {
          "internalType": "uint256",
          "name": "amount0",
          "type": "uint256"
        },
        {
          "internalType": "uint256",
          "name": "amount1",
          "type": "uint256"
        }
      ],
      "stateMutability": "nonpayable",
      "type": "function"
    },
    {
      "inputs": [],
      "name": "nonfungiblePositionManager",
      "outputs": [
        {
          "internalType": "contract INonfungiblePositionManager",
          "name": "",
          "type": "address"
        }
      ],
      "stateMutability": "view",
      "type": "function"
    },
    {
      "inputs": [
        {
          "internalType": "address",
          "name": "",
          "type": "address"
        },
        {
          "internalType": "address",
          "name": "",
          "type": "address"
        },
        {
          "internalType": "uint256",
          "name": "",
          "type": "uint256"
        },
        {
          "internalType": "bytes",
          "name": "",
          "type": "bytes"
        }
      ],
      "name": "onERC721Received",
      "outputs": [
        {
          "internalType": "bytes4",
          "name": "",
          "type": "bytes4"
        }
      ],
      "stateMutability": "pure",
      "type": "function"
    },
    {
      "inputs": [
        {
          "internalType": "address",
          "name": "token",
          "type": "address"
        },
        {
          "internalType": "uint256",
          "name": "amount",
          "type": "uint256"
        }
      ],
      "name": "refund",
      "outputs": [],
      "stateMutability": "nonpayable",
      "type": "function"
    },
    {
      "inputs": [],
      "name": "refundETH",
      "outputs": [],
      "stateMutability": "payable",
      "type": "function"
    },
    {
      "inputs": [
        {
          "internalType": "address",
          "name": "token",
          "type": "address"
        },
        {
          "internalType": "uint256",
          "name": "amountMinimum",
          "type": "uint256"
        },
        {
          "internalType": "address",
          "name": "recipient",
          "type": "address"
        }
      ],
      "name": "sweepToken",
      "outputs": [],
      "stateMutability": "payable",
      "type": "function"
    },
    {
      "inputs": [
        {
          "internalType": "uint256",
          "name": "amount0Owed",
          "type": "uint256"
        },
        {
          "internalType": "uint256",
          "name": "amount1Owed",
          "type": "uint256"
        },
        {
          "internalType": "bytes",
          "name": "data",
          "type": "bytes"
        }
      ],
      "name": "uniswapV3MintCallback",
      "outputs": [],
      "stateMutability": "nonpayable",
      "type": "function"
    },
    {
      "inputs": [
        {
          "internalType": "uint256",
          "name": "amountMinimum",
          "type": "uint256"
        },
        {
          "internalType": "address",
          "name": "recipient",
          "type": "address"
        }
      ],
      "name": "unwrapWETH9",
      "outputs": [],
      "stateMutability": "payable",
      "type": "function"
    },
    {
      "stateMutability": "payable",
      "type": "receive"
    }
  ],
  "bytecode": "0x60e06040523480156200001157600080fd5b506040516200272338038062002723833981810160405281019062000037919062000117565b81818173ffffffffffffffffffffffffffffffffffffffff1660808173ffffffffffffffffffffffffffffffffffffffff1660601b815250508073ffffffffffffffffffffffffffffffffffffffff1660a08173ffffffffffffffffffffffffffffffffffffffff1660601b8152505050508273ffffffffffffffffffffffffffffffffffffffff1660c08173ffffffffffffffffffffffffffffffffffffffff1660601b81525050505050620001e9565b600081519050620000fa81620001b5565b92915050565b6000815190506200011181620001cf565b92915050565b6000806000606084860312156200012d57600080fd5b60006200013d8682870162000100565b93505060206200015086828701620000e9565b92505060406200016386828701620000e9565b9150509250925092565b60006200017a8262000195565b9050919050565b60006200018e826200016d565b9050919050565b600073ffffffffffffffffffffffffffffffffffffffff82169050919050565b620001c0816200016d565b8114620001cc57600080fd5b50565b620001da8162000181565b8114620001e657600080fd5b50565b60805160601c60a05160601c60c05160601c6124d3620002506000398061062b5280610900528061092f5280610a0852508060a7528061037d52806104c0528061055b52806110cf528061112f52806111b0525080610cb85280610cf252506124d36000f3fe6080604052600436106100a05760003560e01c8063b02c43d011610064578063b02c43d014610224578063b44a272214610264578063b4a648ff1461028f578063c45a0155146102cf578063d3487997146102fa578063df2ab5bb1461032357610168565b806312210e8a1461016d578063150b7a0214610177578063410085df146101b457806349404b7c146101dd5780634aa4a4fc146101f957610168565b36610168577f000000000000000000000000000000000000000000000000000000000000000073ffffffffffffffffffffffffffffffffffffffff163373ffffffffffffffffffffffffffffffffffffffff1614610166576040517f08c379a00000000000000000000000000000000000000000000000000000000081526004018080602001828103825260098152602001807f4e6f74205745544839000000000000000000000000000000000000000000000081525060200191505060405180910390fd5b005b600080fd5b61017561033f565b005b34801561018357600080fd5b5061019e60048036038101906101999190611cd0565b610355565b6040516101ab9190612219565b60405180910390f35b3480156101c057600080fd5b506101db60048036038101906101d69190611d50565b61036a565b005b6101f760048036038101906101f29190611f46565b610379565b005b34801561020557600080fd5b5061020e610559565b60405161021b91906121b9565b60405180910390f35b34801561023057600080fd5b5061024b60048036038101906102469190611f1d565b61057d565b60405161025b94939291906121d4565b60405180910390f35b34801561027057600080fd5b50610279610629565b6040516102869190612234565b60405180910390f35b34801561029b57600080fd5b506102b660048036038101906102b19190611e2d565b61064d565b6040516102c6949392919061226b565b60405180910390f35b3480156102db57600080fd5b506102e4610cb6565b6040516102f191906121b9565b60405180910390f35b34801561030657600080fd5b50610321600480360381019061031c9190611fe5565b610cda565b005b61033d60048036038101906103389190611d8c565b610d67565b005b6000471115610353576103523347610e9e565b5b565b600063150b7a0260e01b905095945050505050565b61037582338361101a565b5050565b60007f000000000000000000000000000000000000000000000000000000000000000073ffffffffffffffffffffffffffffffffffffffff166370a08231306040518263ffffffff1660e01b8152600401808273ffffffffffffffffffffffffffffffffffffffff16815260200191505060206040518083038186803b15801561040257600080fd5b505afa158015610416573d6000803e3d6000fd5b505050506040513d602081101561042c57600080fd5b81019080805190602001909291905050509050828110156104b5576040517f08c379a00000000000000000000000000000000000000000000000000000000081526004018080602001828103825260128152602001807f496e73756666696369656e74205745544839000000000000000000000000000081525060200191505060405180910390fd5b6000811115610554577f000000000000000000000000000000000000000000000000000000000000000073ffffffffffffffffffffffffffffffffffffffff16632e1a7d4d826040518263ffffffff1660e01b815260040180828152602001915050600060405180830381600087803b15801561053157600080fd5b505af1158015610545573d6000803e3d6000fd5b505050506105538282610e9e565b5b505050565b7f000000000000000000000000000000000000000000000000000000000000000081565b60006020528060005260406000206000915090508060000160009054906101000a900473ffffffffffffffffffffffffffffffffffffffff16908060010160009054906101000a90046fffffffffffffffffffffffffffffffff16908060020160009054906101000a900473ffffffffffffffffffffffffffffffffffffffff16908060030160009054906101000a900473ffffffffffffffffffffffffffffffffffffffff16905084565b7f000000000000000000000000000000000000000000000000000000000000000081565b60008060008060008560400151905060008173ffffffffffffffffffffffffffffffffffffffff16633850c7bd6040518163ffffffff1660e01b815260040160e06040518083038186803b1580156106a457600080fd5b505afa1580156106b8573d6000803e3d6000fd5b505050506040513d601f19601f820116820180604052508101906106dc9190611e56565b505050505091505060008273ffffffffffffffffffffffffffffffffffffffff1663ddca3f436040518163ffffffff1660e01b815260040160206040518083038186803b15801561072c57600080fd5b505afa158015610740573d6000803e3d6000fd5b505050506040513d601f19601f820116820180604052508101906107649190611ef4565b905060008373ffffffffffffffffffffffffffffffffffffffff16630dfe16816040518163ffffffff1660e01b815260040160206040518083038186803b1580156107ae57600080fd5b505afa1580156107c2573d6000803e3d6000fd5b505050506040513d601f19601f820116820180604052508101906107e69190611ca7565b905060008473ffffffffffffffffffffffffffffffffffffffff1663d21220a76040518163ffffffff1660e01b815260040160206040518083038186803b15801561083057600080fd5b505afa158015610844573d6000803e3d6000fd5b505050506040513d601f19601f820116820180604052508101906108689190611ca7565b905060008573ffffffffffffffffffffffffffffffffffffffff1663d0c93a7c6040518163ffffffff1660e01b815260040160206040518083038186803b1580156108b257600080fd5b505afa1580156108c6573d6000803e3d6000fd5b505050506040513d601f19601f820116820180604052508101906108ea9190611ddb565b905060006108f8868361102a565b9050610929847f00000000000000000000000000000000000000000000000000000000000000008e60000151611071565b610958837f00000000000000000000000000000000000000000000000000000000000000008e60200151611071565b60006040518061016001604052808673ffffffffffffffffffffffffffffffffffffffff1681526020018573ffffffffffffffffffffffffffffffffffffffff1681526020018762ffffff16815260200184840360020b815260200184840160020b81526020018e6000015181526020018e60200151815260200160008152602001600081526020013373ffffffffffffffffffffffffffffffffffffffff168152602001601e420181525090507f000000000000000000000000000000000000000000000000000000000000000073ffffffffffffffffffffffffffffffffffffffff166388316456826040518263ffffffff1660e01b8152600401610a5f919061224f565b608060405180830381600087803b158015610a7957600080fd5b505af1158015610a8d573d6000803e3d6000fd5b505050506040513d601f19601f82011682018060405250810190610ab19190611f82565b809c50819d50829e50839f505050505060405180608001604052803373ffffffffffffffffffffffffffffffffffffffff1681526020018c6fffffffffffffffffffffffffffffffff1681526020018673ffffffffffffffffffffffffffffffffffffffff1681526020018573ffffffffffffffffffffffffffffffffffffffff168152506000808e815260200190815260200160002060008201518160000160006101000a81548173ffffffffffffffffffffffffffffffffffffffff021916908373ffffffffffffffffffffffffffffffffffffffff16021790555060208201518160010160006101000a8154816fffffffffffffffffffffffffffffffff02191690836fffffffffffffffffffffffffffffffff16021790555060408201518160020160006101000a81548173ffffffffffffffffffffffffffffffffffffffff021916908373ffffffffffffffffffffffffffffffffffffffff16021790555060608201518160030160006101000a81548173ffffffffffffffffffffffffffffffffffffffff021916908373ffffffffffffffffffffffffffffffffffffffff1602179055509050508c600001518a1015610c835760008a8e60000151039050610c8186338361101a565b505b8c60200151891015610ca7576000898e60200151039050610ca585338361101a565b505b50505050505050509193509193565b7f000000000000000000000000000000000000000000000000000000000000000081565b60008282810190610ceb9190611e04565b9050610d1b7f00000000000000000000000000000000000000000000000000000000000000008260000151611081565b506000851115610d3e57610d3d816000015160000151826020015133886110cd565b5b6000841115610d6057610d5f816000015160200151826020015133876110cd565b5b5050505050565b60008373ffffffffffffffffffffffffffffffffffffffff166370a08231306040518263ffffffff1660e01b8152600401808273ffffffffffffffffffffffffffffffffffffffff16815260200191505060206040518083038186803b158015610dd057600080fd5b505afa158015610de4573d6000803e3d6000fd5b505050506040513d6020811015610dfa57600080fd5b8101908080519060200190929190505050905082811015610e83576040517f08c379a00000000000000000000000000000000000000000000000000000000081526004018080602001828103825260128152602001807f496e73756666696369656e7420746f6b656e000000000000000000000000000081525060200191505060405180910390fd5b6000811115610e9857610e978483836112d8565b5b50505050565b60008273ffffffffffffffffffffffffffffffffffffffff1682600067ffffffffffffffff81118015610ed057600080fd5b506040519080825280601f01601f191660200182016040528015610f035781602001600182028036833780820191505090505b506040518082805190602001908083835b60208310610f375780518252602082019150602081019050602083039250610f14565b6001836020036101000a03801982511681845116808217855250505050505090500191505060006040518083038185875af1925050503d8060008114610f99576040519150601f19603f3d011682016040523d82523d6000602084013e610f9e565b606091505b5050905080611015576040517f08c379a00000000000000000000000000000000000000000000000000000000081526004018080602001828103825260038152602001807f535445000000000000000000000000000000000000000000000000000000000081525060200191505060405180910390fd5b505050565b6110258383836112d8565b505050565b6000808260020b8460020b8161103c57fe5b05905082810290506000838201905081850360020b85820360020b121561106557809250611069565b8192505b505092915050565b61107c8383836114d9565b505050565b600061108d83836116da565b90508073ffffffffffffffffffffffffffffffffffffffff163373ffffffffffffffffffffffffffffffffffffffff16146110c757600080fd5b92915050565b7f000000000000000000000000000000000000000000000000000000000000000073ffffffffffffffffffffffffffffffffffffffff168473ffffffffffffffffffffffffffffffffffffffff161480156111285750804710155b15611280577f000000000000000000000000000000000000000000000000000000000000000073ffffffffffffffffffffffffffffffffffffffff1663d0e30db0826040518263ffffffff1660e01b81526004016000604051808303818588803b15801561119557600080fd5b505af11580156111a9573d6000803e3d6000fd5b50505050507f000000000000000000000000000000000000000000000000000000000000000073ffffffffffffffffffffffffffffffffffffffff1663a9059cbb83836040518363ffffffff1660e01b8152600401808373ffffffffffffffffffffffffffffffffffffffff16815260200182815260200192505050602060405180830381600087803b15801561123f57600080fd5b505af1158015611253573d6000803e3d6000fd5b505050506040513d602081101561126957600080fd5b8101908080519060200190929190505050506112d2565b3073ffffffffffffffffffffffffffffffffffffffff168373ffffffffffffffffffffffffffffffffffffffff1614156112c4576112bf8483836112d8565b6112d1565b6112d084848484611835565b5b5b50505050565b6000808473ffffffffffffffffffffffffffffffffffffffff1663a9059cbb60e01b8585604051602401808373ffffffffffffffffffffffffffffffffffffffff16815260200182815260200192505050604051602081830303815290604052907bffffffffffffffffffffffffffffffffffffffffffffffffffffffff19166020820180517bffffffffffffffffffffffffffffffffffffffffffffffffffffffff83818316178352505050506040518082805190602001908083835b602083106113b95780518252602082019150602081019050602083039250611396565b6001836020036101000a0380198251168184511680821785525050505050509050019150506000604051808303816000865af19150503d806000811461141b576040519150601f19603f3d011682016040523d82523d6000602084013e611420565b606091505b5091509150818015611460575060008151148061145f575080806020019051602081101561144d57600080fd5b81019080805190602001909291905050505b5b6114d2576040517f08c379a00000000000000000000000000000000000000000000000000000000081526004018080602001828103825260028152602001807f535400000000000000000000000000000000000000000000000000000000000081525060200191505060405180910390fd5b5050505050565b6000808473ffffffffffffffffffffffffffffffffffffffff1663095ea7b360e01b8585604051602401808373ffffffffffffffffffffffffffffffffffffffff16815260200182815260200192505050604051602081830303815290604052907bffffffffffffffffffffffffffffffffffffffffffffffffffffffff19166020820180517bffffffffffffffffffffffffffffffffffffffffffffffffffffffff83818316178352505050506040518082805190602001908083835b602083106115ba5780518252602082019150602081019050602083039250611597565b6001836020036101000a0380198251168184511680821785525050505050509050019150506000604051808303816000865af19150503d806000811461161c576040519150601f19603f3d011682016040523d82523d6000602084013e611621565b606091505b50915091508180156116615750600081511480611660575080806020019051602081101561164e57600080fd5b81019080805190602001909291905050505b5b6116d3576040517f08c379a00000000000000000000000000000000000000000000000000000000081526004018080602001828103825260028152602001807f534100000000000000000000000000000000000000000000000000000000000081525060200191505060405180910390fd5b5050505050565b6000816020015173ffffffffffffffffffffffffffffffffffffffff16826000015173ffffffffffffffffffffffffffffffffffffffff161061171c57600080fd5b82826000015183602001518460400151604051602001808473ffffffffffffffffffffffffffffffffffffffff1681526020018373ffffffffffffffffffffffffffffffffffffffff1681526020018262ffffff1681526020019350505050604051602081830303815290604052805190602001207fe34f199b19b2b4f47f68442619d555527d244f78a3297ea89325f843f87b8b5460001b60405160200180807fff000000000000000000000000000000000000000000000000000000000000008152506001018473ffffffffffffffffffffffffffffffffffffffff1660601b815260140183815260200182815260200193505050506040516020818303038152906040528051906020012060001c905092915050565b6000808573ffffffffffffffffffffffffffffffffffffffff166323b872dd60e01b868686604051602401808473ffffffffffffffffffffffffffffffffffffffff1681526020018373ffffffffffffffffffffffffffffffffffffffff1681526020018281526020019350505050604051602081830303815290604052907bffffffffffffffffffffffffffffffffffffffffffffffffffffffff19166020820180517bffffffffffffffffffffffffffffffffffffffffffffffffffffffff83818316178352505050506040518082805190602001908083835b602083106119345780518252602082019150602081019050602083039250611911565b6001836020036101000a0380198251168184511680821785525050505050509050019150506000604051808303816000865af19150503d8060008114611996576040519150601f19603f3d011682016040523d82523d6000602084013e61199b565b606091505b50915091508180156119db57506000815114806119da57508080602001905160208110156119c857600080fd5b81019080805190602001909291905050505b5b611a4d576040517f08c379a00000000000000000000000000000000000000000000000000000000081526004018080602001828103825260038152602001807f535446000000000000000000000000000000000000000000000000000000000081525060200191505060405180910390fd5b505050505050565b600081359050611a64816123ce565b92915050565b600081519050611a79816123ce565b92915050565b600081519050611a8e816123e5565b92915050565b60008083601f840112611aa657600080fd5b8235905067ffffffffffffffff811115611abf57600080fd5b602083019150836001820283011115611ad757600080fd5b9250929050565b600081519050611aed816123fc565b92915050565b600060808284031215611b0557600080fd5b611b0f60406122b0565b90506000611b1f84828501611b9f565b6000830152506060611b3384828501611a55565b60208301525092915050565b600060608284031215611b5157600080fd5b611b5b60606122b0565b90506000611b6b84828501611c68565b6000830152506020611b7f84828501611c68565b6020830152506040611b9384828501611a55565b60408301525092915050565b600060608284031215611bb157600080fd5b611bbb60606122b0565b90506000611bcb84828501611a55565b6000830152506020611bdf84828501611a55565b6020830152506040611bf384828501611c3e565b60408301525092915050565b600081519050611c0e81612413565b92915050565b600081519050611c2381612441565b92915050565b600081519050611c388161242a565b92915050565b600081359050611c4d81612458565b92915050565b600081519050611c6281612458565b92915050565b600081359050611c778161246f565b92915050565b600081519050611c8c8161246f565b92915050565b600081519050611ca181612486565b92915050565b600060208284031215611cb957600080fd5b6000611cc784828501611a6a565b91505092915050565b600080600080600060808688031215611ce857600080fd5b6000611cf688828901611a55565b9550506020611d0788828901611a55565b9450506040611d1888828901611c68565b935050606086013567ffffffffffffffff811115611d3557600080fd5b611d4188828901611a94565b92509250509295509295909350565b60008060408385031215611d6357600080fd5b6000611d7185828601611a55565b9250506020611d8285828601611c68565b9150509250929050565b600080600060608486031215611da157600080fd5b6000611daf86828701611a55565b9350506020611dc086828701611c68565b9250506040611dd186828701611a55565b9150509250925092565b600060208284031215611ded57600080fd5b6000611dfb84828501611ade565b91505092915050565b600060808284031215611e1657600080fd5b6000611e2484828501611af3565b91505092915050565b600060608284031215611e3f57600080fd5b6000611e4d84828501611b3f565b91505092915050565b600080600080600080600060e0888a031215611e7157600080fd5b6000611e7f8a828b01611c14565b9750506020611e908a828b01611ade565b9650506040611ea18a828b01611c29565b9550506060611eb28a828b01611c29565b9450506080611ec38a828b01611c29565b93505060a0611ed48a828b01611c92565b92505060c0611ee58a828b01611a7f565b91505092959891949750929550565b600060208284031215611f0657600080fd5b6000611f1484828501611c53565b91505092915050565b600060208284031215611f2f57600080fd5b6000611f3d84828501611c68565b91505092915050565b60008060408385031215611f5957600080fd5b6000611f6785828601611c68565b9250506020611f7885828601611a55565b9150509250929050565b60008060008060808587031215611f9857600080fd5b6000611fa687828801611c7d565b9450506020611fb787828801611bff565b9350506040611fc887828801611c7d565b9250506060611fd987828801611c7d565b91505092959194509250565b60008060008060608587031215611ffb57600080fd5b600061200987828801611c68565b945050602061201a87828801611c68565b935050604085013567ffffffffffffffff81111561203757600080fd5b61204387828801611a94565b925092505092959194509250565b61205a816122e1565b82525050565b612069816122e1565b82525050565b612078816122ff565b82525050565b612087816123a8565b82525050565b6120968161232b565b82525050565b610160820160008201516120b36000850182612051565b5060208201516120c66020850182612051565b5060408201516120d9604085018261218c565b5060608201516120ec606085018261208d565b5060808201516120ff608085018261208d565b5060a082015161211260a085018261219b565b5060c082015161212560c085018261219b565b5060e082015161213860e085018261219b565b5061010082015161214d61010085018261219b565b50610120820151612162610120850182612051565b5061014082015161217761014085018261219b565b50505050565b61218681612338565b82525050565b61219581612382565b82525050565b6121a481612391565b82525050565b6121b381612391565b82525050565b60006020820190506121ce6000830184612060565b92915050565b60006080820190506121e96000830187612060565b6121f6602083018661217d565b6122036040830185612060565b6122106060830184612060565b95945050505050565b600060208201905061222e600083018461206f565b92915050565b6000602082019050612249600083018461207e565b92915050565b600061016082019050612265600083018461209c565b92915050565b600060808201905061228060008301876121aa565b61228d602083018661217d565b61229a60408301856121aa565b6122a760608301846121aa565b95945050505050565b6000604051905081810181811067ffffffffffffffff821117156122d7576122d66123cc565b5b8060405250919050565b60006122ec82612362565b9050919050565b60008115159050919050565b60007fffffffff0000000000000000000000000000000000000000000000000000000082169050919050565b60008160020b9050919050565b60006fffffffffffffffffffffffffffffffff82169050919050565b600061ffff82169050919050565b600073ffffffffffffffffffffffffffffffffffffffff82169050919050565b600062ffffff82169050919050565b6000819050919050565b600060ff82169050919050565b60006123b3826123ba565b9050919050565b60006123c582612362565b9050919050565bfe5b6123d7816122e1565b81146123e257600080fd5b50565b6123ee816122f3565b81146123f957600080fd5b50565b6124058161232b565b811461241057600080fd5b50565b61241c81612338565b811461242757600080fd5b50565b61243381612354565b811461243e57600080fd5b50565b61244a81612362565b811461245557600080fd5b50565b61246181612382565b811461246c57600080fd5b50565b61247881612391565b811461248357600080fd5b50565b61248f8161239b565b811461249a57600080fd5b5056fea26469706673582212204fc7a5f84c3167558e5727d1512a1e0c2994930a121c6172e697ce40cfc588c864736f6c63430007060033",
  "linkReferences": {},
  "deployedLinkReferences": {}
}