{
  "_format": "hh-sol-artifact-1",
  "contractName": "PositionManager",
  "sourceName": "contracts/PositionManager.sol",
  "abi": [
    {
      "inputs": [
        {
          "internalType": "contract INonfungiblePositionManager",
          "name": "_nonfungiblePositionManager",
          "type": "address"
        },
        {
          "internalType": "address",
          "name": "_factory",
          "type": "address"
        },
        {
          "internalType": "address",
          "name": "_WETH9",
          "type": "address"
        }
      ],
      "stateMutability": "nonpayable",
      "type": "constructor"
    },
    {
      "inputs": [],
      "name": "WETH9",
      "outputs": [
        {
          "internalType": "address",
          "name": "",
          "type": "address"
        }
      ],
      "stateMutability": "view",
      "type": "function"
    },
    {
      "inputs": [
        {
          "internalType": "uint256",
          "name": "",
          "type": "uint256"
        }
      ],
      "name": "deposits",
      "outputs": [
        {
          "internalType": "address",
          "name": "owner",
          "type": "address"
        },
        {
          "internalType": "uint128",
          "name": "liquidity",
          "type": "uint128"
        },
        {
          "internalType": "address",
          "name": "token0",
          "type": "address"
        },
        {
          "internalType": "address",
          "name": "token1",
          "type": "address"
        }
      ],
      "stateMutability": "view",
      "type": "function"
    },
    {
      "inputs": [],
      "name": "factory",
      "outputs": [
        {
          "internalType": "address",
          "name": "",
          "type": "address"
        }
      ],
      "stateMutability": "view",
      "type": "function"
    },
    {
      "inputs": [
        {
          "components": [
            {
              "internalType": "uint256",
              "name": "amount0ToMint",
              "type": "uint256"
            },
            {
              "internalType": "uint256",
              "name": "amount1ToMint",
              "type": "uint256"
            },
            {
              "internalType": "address",
              "name": "pool",
              "type": "address"
            },
            {
              "internalType": "uint24",
              "name": "poolFee",
              "type": "uint24"
            },
            {
              "internalType": "address",
              "name": "token0",
              "type": "address"
            },
            {
              "internalType": "address",
              "name": "token1",
              "type": "address"
            },
            {
              "internalType": "int24",
              "name": "tickSpacing",
              "type": "int24"
            }
          ],
          "internalType": "struct PositionManager.MintParams",
          "name": "mintParams",
          "type": "tuple"
        }
      ],
      "name": "mintNewPosition",
      "outputs": [
        {
          "internalType": "uint256",
          "name": "tokenId",
          "type": "uint256"
        },
        {
          "internalType": "uint128",
          "name": "liquidity",
          "type": "uint128"
        },
        {
          "internalType": "uint256",
          "name": "amount0",
          "type": "uint256"
        },
        {
          "internalType": "uint256",
          "name": "amount1",
          "type": "uint256"
        }
      ],
      "stateMutability": "nonpayable",
      "type": "function"
    },
    {
      "inputs": [],
      "name": "nonfungiblePositionManager",
      "outputs": [
        {
          "internalType": "contract INonfungiblePositionManager",
          "name": "",
          "type": "address"
        }
      ],
      "stateMutability": "view",
      "type": "function"
    },
    {
      "inputs": [
        {
          "internalType": "address",
          "name": "",
          "type": "address"
        },
        {
          "internalType": "address",
          "name": "",
          "type": "address"
        },
        {
          "internalType": "uint256",
          "name": "",
          "type": "uint256"
        },
        {
          "internalType": "bytes",
          "name": "",
          "type": "bytes"
        }
      ],
      "name": "onERC721Received",
      "outputs": [
        {
          "internalType": "bytes4",
          "name": "",
          "type": "bytes4"
        }
      ],
      "stateMutability": "pure",
      "type": "function"
    },
    {
      "inputs": [
        {
          "internalType": "address",
          "name": "token",
          "type": "address"
        },
        {
          "internalType": "uint256",
          "name": "amount",
          "type": "uint256"
        }
      ],
      "name": "refund",
      "outputs": [],
      "stateMutability": "nonpayable",
      "type": "function"
    },
    {
      "inputs": [],
      "name": "refundETH",
      "outputs": [],
      "stateMutability": "payable",
      "type": "function"
    },
    {
      "inputs": [
        {
          "internalType": "address",
          "name": "token",
          "type": "address"
        },
        {
          "internalType": "uint256",
          "name": "amountMinimum",
          "type": "uint256"
        },
        {
          "internalType": "address",
          "name": "recipient",
          "type": "address"
        }
      ],
      "name": "sweepToken",
      "outputs": [],
      "stateMutability": "payable",
      "type": "function"
    },
    {
      "inputs": [
        {
          "internalType": "uint256",
          "name": "amount0Owed",
          "type": "uint256"
        },
        {
          "internalType": "uint256",
          "name": "amount1Owed",
          "type": "uint256"
        },
        {
          "internalType": "bytes",
          "name": "data",
          "type": "bytes"
        }
      ],
      "name": "uniswapV3MintCallback",
      "outputs": [],
      "stateMutability": "nonpayable",
      "type": "function"
    },
    {
      "inputs": [
        {
          "internalType": "uint256",
          "name": "amountMinimum",
          "type": "uint256"
        },
        {
          "internalType": "address",
          "name": "recipient",
          "type": "address"
        }
      ],
      "name": "unwrapWETH9",
      "outputs": [],
      "stateMutability": "payable",
      "type": "function"
    },
    {
      "stateMutability": "payable",
      "type": "receive"
    }
  ],
  "bytecode": "0x60e06040523480156200001157600080fd5b5060405162002d7638038062002d76833981810160405281019062000037919062000117565b81818173ffffffffffffffffffffffffffffffffffffffff1660808173ffffffffffffffffffffffffffffffffffffffff1660601b815250508073ffffffffffffffffffffffffffffffffffffffff1660a08173ffffffffffffffffffffffffffffffffffffffff1660601b8152505050508273ffffffffffffffffffffffffffffffffffffffff1660c08173ffffffffffffffffffffffffffffffffffffffff1660601b81525050505050620001e9565b600081519050620000fa81620001b5565b92915050565b6000815190506200011181620001cf565b92915050565b6000806000606084860312156200012d57600080fd5b60006200013d8682870162000100565b93505060206200015086828701620000e9565b92505060406200016386828701620000e9565b9150509250925092565b60006200017a8262000195565b9050919050565b60006200018e826200016d565b9050919050565b600073ffffffffffffffffffffffffffffffffffffffff82169050919050565b620001c0816200016d565b8114620001cc57600080fd5b50565b620001da8162000181565b8114620001e657600080fd5b50565b60805160601c60a05160601c60c05160601c612b26620002506000398061062b528061092f52806109625280610a6952508060a7528061037d52806104c0528061055b5280610d1e5280610d7e5280610dff52508061064f52806106895250612b266000f3fe6080604052600436106100a05760003560e01c8063b02c43d011610064578063b02c43d014610224578063b44a272214610264578063c45a01551461028f578063d3487997146102ba578063df2ab5bb146102e3578063edc3dd24146102ff57610168565b806312210e8a1461016d578063150b7a0214610177578063410085df146101b457806349404b7c146101dd5780634aa4a4fc146101f957610168565b36610168577f000000000000000000000000000000000000000000000000000000000000000073ffffffffffffffffffffffffffffffffffffffff163373ffffffffffffffffffffffffffffffffffffffff1614610166576040517f08c379a00000000000000000000000000000000000000000000000000000000081526004018080602001828103825260098152602001807f4e6f74205745544839000000000000000000000000000000000000000000000081525060200191505060405180910390fd5b005b600080fd5b61017561033f565b005b34801561018357600080fd5b5061019e60048036038101906101999190612375565b610355565b6040516101ab919061286c565b60405180910390f35b3480156101c057600080fd5b506101db60048036038101906101d691906123f5565b61036a565b005b6101f760048036038101906101f29190612599565b610379565b005b34801561020557600080fd5b5061020e610559565b60405161021b919061280c565b60405180910390f35b34801561023057600080fd5b5061024b60048036038101906102469190612570565b61057d565b60405161025b9493929190612827565b60405180910390f35b34801561027057600080fd5b50610279610629565b6040516102869190612887565b60405180910390f35b34801561029b57600080fd5b506102a461064d565b6040516102b1919061280c565b60405180910390f35b3480156102c657600080fd5b506102e160048036038101906102dc9190612638565b610671565b005b6102fd60048036038101906102f89190612431565b6106fe565b005b34801561030b57600080fd5b50610326600480360381019061032191906124a9565b610835565b60405161033694939291906128be565b60405180910390f35b6000471115610353576103523347610b44565b5b565b600063150b7a0260e01b905095945050505050565b610375823383610cc0565b5050565b60007f000000000000000000000000000000000000000000000000000000000000000073ffffffffffffffffffffffffffffffffffffffff166370a08231306040518263ffffffff1660e01b8152600401808273ffffffffffffffffffffffffffffffffffffffff16815260200191505060206040518083038186803b15801561040257600080fd5b505afa158015610416573d6000803e3d6000fd5b505050506040513d602081101561042c57600080fd5b81019080805190602001909291905050509050828110156104b5576040517f08c379a00000000000000000000000000000000000000000000000000000000081526004018080602001828103825260128152602001807f496e73756666696369656e74205745544839000000000000000000000000000081525060200191505060405180910390fd5b6000811115610554577f000000000000000000000000000000000000000000000000000000000000000073ffffffffffffffffffffffffffffffffffffffff16632e1a7d4d826040518263ffffffff1660e01b815260040180828152602001915050600060405180830381600087803b15801561053157600080fd5b505af1158015610545573d6000803e3d6000fd5b505050506105538282610b44565b5b505050565b7f000000000000000000000000000000000000000000000000000000000000000081565b60006020528060005260406000206000915090508060000160009054906101000a900473ffffffffffffffffffffffffffffffffffffffff16908060010160009054906101000a90046fffffffffffffffffffffffffffffffff16908060020160009054906101000a900473ffffffffffffffffffffffffffffffffffffffff16908060030160009054906101000a900473ffffffffffffffffffffffffffffffffffffffff16905084565b7f000000000000000000000000000000000000000000000000000000000000000081565b7f000000000000000000000000000000000000000000000000000000000000000081565b600082828101906106829190612480565b90506106b27f00000000000000000000000000000000000000000000000000000000000000008260000151610cd0565b5060008511156106d5576106d481600001516000015182602001513388610d1c565b5b60008411156106f7576106f681600001516020015182602001513387610d1c565b5b5050505050565b60008373ffffffffffffffffffffffffffffffffffffffff166370a08231306040518263ffffffff1660e01b8152600401808273ffffffffffffffffffffffffffffffffffffffff16815260200191505060206040518083038186803b15801561076757600080fd5b505afa15801561077b573d6000803e3d6000fd5b505050506040513d602081101561079157600080fd5b810190808051906020019092919050505090508281101561081a576040517f08c379a00000000000000000000000000000000000000000000000000000000081526004018080602001828103825260128152602001807f496e73756666696369656e7420746f6b656e000000000000000000000000000081525060200191505060405180910390fd5b600081111561082f5761082e848383610f27565b5b50505050565b6000806000806000856040015190506000808273ffffffffffffffffffffffffffffffffffffffff16633850c7bd6040518163ffffffff1660e01b815260040160e06040518083038186803b15801561088d57600080fd5b505afa1580156108a1573d6000803e3d6000fd5b505050506040513d601f19601f820116820180604052508101906108c591906124d2565b5050505050915091506108ed8273ffffffffffffffffffffffffffffffffffffffff16611128565b6000806109218a60c00151610906858d60c001516111c1565b018b60c0015161091a868e60c001516111c1565b0386611208565b915091506109588a608001517f00000000000000000000000000000000000000000000000000000000000000008c60000151611260565b61098b8a60a001517f00000000000000000000000000000000000000000000000000000000000000008c60200151611260565b60006040518061016001604052808c6080015173ffffffffffffffffffffffffffffffffffffffff1681526020018c60a0015173ffffffffffffffffffffffffffffffffffffffff1681526020018c6060015162ffffff1681526020018c60c001516109fb878f60c001516111c1565b0360020b81526020018c60c00151610a17878f60c001516111c1565b0160020b81526020018c6000015181526020018c60200151815260200160008152602001600081526020013373ffffffffffffffffffffffffffffffffffffffff168152602001601e420181525090507f000000000000000000000000000000000000000000000000000000000000000073ffffffffffffffffffffffffffffffffffffffff166388316456826040518263ffffffff1660e01b8152600401610ac091906128a2565b608060405180830381600087803b158015610ada57600080fd5b505af1158015610aee573d6000803e3d6000fd5b505050506040513d601f19601f82011682018060405250810190610b1291906125d5565b809a50819b50829c50839d5050505050610b3788888d8e608001518f60a00151611270565b5050505050509193509193565b60008273ffffffffffffffffffffffffffffffffffffffff1682600067ffffffffffffffff81118015610b7657600080fd5b506040519080825280601f01601f191660200182016040528015610ba95781602001600182028036833780820191505090505b506040518082805190602001908083835b60208310610bdd5780518252602082019150602081019050602083039250610bba565b6001836020036101000a03801982511681845116808217855250505050505090500191505060006040518083038185875af1925050503d8060008114610c3f576040519150601f19603f3d011682016040523d82523d6000602084013e610c44565b606091505b5050905080610cbb576040517f08c379a00000000000000000000000000000000000000000000000000000000081526004018080602001828103825260038152602001807f535445000000000000000000000000000000000000000000000000000000000081525060200191505060405180910390fd5b505050565b610ccb838383610f27565b505050565b6000610cdc83836112bf565b90508073ffffffffffffffffffffffffffffffffffffffff163373ffffffffffffffffffffffffffffffffffffffff1614610d1657600080fd5b92915050565b7f000000000000000000000000000000000000000000000000000000000000000073ffffffffffffffffffffffffffffffffffffffff168473ffffffffffffffffffffffffffffffffffffffff16148015610d775750804710155b15610ecf577f000000000000000000000000000000000000000000000000000000000000000073ffffffffffffffffffffffffffffffffffffffff1663d0e30db0826040518263ffffffff1660e01b81526004016000604051808303818588803b158015610de457600080fd5b505af1158015610df8573d6000803e3d6000fd5b50505050507f000000000000000000000000000000000000000000000000000000000000000073ffffffffffffffffffffffffffffffffffffffff1663a9059cbb83836040518363ffffffff1660e01b8152600401808373ffffffffffffffffffffffffffffffffffffffff16815260200182815260200192505050602060405180830381600087803b158015610e8e57600080fd5b505af1158015610ea2573d6000803e3d6000fd5b505050506040513d6020811015610eb857600080fd5b810190808051906020019092919050505050610f21565b3073ffffffffffffffffffffffffffffffffffffffff168373ffffffffffffffffffffffffffffffffffffffff161415610f1357610f0e848383610f27565b610f20565b610f1f8484848461141a565b5b5b50505050565b6000808473ffffffffffffffffffffffffffffffffffffffff1663a9059cbb60e01b8585604051602401808373ffffffffffffffffffffffffffffffffffffffff16815260200182815260200192505050604051602081830303815290604052907bffffffffffffffffffffffffffffffffffffffffffffffffffffffff19166020820180517bffffffffffffffffffffffffffffffffffffffffffffffffffffffff83818316178352505050506040518082805190602001908083835b602083106110085780518252602082019150602081019050602083039250610fe5565b6001836020036101000a0380198251168184511680821785525050505050509050019150506000604051808303816000865af19150503d806000811461106a576040519150601f19603f3d011682016040523d82523d6000602084013e61106f565b606091505b50915091508180156110af57506000815114806110ae575080806020019051602081101561109c57600080fd5b81019080805190602001909291905050505b5b611121576040517f08c379a00000000000000000000000000000000000000000000000000000000081526004018080602001828103825260028152602001807f535400000000000000000000000000000000000000000000000000000000000081525060200191505060405180910390fd5b5050505050565b6111be81604051602401808281526020019150506040516020818303038152906040527ff5b1bba9000000000000000000000000000000000000000000000000000000007bffffffffffffffffffffffffffffffffffffffffffffffffffffffff19166020820180517bffffffffffffffffffffffffffffffffffffffffffffffffffffffff838183161783525050505061163a565b50565b6000808260020b8460020b816111d357fe5b05905082810290506000838201905081850360020b85820360020b12156111fc57809250611200565b8192505b505092915050565b600080600060405180606001604052808760020b81526020018660020b81526020018573ffffffffffffffffffffffffffffffffffffffff16815250905061124f81611663565b809350819450505050935093915050565b61126b838383611751565b505050565b8260000151851015611294576000858460000151039050611292833383610cc0565b505b82602001518410156112b85760008484602001510390506112b6823383610cc0565b505b5050505050565b6000816020015173ffffffffffffffffffffffffffffffffffffffff16826000015173ffffffffffffffffffffffffffffffffffffffff161061130157600080fd5b82826000015183602001518460400151604051602001808473ffffffffffffffffffffffffffffffffffffffff1681526020018373ffffffffffffffffffffffffffffffffffffffff1681526020018262ffffff1681526020019350505050604051602081830303815290604052805190602001207fe34f199b19b2b4f47f68442619d555527d244f78a3297ea89325f843f87b8b5460001b60405160200180807fff000000000000000000000000000000000000000000000000000000000000008152506001018473ffffffffffffffffffffffffffffffffffffffff1660601b815260140183815260200182815260200193505050506040516020818303038152906040528051906020012060001c905092915050565b6000808573ffffffffffffffffffffffffffffffffffffffff166323b872dd60e01b868686604051602401808473ffffffffffffffffffffffffffffffffffffffff1681526020018373ffffffffffffffffffffffffffffffffffffffff1681526020018281526020019350505050604051602081830303815290604052907bffffffffffffffffffffffffffffffffffffffffffffffffffffffff19166020820180517bffffffffffffffffffffffffffffffffffffffffffffffffffffffff83818316178352505050506040518082805190602001908083835b6020831061151957805182526020820191506020810190506020830392506114f6565b6001836020036101000a0380198251168184511680821785525050505050509050019150506000604051808303816000865af19150503d806000811461157b576040519150601f19603f3d011682016040523d82523d6000602084013e611580565b606091505b50915091508180156115c057506000815114806115bf57508080602001905160208110156115ad57600080fd5b81019080805190602001909291905050505b5b611632576040517f08c379a00000000000000000000000000000000000000000000000000000000081526004018080602001828103825260038152602001807f535446000000000000000000000000000000000000000000000000000000000081525060200191505060405180910390fd5b505050505050565b60008151905060006a636f6e736f6c652e6c6f679050602083016000808483855afa5050505050565b60008060006116758460000151611952565b905060006116868560200151611952565b90506116ab856040015173ffffffffffffffffffffffffffffffffffffffff16611128565b6116ca8273ffffffffffffffffffffffffffffffffffffffff16611128565b6116e98173ffffffffffffffffffffffffffffffffffffffff16611128565b6000670de0b6b3a76400009050611711816fffffffffffffffffffffffffffffffff16611128565b611722866040015184836001611d8d565b9450611735866040015183836001611ec3565b935061174085611128565b61174984611128565b505050915091565b6000808473ffffffffffffffffffffffffffffffffffffffff1663095ea7b360e01b8585604051602401808373ffffffffffffffffffffffffffffffffffffffff16815260200182815260200192505050604051602081830303815290604052907bffffffffffffffffffffffffffffffffffffffffffffffffffffffff19166020820180517bffffffffffffffffffffffffffffffffffffffffffffffffffffffff83818316178352505050506040518082805190602001908083835b60208310611832578051825260208201915060208101905060208303925061180f565b6001836020036101000a0380198251168184511680821785525050505050509050019150506000604051808303816000865af19150503d8060008114611894576040519150601f19603f3d011682016040523d82523d6000602084013e611899565b606091505b50915091508180156118d957506000815114806118d857508080602001905160208110156118c657600080fd5b81019080805190602001909291905050505b5b61194b576040517f08c379a00000000000000000000000000000000000000000000000000000000081526004018080602001828103825260028152602001807f534100000000000000000000000000000000000000000000000000000000000081525060200191505060405180910390fd5b5050505050565b60008060008360020b12611969578260020b611971565b8260020b6000035b90507ffffffffffffffffffffffffffffffffffffffffffffffffffffffffffff2761860000360020b811115611a0f576040517f08c379a00000000000000000000000000000000000000000000000000000000081526004018080602001828103825260018152602001807f540000000000000000000000000000000000000000000000000000000000000081525060200191505060405180910390fd5b600080600183161415611a3357700100000000000000000000000000000000611a45565b6ffffcb933bd6fad37aa2d162d1a5940015b70ffffffffffffffffffffffffffffffffff16905060006002831614611a7f5760806ffff97272373d413259a46990580e213a8202901c90505b60006004831614611aa45760806ffff2e50f5f656932ef12357cf3c7fdcc8202901c90505b60006008831614611ac95760806fffe5caca7e10e4e61c3624eaa0941cd08202901c90505b60006010831614611aee5760806fffcb9843d60f6159c9db58835c9266448202901c90505b60006020831614611b135760806fff973b41fa98c081472e6896dfb254c08202901c90505b60006040831614611b385760806fff2ea16466c96a3843ec78b326b528618202901c90505b60006080831614611b5d5760806ffe5dee046a99a2a811c461f1969c30538202901c90505b6000610100831614611b835760806ffcbe86c7900a88aedcffc83b479aa3a48202901c90505b6000610200831614611ba95760806ff987a7253ac413176f2b074cf7815e548202901c90505b6000610400831614611bcf5760806ff3392b0822b70005940c7a398e4b70f38202901c90505b6000610800831614611bf55760806fe7159475a2c29b7443b29c7fa6e889d98202901c90505b6000611000831614611c1b5760806fd097f3bdfd2022b8845ad8f792aa58258202901c90505b6000612000831614611c415760806fa9f746462d870fdf8a65dc1f90e061e58202901c90505b6000614000831614611c675760806f70d869a156d2a1b890bb3df62baf32f78202901c90505b6000618000831614611c8d5760806f31be135f97d08fd981231505542fcfa68202901c90505b600062010000831614611cb45760806f09aa508b5b7a84e1c677de54f3e99bc98202901c90505b600062020000831614611cda5760806e5d6af8dedb81196699c329225ee6048202901c90505b600062040000831614611cff5760806d2216e584f5fa1ea926041bedfe988202901c90505b600062080000831614611d225760806b048a170391f7dc42444e8fa28202901c90505b60008460020b1315611d5b57807fffffffffffffffffffffffffffffffffffffffffffffffffffffffffffffffff81611d5757fe5b0490505b60006401000000008281611d6b57fe5b0614611d78576001611d7b565b60005b60ff16602082901c0192505050919050565b60008373ffffffffffffffffffffffffffffffffffffffff168573ffffffffffffffffffffffffffffffffffffffff161115611dce57838580955081965050505b6000606060ff16846fffffffffffffffffffffffffffffffff16901b9050600086860373ffffffffffffffffffffffffffffffffffffffff16905060008773ffffffffffffffffffffffffffffffffffffffff1611611e2c57600080fd5b83611e76578673ffffffffffffffffffffffffffffffffffffffff16611e6983838973ffffffffffffffffffffffffffffffffffffffff16611f9d565b81611e7057fe5b04611eb7565b611eb6611e9a83838973ffffffffffffffffffffffffffffffffffffffff16612077565b8873ffffffffffffffffffffffffffffffffffffffff166120d5565b5b92505050949350505050565b60008373ffffffffffffffffffffffffffffffffffffffff168573ffffffffffffffffffffffffffffffffffffffff161115611f0457838580955081965050505b81611f5057611f4b836fffffffffffffffffffffffffffffffff1686860373ffffffffffffffffffffffffffffffffffffffff166c01000000000000000000000000611f9d565b611f93565b611f92836fffffffffffffffffffffffffffffffff1686860373ffffffffffffffffffffffffffffffffffffffff166c01000000000000000000000000612077565b5b9050949350505050565b600080600080198587098587029250828110838203039150506000811415611fd85760008411611fcc57600080fd5b83820492505050612070565b808411611fe457600080fd5b600084868809905082811182039150808303925060008586600003169050808604955080840493506001818260000304019050808302841793506000600287600302189050808702600203810290508087026002038102905080870260020381029050808702600203810290508087026002038102905080870260020381029050808502955050505050505b9392505050565b6000612084848484611f9d565b90506000828061209057fe5b84860911156120ce577fffffffffffffffffffffffffffffffffffffffffffffffffffffffffffffffff81106120c557600080fd5b80806001019150505b9392505050565b6000808284061182840401905092915050565b6000813590506120f781612a21565b92915050565b60008151905061210c81612a38565b92915050565b60008083601f84011261212457600080fd5b8235905067ffffffffffffffff81111561213d57600080fd5b60208301915083600182028301111561215557600080fd5b9250929050565b60008135905061216b81612a4f565b92915050565b60008151905061218081612a4f565b92915050565b60006080828403121561219857600080fd5b6121a26040612903565b905060006121b284828501612282565b60008301525060606121c6848285016120e8565b60208301525092915050565b600060e082840312156121e457600080fd5b6121ee60e0612903565b905060006121fe84828501612336565b600083015250602061221284828501612336565b6020830152506040612226848285016120e8565b604083015250606061223a84828501612321565b606083015250608061224e848285016120e8565b60808301525060a0612262848285016120e8565b60a08301525060c06122768482850161215c565b60c08301525092915050565b60006060828403121561229457600080fd5b61229e6060612903565b905060006122ae848285016120e8565b60008301525060206122c2848285016120e8565b60208301525060406122d684828501612321565b60408301525092915050565b6000815190506122f181612a66565b92915050565b60008151905061230681612a94565b92915050565b60008151905061231b81612a7d565b92915050565b60008135905061233081612aab565b92915050565b60008135905061234581612ac2565b92915050565b60008151905061235a81612ac2565b92915050565b60008151905061236f81612ad9565b92915050565b60008060008060006080868803121561238d57600080fd5b600061239b888289016120e8565b95505060206123ac888289016120e8565b94505060406123bd88828901612336565b935050606086013567ffffffffffffffff8111156123da57600080fd5b6123e688828901612112565b92509250509295509295909350565b6000806040838503121561240857600080fd5b6000612416858286016120e8565b925050602061242785828601612336565b9150509250929050565b60008060006060848603121561244657600080fd5b6000612454868287016120e8565b935050602061246586828701612336565b9250506040612476868287016120e8565b9150509250925092565b60006080828403121561249257600080fd5b60006124a084828501612186565b91505092915050565b600060e082840312156124bb57600080fd5b60006124c9848285016121d2565b91505092915050565b600080600080600080600060e0888a0312156124ed57600080fd5b60006124fb8a828b016122f7565b975050602061250c8a828b01612171565b965050604061251d8a828b0161230c565b955050606061252e8a828b0161230c565b945050608061253f8a828b0161230c565b93505060a06125508a828b01612360565b92505060c06125618a828b016120fd565b91505092959891949750929550565b60006020828403121561258257600080fd5b600061259084828501612336565b91505092915050565b600080604083850312156125ac57600080fd5b60006125ba85828601612336565b92505060206125cb858286016120e8565b9150509250929050565b600080600080608085870312156125eb57600080fd5b60006125f98782880161234b565b945050602061260a878288016122e2565b935050604061261b8782880161234b565b925050606061262c8782880161234b565b91505092959194509250565b6000806000806060858703121561264e57600080fd5b600061265c87828801612336565b945050602061266d87828801612336565b935050604085013567ffffffffffffffff81111561268a57600080fd5b61269687828801612112565b925092505092959194509250565b6126ad81612934565b82525050565b6126bc81612934565b82525050565b6126cb81612952565b82525050565b6126da816129fb565b82525050565b6126e98161297e565b82525050565b6101608201600082015161270660008501826126a4565b50602082015161271960208501826126a4565b50604082015161272c60408501826127df565b50606082015161273f60608501826126e0565b50608082015161275260808501826126e0565b5060a082015161276560a08501826127ee565b5060c082015161277860c08501826127ee565b5060e082015161278b60e08501826127ee565b506101008201516127a06101008501826127ee565b506101208201516127b56101208501826126a4565b506101408201516127ca6101408501826127ee565b50505050565b6127d98161298b565b82525050565b6127e8816129d5565b82525050565b6127f7816129e4565b82525050565b612806816129e4565b82525050565b600060208201905061282160008301846126b3565b92915050565b600060808201905061283c60008301876126b3565b61284960208301866127d0565b61285660408301856126b3565b61286360608301846126b3565b95945050505050565b600060208201905061288160008301846126c2565b92915050565b600060208201905061289c60008301846126d1565b92915050565b6000610160820190506128b860008301846126ef565b92915050565b60006080820190506128d360008301876127fd565b6128e060208301866127d0565b6128ed60408301856127fd565b6128fa60608301846127fd565b95945050505050565b6000604051905081810181811067ffffffffffffffff8211171561292a57612929612a1f565b5b8060405250919050565b600061293f826129b5565b9050919050565b60008115159050919050565b60007fffffffff0000000000000000000000000000000000000000000000000000000082169050919050565b60008160020b9050919050565b60006fffffffffffffffffffffffffffffffff82169050919050565b600061ffff82169050919050565b600073ffffffffffffffffffffffffffffffffffffffff82169050919050565b600062ffffff82169050919050565b6000819050919050565b600060ff82169050919050565b6000612a0682612a0d565b9050919050565b6000612a18826129b5565b9050919050565bfe5b612a2a81612934565b8114612a3557600080fd5b50565b612a4181612946565b8114612a4c57600080fd5b50565b612a588161297e565b8114612a6357600080fd5b50565b612a6f8161298b565b8114612a7a57600080fd5b50565b612a86816129a7565b8114612a9157600080fd5b50565b612a9d816129b5565b8114612aa857600080fd5b50565b612ab4816129d5565b8114612abf57600080fd5b50565b612acb816129e4565b8114612ad657600080fd5b50565b612ae2816129ee565b8114612aed57600080fd5b5056fea26469706673582212207fc9b97787284ae7aad45bb902ea340753cbd593db5dd43475ae00c21683652764736f6c63430007060033",
  "linkReferences": {},
  "deployedLinkReferences": {}
}