{
  "_format": "hh-sol-artifact-1",
  "contractName": "PositionManager",
  "sourceName": "contracts/PositionManager.sol",
  "abi": [
    {
      "inputs": [
        {
          "internalType": "contract INonfungiblePositionManager",
          "name": "_nonfungiblePositionManager",
          "type": "address"
        },
        {
          "internalType": "contract ISwapRouter",
          "name": "_swaprouter",
          "type": "address"
        },
        {
          "internalType": "address",
          "name": "_factory",
          "type": "address"
        },
        {
          "internalType": "address",
          "name": "_WETH9",
          "type": "address"
        }
      ],
      "stateMutability": "nonpayable",
      "type": "constructor"
    },
    {
      "inputs": [],
      "name": "WETH9",
      "outputs": [
        {
          "internalType": "address",
          "name": "",
          "type": "address"
        }
      ],
      "stateMutability": "view",
      "type": "function"
    },
    {
      "inputs": [
        {
          "internalType": "uint256",
          "name": "",
          "type": "uint256"
        }
      ],
      "name": "deposits",
      "outputs": [
        {
          "internalType": "address",
          "name": "owner",
          "type": "address"
        },
        {
          "internalType": "uint128",
          "name": "liquidity",
          "type": "uint128"
        },
        {
          "internalType": "address",
          "name": "token0",
          "type": "address"
        },
        {
          "internalType": "address",
          "name": "token1",
          "type": "address"
        }
      ],
      "stateMutability": "view",
      "type": "function"
    },
    {
      "inputs": [],
      "name": "factory",
      "outputs": [
        {
          "internalType": "address",
          "name": "",
          "type": "address"
        }
      ],
      "stateMutability": "view",
      "type": "function"
    },
    {
      "inputs": [
        {
          "components": [
            {
              "internalType": "uint256",
              "name": "amount0ToMint",
              "type": "uint256"
            },
            {
              "internalType": "uint256",
              "name": "amount1ToMint",
              "type": "uint256"
            },
            {
              "internalType": "address",
              "name": "pool",
              "type": "address"
            },
            {
              "internalType": "uint24",
              "name": "poolFee",
              "type": "uint24"
            },
            {
              "internalType": "address",
              "name": "token0",
              "type": "address"
            },
            {
              "internalType": "address",
              "name": "token1",
              "type": "address"
            },
            {
              "internalType": "int24",
              "name": "tickSpacing",
              "type": "int24"
            },
            {
              "internalType": "int24",
              "name": "spacingMultiplier",
              "type": "int24"
            }
          ],
          "internalType": "struct PositionManager.MintParams",
          "name": "mintParams",
          "type": "tuple"
        }
      ],
      "name": "mintNewPosition",
      "outputs": [
        {
          "internalType": "uint256",
          "name": "tokenId",
          "type": "uint256"
        },
        {
          "internalType": "uint128",
          "name": "liquidity",
          "type": "uint128"
        },
        {
          "internalType": "uint256",
          "name": "amount0",
          "type": "uint256"
        },
        {
          "internalType": "uint256",
          "name": "amount1",
          "type": "uint256"
        }
      ],
      "stateMutability": "nonpayable",
      "type": "function"
    },
    {
      "inputs": [],
      "name": "nonfungiblePositionManager",
      "outputs": [
        {
          "internalType": "contract INonfungiblePositionManager",
          "name": "",
          "type": "address"
        }
      ],
      "stateMutability": "view",
      "type": "function"
    },
    {
      "inputs": [
        {
          "internalType": "address",
          "name": "",
          "type": "address"
        },
        {
          "internalType": "address",
          "name": "",
          "type": "address"
        },
        {
          "internalType": "uint256",
          "name": "",
          "type": "uint256"
        },
        {
          "internalType": "bytes",
          "name": "",
          "type": "bytes"
        }
      ],
      "name": "onERC721Received",
      "outputs": [
        {
          "internalType": "bytes4",
          "name": "",
          "type": "bytes4"
        }
      ],
      "stateMutability": "pure",
      "type": "function"
    },
    {
      "inputs": [],
      "name": "refundETH",
      "outputs": [],
      "stateMutability": "payable",
      "type": "function"
    },
    {
      "inputs": [],
      "name": "swapRouter",
      "outputs": [
        {
          "internalType": "contract ISwapRouter",
          "name": "",
          "type": "address"
        }
      ],
      "stateMutability": "view",
      "type": "function"
    },
    {
      "inputs": [
        {
          "internalType": "address",
          "name": "token",
          "type": "address"
        },
        {
          "internalType": "uint256",
          "name": "amountMinimum",
          "type": "uint256"
        },
        {
          "internalType": "address",
          "name": "recipient",
          "type": "address"
        }
      ],
      "name": "sweepToken",
      "outputs": [],
      "stateMutability": "payable",
      "type": "function"
    },
    {
      "inputs": [
        {
          "internalType": "address",
          "name": "token",
          "type": "address"
        },
        {
          "internalType": "uint256",
          "name": "amount",
          "type": "uint256"
        }
      ],
      "name": "tokenReturn",
      "outputs": [],
      "stateMutability": "nonpayable",
      "type": "function"
    },
    {
      "inputs": [
        {
          "internalType": "uint256",
          "name": "amount0Owed",
          "type": "uint256"
        },
        {
          "internalType": "uint256",
          "name": "amount1Owed",
          "type": "uint256"
        },
        {
          "internalType": "bytes",
          "name": "data",
          "type": "bytes"
        }
      ],
      "name": "uniswapV3MintCallback",
      "outputs": [],
      "stateMutability": "nonpayable",
      "type": "function"
    },
    {
      "inputs": [
        {
          "internalType": "uint256",
          "name": "amountMinimum",
          "type": "uint256"
        },
        {
          "internalType": "address",
          "name": "recipient",
          "type": "address"
        }
      ],
      "name": "unwrapWETH9",
      "outputs": [],
      "stateMutability": "payable",
      "type": "function"
    },
    {
      "stateMutability": "payable",
      "type": "receive"
    }
  ],
  "bytecode": "0x6101006040523480156200001257600080fd5b506040516200389b3803806200389b833981810160405281019062000038919062000167565b81818173ffffffffffffffffffffffffffffffffffffffff1660808173ffffffffffffffffffffffffffffffffffffffff1660601b815250508073ffffffffffffffffffffffffffffffffffffffff1660a08173ffffffffffffffffffffffffffffffffffffffff1660601b8152505050508373ffffffffffffffffffffffffffffffffffffffff1660c08173ffffffffffffffffffffffffffffffffffffffff1660601b815250508273ffffffffffffffffffffffffffffffffffffffff1660e08173ffffffffffffffffffffffffffffffffffffffff1660601b81525050505050506200027d565b60008151905062000133816200022f565b92915050565b6000815190506200014a8162000249565b92915050565b600081519050620001618162000263565b92915050565b600080600080608085870312156200017e57600080fd5b60006200018e8782880162000139565b9450506020620001a18782880162000150565b9350506040620001b48782880162000122565b9250506060620001c78782880162000122565b91505092959194509250565b6000620001e0826200020f565b9050919050565b6000620001f482620001d3565b9050919050565b60006200020882620001d3565b9050919050565b600073ffffffffffffffffffffffffffffffffffffffff82169050919050565b6200023a81620001d3565b81146200024657600080fd5b50565b6200025481620001e7565b81146200026057600080fd5b50565b6200026e81620001fb565b81146200027a57600080fd5b50565b60805160601c60a05160601c60c05160601c60e05160601c6135a6620002f5600039806109cd5280610dab5250806104525280610481528061058852806109a952508060b152806106fb528061083e52806108d952806111a4528061120452806112855250806109f15280610a2b52506135a66000f3fe6080604052600436106100aa5760003560e01c8063b02c43d011610064578063b02c43d01461026e578063b44a2722146102ae578063c31c9c07146102d9578063c45a015514610304578063d34879971461032f578063df2ab5bb1461035857610172565b8062294e401461017757806312210e8a146101b7578063150b7a02146101c15780633becd62a146101fe57806349404b7c146102275780634aa4a4fc1461024357610172565b36610172577f000000000000000000000000000000000000000000000000000000000000000073ffffffffffffffffffffffffffffffffffffffff163373ffffffffffffffffffffffffffffffffffffffff1614610170576040517f08c379a00000000000000000000000000000000000000000000000000000000081526004018080602001828103825260098152602001807f4e6f74205745544839000000000000000000000000000000000000000000000081525060200191505060405180910390fd5b005b600080fd5b34801561018357600080fd5b5061019e60048036038101906101999190612de4565b610374565b6040516101ae949392919061331a565b60405180910390f35b6101bf6106bd565b005b3480156101cd57600080fd5b506101e860048036038101906101e39190612cb0565b6106d3565b6040516101f59190613291565b60405180910390f35b34801561020a57600080fd5b5061022560048036038101906102209190612d30565b6106e8565b005b610241600480360381019061023c9190612efe565b6106f7565b005b34801561024f57600080fd5b506102586108d7565b6040516102659190613231565b60405180910390f35b34801561027a57600080fd5b5061029560048036038101906102909190612eac565b6108fb565b6040516102a5949392919061324c565b60405180910390f35b3480156102ba57600080fd5b506102c36109a7565b6040516102d091906132ac565b60405180910390f35b3480156102e557600080fd5b506102ee6109cb565b6040516102fb91906132c7565b60405180910390f35b34801561031057600080fd5b506103196109ef565b6040516103269190613231565b60405180910390f35b34801561033b57600080fd5b5061035660048036038101906103519190612f9d565b610a13565b005b610372600480360381019061036d9190612d6c565b610aa0565b005b6000806000806000856040015190506000808273ffffffffffffffffffffffffffffffffffffffff16633850c7bd6040518163ffffffff1660e01b815260040160e06040518083038186803b1580156103cc57600080fd5b505afa1580156103e0573d6000803e3d6000fd5b505050506040513d601f19601f820116820180604052508101906104049190612e0e565b50505050509150915061042661041e828a60c00151610bd7565b60020b610c70565b6104368860e0015160020b610c70565b6000806104448a8486610d09565b915091506104778a608001517f000000000000000000000000000000000000000000000000000000000000000084610f57565b6104a68a60a001517f000000000000000000000000000000000000000000000000000000000000000083610f57565b60006040518061016001604052808c6080015173ffffffffffffffffffffffffffffffffffffffff1681526020018c60a0015173ffffffffffffffffffffffffffffffffffffffff1681526020018c6060015162ffffff1681526020018c60e001518d60c001510261051c878f60c00151610bd7565b0360020b81526020018c60e001518d60c001510261053e878f60c00151610bd7565b0160020b815260200184815260200183815260200160008152602001600081526020013373ffffffffffffffffffffffffffffffffffffffff168152602001601e420181525090507f000000000000000000000000000000000000000000000000000000000000000073ffffffffffffffffffffffffffffffffffffffff166388316456826040518263ffffffff1660e01b81526004016105df91906132fe565b608060405180830381600087803b1580156105f957600080fd5b505af115801561060d573d6000803e3d6000fd5b505050506040513d601f19601f820116820180604052508101906106319190612f3a565b809a50819b50829c50839d505050505060006040518060c001604052808a81526020018981526020018581526020018481526020018d6080015173ffffffffffffffffffffffffffffffffffffffff1681526020018d60a0015173ffffffffffffffffffffffffffffffffffffffff1681525090506106af81610f67565b505050505050509193509193565b60004711156106d1576106d03347610fca565b5b565b600063150b7a0260e01b905095945050505050565b6106f3823383611146565b5050565b60007f000000000000000000000000000000000000000000000000000000000000000073ffffffffffffffffffffffffffffffffffffffff166370a08231306040518263ffffffff1660e01b8152600401808273ffffffffffffffffffffffffffffffffffffffff16815260200191505060206040518083038186803b15801561078057600080fd5b505afa158015610794573d6000803e3d6000fd5b505050506040513d60208110156107aa57600080fd5b8101908080519060200190929190505050905082811015610833576040517f08c379a00000000000000000000000000000000000000000000000000000000081526004018080602001828103825260128152602001807f496e73756666696369656e74205745544839000000000000000000000000000081525060200191505060405180910390fd5b60008111156108d2577f000000000000000000000000000000000000000000000000000000000000000073ffffffffffffffffffffffffffffffffffffffff16632e1a7d4d826040518263ffffffff1660e01b815260040180828152602001915050600060405180830381600087803b1580156108af57600080fd5b505af11580156108c3573d6000803e3d6000fd5b505050506108d18282610fca565b5b505050565b7f000000000000000000000000000000000000000000000000000000000000000081565b60006020528060005260406000206000915090508060000160009054906101000a900473ffffffffffffffffffffffffffffffffffffffff16908060010160009054906101000a90046fffffffffffffffffffffffffffffffff16908060020160009054906101000a900473ffffffffffffffffffffffffffffffffffffffff16908060030160009054906101000a900473ffffffffffffffffffffffffffffffffffffffff16905084565b7f000000000000000000000000000000000000000000000000000000000000000081565b7f000000000000000000000000000000000000000000000000000000000000000081565b7f000000000000000000000000000000000000000000000000000000000000000081565b60008282810190610a249190612dbb565b9050610a547f00000000000000000000000000000000000000000000000000000000000000008260000151611156565b506000851115610a7757610a76816000015160000151826020015133886111a2565b5b6000841115610a9957610a98816000015160200151826020015133876111a2565b5b5050505050565b60008373ffffffffffffffffffffffffffffffffffffffff166370a08231306040518263ffffffff1660e01b8152600401808273ffffffffffffffffffffffffffffffffffffffff16815260200191505060206040518083038186803b158015610b0957600080fd5b505afa158015610b1d573d6000803e3d6000fd5b505050506040513d6020811015610b3357600080fd5b8101908080519060200190929190505050905082811015610bbc576040517f08c379a00000000000000000000000000000000000000000000000000000000081526004018080602001828103825260128152602001807f496e73756666696369656e7420746f6b656e000000000000000000000000000081525060200191505060405180910390fd5b6000811115610bd157610bd08483836113ad565b5b50505050565b6000808360020b1315610c295760008260020b8460020b81610bf557fe5b05905082810290506000838201905081850360020b85820360020b1215610c1e57809250610c22565b8192505b5050610c6a565b60008260020b8460020b81610c3a57fe5b05905082810290506000838203905080850360020b85830360020b1215610c6357819250610c67565b8092505b50505b92915050565b610d0681604051602401808281526020019150506040516020818303038152906040527f4e0c1d1d000000000000000000000000000000000000000000000000000000007bffffffffffffffffffffffffffffffffffffffffffffffffffffffff19166020820180517bffffffffffffffffffffffffffffffffffffffffffffffffffffffff83818316178352505050506115ae565b50565b600080600080610d1a8787876115d7565b91509150610d5d6040518060400160405280600c81526020017f7a65726f20666f72206f6e650000000000000000000000000000000000000000815250836117b5565b610d9c6040518060400160405280600c81526020017f616d6f756e74546f537761700000000000000000000000000000000000000000815250826118be565b600060405180608001604052807f000000000000000000000000000000000000000000000000000000000000000073ffffffffffffffffffffffffffffffffffffffff16815260200184610df4578960a00151610dfa565b89608001515b73ffffffffffffffffffffffffffffffffffffffff16815260200184610e24578960800151610e2a565b8960a001515b73ffffffffffffffffffffffffffffffffffffffff1681526020018381525090506000610e56826119c5565b9050610e976040518060400160405280600a81526020017f616d6f756e74204f757400000000000000000000000000000000000000000000815250826118be565b83610ea85780896000015101610eb0565b828960000151035b955083610ec35782896020015103610ecb565b808960200151015b9450610f0c6040518060400160405280600a81526020017f616d6f756e74304f757400000000000000000000000000000000000000000000815250876118be565b610f4b6040518060400160405280600a81526020017f616d6f756e74314f757400000000000000000000000000000000000000000000815250866118be565b50505050935093915050565b610f62838383611b23565b505050565b806040015181600001511015610f9757600081600001518260400151039050610f9582608001513383611146565b505b806060015181602001511015610fc757600081602001518260600151039050610fc58260a001513383611146565b505b50565b60008273ffffffffffffffffffffffffffffffffffffffff1682600067ffffffffffffffff81118015610ffc57600080fd5b506040519080825280601f01601f19166020018201604052801561102f5781602001600182028036833780820191505090505b506040518082805190602001908083835b602083106110635780518252602082019150602081019050602083039250611040565b6001836020036101000a03801982511681845116808217855250505050505090500191505060006040518083038185875af1925050503d80600081146110c5576040519150601f19603f3d011682016040523d82523d6000602084013e6110ca565b606091505b5050905080611141576040517f08c379a00000000000000000000000000000000000000000000000000000000081526004018080602001828103825260038152602001807f535445000000000000000000000000000000000000000000000000000000000081525060200191505060405180910390fd5b505050565b6111518383836113ad565b505050565b60006111628383611d24565b90508073ffffffffffffffffffffffffffffffffffffffff163373ffffffffffffffffffffffffffffffffffffffff161461119c57600080fd5b92915050565b7f000000000000000000000000000000000000000000000000000000000000000073ffffffffffffffffffffffffffffffffffffffff168473ffffffffffffffffffffffffffffffffffffffff161480156111fd5750804710155b15611355577f000000000000000000000000000000000000000000000000000000000000000073ffffffffffffffffffffffffffffffffffffffff1663d0e30db0826040518263ffffffff1660e01b81526004016000604051808303818588803b15801561126a57600080fd5b505af115801561127e573d6000803e3d6000fd5b50505050507f000000000000000000000000000000000000000000000000000000000000000073ffffffffffffffffffffffffffffffffffffffff1663a9059cbb83836040518363ffffffff1660e01b8152600401808373ffffffffffffffffffffffffffffffffffffffff16815260200182815260200192505050602060405180830381600087803b15801561131457600080fd5b505af1158015611328573d6000803e3d6000fd5b505050506040513d602081101561133e57600080fd5b8101908080519060200190929190505050506113a7565b3073ffffffffffffffffffffffffffffffffffffffff168373ffffffffffffffffffffffffffffffffffffffff161415611399576113948483836113ad565b6113a6565b6113a584848484611e7f565b5b5b50505050565b6000808473ffffffffffffffffffffffffffffffffffffffff1663a9059cbb60e01b8585604051602401808373ffffffffffffffffffffffffffffffffffffffff16815260200182815260200192505050604051602081830303815290604052907bffffffffffffffffffffffffffffffffffffffffffffffffffffffff19166020820180517bffffffffffffffffffffffffffffffffffffffffffffffffffffffff83818316178352505050506040518082805190602001908083835b6020831061148e578051825260208201915060208101905060208303925061146b565b6001836020036101000a0380198251168184511680821785525050505050509050019150506000604051808303816000865af19150503d80600081146114f0576040519150601f19603f3d011682016040523d82523d6000602084013e6114f5565b606091505b50915091508180156115355750600081511480611534575080806020019051602081101561152257600080fd5b81019080805190602001909291905050505b5b6115a7576040517f08c379a00000000000000000000000000000000000000000000000000000000081526004018080602001828103825260028152602001807f535400000000000000000000000000000000000000000000000000000000000081525060200191505060405180910390fd5b5050505050565b60008151905060006a636f6e736f6c652e6c6f679050602083016000808483855afa5050505050565b600080600060405180606001604052808760e001518860c0015102611600888a60c00151610bd7565b0160020b81526020018760e001518860c0015102611622888a60c00151610bd7565b0360020b81526020018573ffffffffffffffffffffffffffffffffffffffff16815250905060006116528261209f565b905060008760200151680100000000000000008960000151028161167257fe5b04905081811194508461169d57817001000000000000000000000000000000008161169957fe5b0491505b600080866116b45789602001518a600001516116bf565b89600001518a602001515b91509150600070010000000000000000000000000000000060028a73ffffffffffffffffffffffffffffffffffffffff160a816116f857fe5b0490508761171e57807001000000000000000000000000000000008161171a57fe5b0490505b70010000000000000000000000000000000081860201700100000000000000000000000000000000680100000000000000008488028161175a57fe5b048503028161176557fe5b0496506117a76040518060400160405280600e81526020017f616d6f756e7420746f2073776170000000000000000000000000000000000000815250886118be565b505050505050935093915050565b6118ba828260405160240180806020018315158152602001828103825284818151815260200191508051906020019080838360005b838110156118055780820151818401526020810190506117ea565b50505050905090810190601f1680156118325780820380516001836020036101000a031916815260200191505b5093505050506040516020818303038152906040527fc3b55635000000000000000000000000000000000000000000000000000000007bffffffffffffffffffffffffffffffffffffffffffffffffffffffff19166020820180517bffffffffffffffffffffffffffffffffffffffffffffffffffffffff83818316178352505050506115ae565b5050565b6119c182826040516024018080602001838152602001828103825284818151815260200191508051906020019080838360005b8381101561190c5780820151818401526020810190506118f1565b50505050905090810190601f1680156119395780820380516001836020036101000a031916815260200191505b5093505050506040516020818303038152906040527f9710a9d0000000000000000000000000000000000000000000000000000000007bffffffffffffffffffffffffffffffffffffffffffffffffffffffff19166020820180517bffffffffffffffffffffffffffffffffffffffffffffffffffffffff83818316178352505050506115ae565b5050565b60006119de826020015183600001518460600151611b23565b6000604051806101000160405280846020015173ffffffffffffffffffffffffffffffffffffffff168152602001846040015173ffffffffffffffffffffffffffffffffffffffff1681526020016101f462ffffff1681526020013073ffffffffffffffffffffffffffffffffffffffff168152602001601e420181526020018460600151815260200160008152602001600073ffffffffffffffffffffffffffffffffffffffff168152509050826000015173ffffffffffffffffffffffffffffffffffffffff1663414bf389826040518263ffffffff1660e01b8152600401611ac991906132e2565b602060405180830381600087803b158015611ae357600080fd5b505af1158015611af7573d6000803e3d6000fd5b505050506040513d601f19601f82011682018060405250810190611b1b9190612ed5565b915050919050565b6000808473ffffffffffffffffffffffffffffffffffffffff1663095ea7b360e01b8585604051602401808373ffffffffffffffffffffffffffffffffffffffff16815260200182815260200192505050604051602081830303815290604052907bffffffffffffffffffffffffffffffffffffffffffffffffffffffff19166020820180517bffffffffffffffffffffffffffffffffffffffffffffffffffffffff83818316178352505050506040518082805190602001908083835b60208310611c045780518252602082019150602081019050602083039250611be1565b6001836020036101000a0380198251168184511680821785525050505050509050019150506000604051808303816000865af19150503d8060008114611c66576040519150601f19603f3d011682016040523d82523d6000602084013e611c6b565b606091505b5091509150818015611cab5750600081511480611caa5750808060200190516020811015611c9857600080fd5b81019080805190602001909291905050505b5b611d1d576040517f08c379a00000000000000000000000000000000000000000000000000000000081526004018080602001828103825260028152602001807f534100000000000000000000000000000000000000000000000000000000000081525060200191505060405180910390fd5b5050505050565b6000816020015173ffffffffffffffffffffffffffffffffffffffff16826000015173ffffffffffffffffffffffffffffffffffffffff1610611d6657600080fd5b82826000015183602001518460400151604051602001808473ffffffffffffffffffffffffffffffffffffffff1681526020018373ffffffffffffffffffffffffffffffffffffffff1681526020018262ffffff1681526020019350505050604051602081830303815290604052805190602001207fe34f199b19b2b4f47f68442619d555527d244f78a3297ea89325f843f87b8b5460001b60405160200180807fff000000000000000000000000000000000000000000000000000000000000008152506001018473ffffffffffffffffffffffffffffffffffffffff1660601b815260140183815260200182815260200193505050506040516020818303038152906040528051906020012060001c905092915050565b6000808573ffffffffffffffffffffffffffffffffffffffff166323b872dd60e01b868686604051602401808473ffffffffffffffffffffffffffffffffffffffff1681526020018373ffffffffffffffffffffffffffffffffffffffff1681526020018281526020019350505050604051602081830303815290604052907bffffffffffffffffffffffffffffffffffffffffffffffffffffffff19166020820180517bffffffffffffffffffffffffffffffffffffffffffffffffffffffff83818316178352505050506040518082805190602001908083835b60208310611f7e5780518252602082019150602081019050602083039250611f5b565b6001836020036101000a0380198251168184511680821785525050505050509050019150506000604051808303816000865af19150503d8060008114611fe0576040519150601f19603f3d011682016040523d82523d6000602084013e611fe5565b606091505b50915091508180156120255750600081511480612024575080806020019051602081101561201257600080fd5b81019080805190602001909291905050505b5b612097576040517f08c379a00000000000000000000000000000000000000000000000000000000081526004018080602001828103825260038152602001807f535446000000000000000000000000000000000000000000000000000000000081525060200191505060405180910390fd5b505050505050565b60006120df6040518060400160405280600e81526020017f7570706572202f206c6f7765723a000000000000000000000000000000000000815250612179565b6120ef826000015160020b610c70565b6120ff826020015160020b610c70565b600061210e8360000151612277565b9050600061211f8460200151612277565b90506000670de0b6b3a7640000905060006121418660400151858460016126b2565b905060006121568760400151858560016127e8565b9050806801000000000000000083028161216c57fe5b0495505050505050919050565b612274816040516024018080602001828103825283818151815260200191508051906020019080838360005b838110156121c05780820151818401526020810190506121a5565b50505050905090810190601f1680156121ed5780820380516001836020036101000a031916815260200191505b50925050506040516020818303038152906040527f41304fac000000000000000000000000000000000000000000000000000000007bffffffffffffffffffffffffffffffffffffffffffffffffffffffff19166020820180517bffffffffffffffffffffffffffffffffffffffffffffffffffffffff83818316178352505050506115ae565b50565b60008060008360020b1261228e578260020b612296565b8260020b6000035b90507ffffffffffffffffffffffffffffffffffffffffffffffffffffffffffff2761860000360020b811115612334576040517f08c379a00000000000000000000000000000000000000000000000000000000081526004018080602001828103825260018152602001807f540000000000000000000000000000000000000000000000000000000000000081525060200191505060405180910390fd5b6000806001831614156123585770010000000000000000000000000000000061236a565b6ffffcb933bd6fad37aa2d162d1a5940015b70ffffffffffffffffffffffffffffffffff169050600060028316146123a45760806ffff97272373d413259a46990580e213a8202901c90505b600060048316146123c95760806ffff2e50f5f656932ef12357cf3c7fdcc8202901c90505b600060088316146123ee5760806fffe5caca7e10e4e61c3624eaa0941cd08202901c90505b600060108316146124135760806fffcb9843d60f6159c9db58835c9266448202901c90505b600060208316146124385760806fff973b41fa98c081472e6896dfb254c08202901c90505b6000604083161461245d5760806fff2ea16466c96a3843ec78b326b528618202901c90505b600060808316146124825760806ffe5dee046a99a2a811c461f1969c30538202901c90505b60006101008316146124a85760806ffcbe86c7900a88aedcffc83b479aa3a48202901c90505b60006102008316146124ce5760806ff987a7253ac413176f2b074cf7815e548202901c90505b60006104008316146124f45760806ff3392b0822b70005940c7a398e4b70f38202901c90505b600061080083161461251a5760806fe7159475a2c29b7443b29c7fa6e889d98202901c90505b60006110008316146125405760806fd097f3bdfd2022b8845ad8f792aa58258202901c90505b60006120008316146125665760806fa9f746462d870fdf8a65dc1f90e061e58202901c90505b600061400083161461258c5760806f70d869a156d2a1b890bb3df62baf32f78202901c90505b60006180008316146125b25760806f31be135f97d08fd981231505542fcfa68202901c90505b6000620100008316146125d95760806f09aa508b5b7a84e1c677de54f3e99bc98202901c90505b6000620200008316146125ff5760806e5d6af8dedb81196699c329225ee6048202901c90505b6000620400008316146126245760806d2216e584f5fa1ea926041bedfe988202901c90505b6000620800008316146126475760806b048a170391f7dc42444e8fa28202901c90505b60008460020b131561268057807fffffffffffffffffffffffffffffffffffffffffffffffffffffffffffffffff8161267c57fe5b0490505b6000640100000000828161269057fe5b061461269d5760016126a0565b60005b60ff16602082901c0192505050919050565b60008373ffffffffffffffffffffffffffffffffffffffff168573ffffffffffffffffffffffffffffffffffffffff1611156126f357838580955081965050505b6000606060ff16846fffffffffffffffffffffffffffffffff16901b9050600086860373ffffffffffffffffffffffffffffffffffffffff16905060008773ffffffffffffffffffffffffffffffffffffffff161161275157600080fd5b8361279b578673ffffffffffffffffffffffffffffffffffffffff1661278e83838973ffffffffffffffffffffffffffffffffffffffff166128c2565b8161279557fe5b046127dc565b6127db6127bf83838973ffffffffffffffffffffffffffffffffffffffff1661299c565b8873ffffffffffffffffffffffffffffffffffffffff166129fa565b5b92505050949350505050565b60008373ffffffffffffffffffffffffffffffffffffffff168573ffffffffffffffffffffffffffffffffffffffff16111561282957838580955081965050505b8161287557612870836fffffffffffffffffffffffffffffffff1686860373ffffffffffffffffffffffffffffffffffffffff166c010000000000000000000000006128c2565b6128b8565b6128b7836fffffffffffffffffffffffffffffffff1686860373ffffffffffffffffffffffffffffffffffffffff166c0100000000000000000000000061299c565b5b9050949350505050565b6000806000801985870985870292508281108382030391505060008114156128fd57600084116128f157600080fd5b83820492505050612995565b80841161290957600080fd5b600084868809905082811182039150808303925060008586600003169050808604955080840493506001818260000304019050808302841793506000600287600302189050808702600203810290508087026002038102905080870260020381029050808702600203810290508087026002038102905080870260020381029050808502955050505050505b9392505050565b60006129a98484846128c2565b9050600082806129b557fe5b84860911156129f3577fffffffffffffffffffffffffffffffffffffffffffffffffffffffffffffffff81106129ea57600080fd5b80806001019150505b9392505050565b6000808284061182840401905092915050565b600081359050612a1c816134a1565b92915050565b600081519050612a31816134b8565b92915050565b60008083601f840112612a4957600080fd5b8235905067ffffffffffffffff811115612a6257600080fd5b602083019150836001820283011115612a7a57600080fd5b9250929050565b600081359050612a90816134cf565b92915050565b600081519050612aa5816134cf565b92915050565b600060808284031215612abd57600080fd5b612ac7604061335f565b90506000612ad784828501612bbd565b6000830152506060612aeb84828501612a0d565b60208301525092915050565b60006101008284031215612b0a57600080fd5b612b1561010061335f565b90506000612b2584828501612c71565b6000830152506020612b3984828501612c71565b6020830152506040612b4d84828501612a0d565b6040830152506060612b6184828501612c5c565b6060830152506080612b7584828501612a0d565b60808301525060a0612b8984828501612a0d565b60a08301525060c0612b9d84828501612a81565b60c08301525060e0612bb184828501612a81565b60e08301525092915050565b600060608284031215612bcf57600080fd5b612bd9606061335f565b90506000612be984828501612a0d565b6000830152506020612bfd84828501612a0d565b6020830152506040612c1184828501612c5c565b60408301525092915050565b600081519050612c2c816134e6565b92915050565b600081519050612c4181613514565b92915050565b600081519050612c56816134fd565b92915050565b600081359050612c6b8161352b565b92915050565b600081359050612c8081613542565b92915050565b600081519050612c9581613542565b92915050565b600081519050612caa81613559565b92915050565b600080600080600060808688031215612cc857600080fd5b6000612cd688828901612a0d565b9550506020612ce788828901612a0d565b9450506040612cf888828901612c71565b935050606086013567ffffffffffffffff811115612d1557600080fd5b612d2188828901612a37565b92509250509295509295909350565b60008060408385031215612d4357600080fd5b6000612d5185828601612a0d565b9250506020612d6285828601612c71565b9150509250929050565b600080600060608486031215612d8157600080fd5b6000612d8f86828701612a0d565b9350506020612da086828701612c71565b9250506040612db186828701612a0d565b9150509250925092565b600060808284031215612dcd57600080fd5b6000612ddb84828501612aab565b91505092915050565b60006101008284031215612df757600080fd5b6000612e0584828501612af7565b91505092915050565b600080600080600080600060e0888a031215612e2957600080fd5b6000612e378a828b01612c32565b9750506020612e488a828b01612a96565b9650506040612e598a828b01612c47565b9550506060612e6a8a828b01612c47565b9450506080612e7b8a828b01612c47565b93505060a0612e8c8a828b01612c9b565b92505060c0612e9d8a828b01612a22565b91505092959891949750929550565b600060208284031215612ebe57600080fd5b6000612ecc84828501612c71565b91505092915050565b600060208284031215612ee757600080fd5b6000612ef584828501612c86565b91505092915050565b60008060408385031215612f1157600080fd5b6000612f1f85828601612c71565b9250506020612f3085828601612a0d565b9150509250929050565b60008060008060808587031215612f5057600080fd5b6000612f5e87828801612c86565b9450506020612f6f87828801612c1d565b9350506040612f8087828801612c86565b9250506060612f9187828801612c86565b91505092959194509250565b60008060008060608587031215612fb357600080fd5b6000612fc187828801612c71565b9450506020612fd287828801612c71565b935050604085013567ffffffffffffffff811115612fef57600080fd5b612ffb87828801612a37565b925092505092959194509250565b61301281613390565b82525050565b61302181613390565b82525050565b613030816133ae565b82525050565b61303f81613457565b82525050565b61304e8161347b565b82525050565b61305d816133da565b82525050565b6101008201600082015161307a6000850182613009565b50602082015161308d6020850182613009565b5060408201516130a06040850182613204565b5060608201516130b36060850182613009565b5060808201516130c66080850182613213565b5060a08201516130d960a0850182613213565b5060c08201516130ec60c0850182613213565b5060e08201516130ff60e08501826131f5565b50505050565b6101608201600082015161311c6000850182613009565b50602082015161312f6020850182613009565b5060408201516131426040850182613204565b5060608201516131556060850182613054565b5060808201516131686080850182613054565b5060a082015161317b60a0850182613213565b5060c082015161318e60c0850182613213565b5060e08201516131a160e0850182613213565b506101008201516131b6610100850182613213565b506101208201516131cb610120850182613009565b506101408201516131e0610140850182613213565b50505050565b6131ef816133e7565b82525050565b6131fe81613411565b82525050565b61320d81613431565b82525050565b61321c81613440565b82525050565b61322b81613440565b82525050565b60006020820190506132466000830184613018565b92915050565b60006080820190506132616000830187613018565b61326e60208301866131e6565b61327b6040830185613018565b6132886060830184613018565b95945050505050565b60006020820190506132a66000830184613027565b92915050565b60006020820190506132c16000830184613036565b92915050565b60006020820190506132dc6000830184613045565b92915050565b6000610100820190506132f86000830184613063565b92915050565b6000610160820190506133146000830184613105565b92915050565b600060808201905061332f6000830187613222565b61333c60208301866131e6565b6133496040830185613222565b6133566060830184613222565b95945050505050565b6000604051905081810181811067ffffffffffffffff821117156133865761338561349f565b5b8060405250919050565b600061339b82613411565b9050919050565b60008115159050919050565b60007fffffffff0000000000000000000000000000000000000000000000000000000082169050919050565b60008160020b9050919050565b60006fffffffffffffffffffffffffffffffff82169050919050565b600061ffff82169050919050565b600073ffffffffffffffffffffffffffffffffffffffff82169050919050565b600062ffffff82169050919050565b6000819050919050565b600060ff82169050919050565b600061346282613469565b9050919050565b600061347482613411565b9050919050565b60006134868261348d565b9050919050565b600061349882613411565b9050919050565bfe5b6134aa81613390565b81146134b557600080fd5b50565b6134c1816133a2565b81146134cc57600080fd5b50565b6134d8816133da565b81146134e357600080fd5b50565b6134ef816133e7565b81146134fa57600080fd5b50565b61350681613403565b811461351157600080fd5b50565b61351d81613411565b811461352857600080fd5b50565b61353481613431565b811461353f57600080fd5b50565b61354b81613440565b811461355657600080fd5b50565b6135628161344a565b811461356d57600080fd5b5056fea2646970667358221220125fe81519f5a251936c8bc407f3da8c8220335c8b7017ee264b49023ba7fb9a64736f6c63430007060033",
  "linkReferences": {},
  "deployedLinkReferences": {}
}