{
  "_format": "hh-sol-artifact-1",
  "contractName": "PositionManager",
  "sourceName": "contracts/PositionManager.sol",
  "abi": [
    {
      "inputs": [
        {
          "internalType": "contract INonfungiblePositionManager",
          "name": "_nonfungiblePositionManager",
          "type": "address"
        },
        {
          "internalType": "address",
          "name": "_factory",
          "type": "address"
        },
        {
          "internalType": "address",
          "name": "_WETH9",
          "type": "address"
        }
      ],
      "stateMutability": "nonpayable",
      "type": "constructor"
    },
    {
      "inputs": [],
      "name": "WETH9",
      "outputs": [
        {
          "internalType": "address",
          "name": "",
          "type": "address"
        }
      ],
      "stateMutability": "view",
      "type": "function"
    },
    {
      "inputs": [
        {
          "internalType": "uint256",
          "name": "",
          "type": "uint256"
        }
      ],
      "name": "deposits",
      "outputs": [
        {
          "internalType": "address",
          "name": "owner",
          "type": "address"
        },
        {
          "internalType": "uint128",
          "name": "liquidity",
          "type": "uint128"
        },
        {
          "internalType": "address",
          "name": "token0",
          "type": "address"
        },
        {
          "internalType": "address",
          "name": "token1",
          "type": "address"
        }
      ],
      "stateMutability": "view",
      "type": "function"
    },
    {
      "inputs": [],
      "name": "factory",
      "outputs": [
        {
          "internalType": "address",
          "name": "",
          "type": "address"
        }
      ],
      "stateMutability": "view",
      "type": "function"
    },
    {
      "inputs": [
        {
          "components": [
            {
              "internalType": "uint256",
              "name": "amount0ToMint",
              "type": "uint256"
            },
            {
              "internalType": "uint256",
              "name": "amount1ToMint",
              "type": "uint256"
            },
            {
              "internalType": "address",
              "name": "pool",
              "type": "address"
            }
          ],
          "internalType": "struct PositionManager.MintParams",
          "name": "mintParams",
          "type": "tuple"
        }
      ],
      "name": "mintNewPosition",
      "outputs": [
        {
          "internalType": "uint256",
          "name": "tokenId",
          "type": "uint256"
        },
        {
          "internalType": "uint128",
          "name": "liquidity",
          "type": "uint128"
        },
        {
          "internalType": "uint256",
          "name": "amount0",
          "type": "uint256"
        },
        {
          "internalType": "uint256",
          "name": "amount1",
          "type": "uint256"
        }
      ],
      "stateMutability": "nonpayable",
      "type": "function"
    },
    {
      "inputs": [],
      "name": "nonfungiblePositionManager",
      "outputs": [
        {
          "internalType": "contract INonfungiblePositionManager",
          "name": "",
          "type": "address"
        }
      ],
      "stateMutability": "view",
      "type": "function"
    },
    {
      "inputs": [
        {
          "internalType": "address",
          "name": "",
          "type": "address"
        },
        {
          "internalType": "address",
          "name": "",
          "type": "address"
        },
        {
          "internalType": "uint256",
          "name": "",
          "type": "uint256"
        },
        {
          "internalType": "bytes",
          "name": "",
          "type": "bytes"
        }
      ],
      "name": "onERC721Received",
      "outputs": [
        {
          "internalType": "bytes4",
          "name": "",
          "type": "bytes4"
        }
      ],
      "stateMutability": "pure",
      "type": "function"
    },
    {
      "inputs": [],
      "name": "refundETH",
      "outputs": [],
      "stateMutability": "payable",
      "type": "function"
    },
    {
      "inputs": [
        {
          "internalType": "address",
          "name": "token",
          "type": "address"
        },
        {
          "internalType": "uint256",
          "name": "amountMinimum",
          "type": "uint256"
        },
        {
          "internalType": "address",
          "name": "recipient",
          "type": "address"
        }
      ],
      "name": "sweepToken",
      "outputs": [],
      "stateMutability": "payable",
      "type": "function"
    },
    {
      "inputs": [
        {
          "internalType": "uint256",
          "name": "amount0Owed",
          "type": "uint256"
        },
        {
          "internalType": "uint256",
          "name": "amount1Owed",
          "type": "uint256"
        },
        {
          "internalType": "bytes",
          "name": "data",
          "type": "bytes"
        }
      ],
      "name": "uniswapV3MintCallback",
      "outputs": [],
      "stateMutability": "nonpayable",
      "type": "function"
    },
    {
      "inputs": [
        {
          "internalType": "uint256",
          "name": "amountMinimum",
          "type": "uint256"
        },
        {
          "internalType": "address",
          "name": "recipient",
          "type": "address"
        }
      ],
      "name": "unwrapWETH9",
      "outputs": [],
      "stateMutability": "payable",
      "type": "function"
    },
    {
      "stateMutability": "payable",
      "type": "receive"
    }
  ],
  "bytecode": "0x60e06040523480156200001157600080fd5b50604051620026a4380380620026a4833981810160405281019062000037919062000117565b81818173ffffffffffffffffffffffffffffffffffffffff1660808173ffffffffffffffffffffffffffffffffffffffff1660601b815250508073ffffffffffffffffffffffffffffffffffffffff1660a08173ffffffffffffffffffffffffffffffffffffffff1660601b8152505050508273ffffffffffffffffffffffffffffffffffffffff1660c08173ffffffffffffffffffffffffffffffffffffffff1660601b81525050505050620001e9565b600081519050620000fa81620001b5565b92915050565b6000815190506200011181620001cf565b92915050565b6000806000606084860312156200012d57600080fd5b60006200013d8682870162000100565b93505060206200015086828701620000e9565b92505060406200016386828701620000e9565b9150509250925092565b60006200017a8262000195565b9050919050565b60006200018e826200016d565b9050919050565b600073ffffffffffffffffffffffffffffffffffffffff82169050919050565b620001c0816200016d565b8114620001cc57600080fd5b50565b620001da8162000181565b8114620001e657600080fd5b50565b60805160601c60a05160601c60c05160601c61245462000250600039806105e852806108bd52806108ec52806109c5525080609c528061033a528061047d5280610518528061108c52806110ec528061116d525080610c755280610caf52506124546000f3fe6080604052600436106100955760003560e01c8063b44a272211610059578063b44a272214610230578063b4a648ff1461025b578063c45a01551461029b578063d3487997146102c6578063df2ab5bb146102ef5761015d565b806312210e8a14610162578063150b7a021461016c57806349404b7c146101a95780634aa4a4fc146101c5578063b02c43d0146101f05761015d565b3661015d577f000000000000000000000000000000000000000000000000000000000000000073ffffffffffffffffffffffffffffffffffffffff163373ffffffffffffffffffffffffffffffffffffffff161461015b576040517f08c379a00000000000000000000000000000000000000000000000000000000081526004018080602001828103825260098152602001807f4e6f74205745544839000000000000000000000000000000000000000000000081525060200191505060405180910390fd5b005b600080fd5b61016a61030b565b005b34801561017857600080fd5b50610193600480360381019061018e9190611c8d565b610321565b6040516101a0919061219a565b60405180910390f35b6101c360048036038101906101be9190611ec7565b610336565b005b3480156101d157600080fd5b506101da610516565b6040516101e7919061213a565b60405180910390f35b3480156101fc57600080fd5b5061021760048036038101906102129190611e9e565b61053a565b6040516102279493929190612155565b60405180910390f35b34801561023c57600080fd5b506102456105e6565b60405161025291906121b5565b60405180910390f35b34801561026757600080fd5b50610282600480360381019061027d9190611dae565b61060a565b60405161029294939291906121ec565b60405180910390f35b3480156102a757600080fd5b506102b0610c73565b6040516102bd919061213a565b60405180910390f35b3480156102d257600080fd5b506102ed60048036038101906102e89190611f66565b610c97565b005b61030960048036038101906103049190611d0d565b610d24565b005b600047111561031f5761031e3347610e5b565b5b565b600063150b7a0260e01b905095945050505050565b60007f000000000000000000000000000000000000000000000000000000000000000073ffffffffffffffffffffffffffffffffffffffff166370a08231306040518263ffffffff1660e01b8152600401808273ffffffffffffffffffffffffffffffffffffffff16815260200191505060206040518083038186803b1580156103bf57600080fd5b505afa1580156103d3573d6000803e3d6000fd5b505050506040513d60208110156103e957600080fd5b8101908080519060200190929190505050905082811015610472576040517f08c379a00000000000000000000000000000000000000000000000000000000081526004018080602001828103825260128152602001807f496e73756666696369656e74205745544839000000000000000000000000000081525060200191505060405180910390fd5b6000811115610511577f000000000000000000000000000000000000000000000000000000000000000073ffffffffffffffffffffffffffffffffffffffff16632e1a7d4d826040518263ffffffff1660e01b815260040180828152602001915050600060405180830381600087803b1580156104ee57600080fd5b505af1158015610502573d6000803e3d6000fd5b505050506105108282610e5b565b5b505050565b7f000000000000000000000000000000000000000000000000000000000000000081565b60006020528060005260406000206000915090508060000160009054906101000a900473ffffffffffffffffffffffffffffffffffffffff16908060010160009054906101000a90046fffffffffffffffffffffffffffffffff16908060020160009054906101000a900473ffffffffffffffffffffffffffffffffffffffff16908060030160009054906101000a900473ffffffffffffffffffffffffffffffffffffffff16905084565b7f000000000000000000000000000000000000000000000000000000000000000081565b60008060008060008560400151905060008173ffffffffffffffffffffffffffffffffffffffff16633850c7bd6040518163ffffffff1660e01b815260040160e06040518083038186803b15801561066157600080fd5b505afa158015610675573d6000803e3d6000fd5b505050506040513d601f19601f820116820180604052508101906106999190611dd7565b505050505091505060008273ffffffffffffffffffffffffffffffffffffffff1663ddca3f436040518163ffffffff1660e01b815260040160206040518083038186803b1580156106e957600080fd5b505afa1580156106fd573d6000803e3d6000fd5b505050506040513d601f19601f820116820180604052508101906107219190611e75565b905060008373ffffffffffffffffffffffffffffffffffffffff16630dfe16816040518163ffffffff1660e01b815260040160206040518083038186803b15801561076b57600080fd5b505afa15801561077f573d6000803e3d6000fd5b505050506040513d601f19601f820116820180604052508101906107a39190611c64565b905060008473ffffffffffffffffffffffffffffffffffffffff1663d21220a76040518163ffffffff1660e01b815260040160206040518083038186803b1580156107ed57600080fd5b505afa158015610801573d6000803e3d6000fd5b505050506040513d601f19601f820116820180604052508101906108259190611c64565b905060008573ffffffffffffffffffffffffffffffffffffffff1663d0c93a7c6040518163ffffffff1660e01b815260040160206040518083038186803b15801561086f57600080fd5b505afa158015610883573d6000803e3d6000fd5b505050506040513d601f19601f820116820180604052508101906108a79190611d5c565b905060006108b58683610fd7565b90506108e6847f00000000000000000000000000000000000000000000000000000000000000008e6000015161101e565b610915837f00000000000000000000000000000000000000000000000000000000000000008e6020015161101e565b60006040518061016001604052808673ffffffffffffffffffffffffffffffffffffffff1681526020018573ffffffffffffffffffffffffffffffffffffffff1681526020018762ffffff16815260200184840360020b815260200184840160020b81526020018e6000015181526020018e60200151815260200160008152602001600081526020013373ffffffffffffffffffffffffffffffffffffffff168152602001601e420181525090507f000000000000000000000000000000000000000000000000000000000000000073ffffffffffffffffffffffffffffffffffffffff166388316456826040518263ffffffff1660e01b8152600401610a1c91906121d0565b608060405180830381600087803b158015610a3657600080fd5b505af1158015610a4a573d6000803e3d6000fd5b505050506040513d601f19601f82011682018060405250810190610a6e9190611f03565b809c50819d50829e50839f505050505060405180608001604052803373ffffffffffffffffffffffffffffffffffffffff1681526020018c6fffffffffffffffffffffffffffffffff1681526020018673ffffffffffffffffffffffffffffffffffffffff1681526020018573ffffffffffffffffffffffffffffffffffffffff168152506000808e815260200190815260200160002060008201518160000160006101000a81548173ffffffffffffffffffffffffffffffffffffffff021916908373ffffffffffffffffffffffffffffffffffffffff16021790555060208201518160010160006101000a8154816fffffffffffffffffffffffffffffffff02191690836fffffffffffffffffffffffffffffffff16021790555060408201518160020160006101000a81548173ffffffffffffffffffffffffffffffffffffffff021916908373ffffffffffffffffffffffffffffffffffffffff16021790555060608201518160030160006101000a81548173ffffffffffffffffffffffffffffffffffffffff021916908373ffffffffffffffffffffffffffffffffffffffff1602179055509050508c600001518a1015610c405760008a8e60000151039050610c3e86338361102e565b505b8c60200151891015610c64576000898e60200151039050610c6285338361102e565b505b50505050505050509193509193565b7f000000000000000000000000000000000000000000000000000000000000000081565b60008282810190610ca89190611d85565b9050610cd87f0000000000000000000000000000000000000000000000000000000000000000826000015161103e565b506000851115610cfb57610cfa8160000151600001518260200151338861108a565b5b6000841115610d1d57610d1c8160000151602001518260200151338761108a565b5b5050505050565b60008373ffffffffffffffffffffffffffffffffffffffff166370a08231306040518263ffffffff1660e01b8152600401808273ffffffffffffffffffffffffffffffffffffffff16815260200191505060206040518083038186803b158015610d8d57600080fd5b505afa158015610da1573d6000803e3d6000fd5b505050506040513d6020811015610db757600080fd5b8101908080519060200190929190505050905082811015610e40576040517f08c379a00000000000000000000000000000000000000000000000000000000081526004018080602001828103825260128152602001807f496e73756666696369656e7420746f6b656e000000000000000000000000000081525060200191505060405180910390fd5b6000811115610e5557610e54848383611295565b5b50505050565b60008273ffffffffffffffffffffffffffffffffffffffff1682600067ffffffffffffffff81118015610e8d57600080fd5b506040519080825280601f01601f191660200182016040528015610ec05781602001600182028036833780820191505090505b506040518082805190602001908083835b60208310610ef45780518252602082019150602081019050602083039250610ed1565b6001836020036101000a03801982511681845116808217855250505050505090500191505060006040518083038185875af1925050503d8060008114610f56576040519150601f19603f3d011682016040523d82523d6000602084013e610f5b565b606091505b5050905080610fd2576040517f08c379a00000000000000000000000000000000000000000000000000000000081526004018080602001828103825260038152602001807f535445000000000000000000000000000000000000000000000000000000000081525060200191505060405180910390fd5b505050565b6000808260020b8460020b81610fe957fe5b05905082810290506000838201905081850360020b85820360020b121561101257809250611016565b8192505b505092915050565b611029838383611496565b505050565b611039838383611295565b505050565b600061104a8383611697565b90508073ffffffffffffffffffffffffffffffffffffffff163373ffffffffffffffffffffffffffffffffffffffff161461108457600080fd5b92915050565b7f000000000000000000000000000000000000000000000000000000000000000073ffffffffffffffffffffffffffffffffffffffff168473ffffffffffffffffffffffffffffffffffffffff161480156110e55750804710155b1561123d577f000000000000000000000000000000000000000000000000000000000000000073ffffffffffffffffffffffffffffffffffffffff1663d0e30db0826040518263ffffffff1660e01b81526004016000604051808303818588803b15801561115257600080fd5b505af1158015611166573d6000803e3d6000fd5b50505050507f000000000000000000000000000000000000000000000000000000000000000073ffffffffffffffffffffffffffffffffffffffff1663a9059cbb83836040518363ffffffff1660e01b8152600401808373ffffffffffffffffffffffffffffffffffffffff16815260200182815260200192505050602060405180830381600087803b1580156111fc57600080fd5b505af1158015611210573d6000803e3d6000fd5b505050506040513d602081101561122657600080fd5b81019080805190602001909291905050505061128f565b3073ffffffffffffffffffffffffffffffffffffffff168373ffffffffffffffffffffffffffffffffffffffff1614156112815761127c848383611295565b61128e565b61128d848484846117f2565b5b5b50505050565b6000808473ffffffffffffffffffffffffffffffffffffffff1663a9059cbb60e01b8585604051602401808373ffffffffffffffffffffffffffffffffffffffff16815260200182815260200192505050604051602081830303815290604052907bffffffffffffffffffffffffffffffffffffffffffffffffffffffff19166020820180517bffffffffffffffffffffffffffffffffffffffffffffffffffffffff83818316178352505050506040518082805190602001908083835b602083106113765780518252602082019150602081019050602083039250611353565b6001836020036101000a0380198251168184511680821785525050505050509050019150506000604051808303816000865af19150503d80600081146113d8576040519150601f19603f3d011682016040523d82523d6000602084013e6113dd565b606091505b509150915081801561141d575060008151148061141c575080806020019051602081101561140a57600080fd5b81019080805190602001909291905050505b5b61148f576040517f08c379a00000000000000000000000000000000000000000000000000000000081526004018080602001828103825260028152602001807f535400000000000000000000000000000000000000000000000000000000000081525060200191505060405180910390fd5b5050505050565b6000808473ffffffffffffffffffffffffffffffffffffffff1663095ea7b360e01b8585604051602401808373ffffffffffffffffffffffffffffffffffffffff16815260200182815260200192505050604051602081830303815290604052907bffffffffffffffffffffffffffffffffffffffffffffffffffffffff19166020820180517bffffffffffffffffffffffffffffffffffffffffffffffffffffffff83818316178352505050506040518082805190602001908083835b602083106115775780518252602082019150602081019050602083039250611554565b6001836020036101000a0380198251168184511680821785525050505050509050019150506000604051808303816000865af19150503d80600081146115d9576040519150601f19603f3d011682016040523d82523d6000602084013e6115de565b606091505b509150915081801561161e575060008151148061161d575080806020019051602081101561160b57600080fd5b81019080805190602001909291905050505b5b611690576040517f08c379a00000000000000000000000000000000000000000000000000000000081526004018080602001828103825260028152602001807f534100000000000000000000000000000000000000000000000000000000000081525060200191505060405180910390fd5b5050505050565b6000816020015173ffffffffffffffffffffffffffffffffffffffff16826000015173ffffffffffffffffffffffffffffffffffffffff16106116d957600080fd5b82826000015183602001518460400151604051602001808473ffffffffffffffffffffffffffffffffffffffff1681526020018373ffffffffffffffffffffffffffffffffffffffff1681526020018262ffffff1681526020019350505050604051602081830303815290604052805190602001207fe34f199b19b2b4f47f68442619d555527d244f78a3297ea89325f843f87b8b5460001b60405160200180807fff000000000000000000000000000000000000000000000000000000000000008152506001018473ffffffffffffffffffffffffffffffffffffffff1660601b815260140183815260200182815260200193505050506040516020818303038152906040528051906020012060001c905092915050565b6000808573ffffffffffffffffffffffffffffffffffffffff166323b872dd60e01b868686604051602401808473ffffffffffffffffffffffffffffffffffffffff1681526020018373ffffffffffffffffffffffffffffffffffffffff1681526020018281526020019350505050604051602081830303815290604052907bffffffffffffffffffffffffffffffffffffffffffffffffffffffff19166020820180517bffffffffffffffffffffffffffffffffffffffffffffffffffffffff83818316178352505050506040518082805190602001908083835b602083106118f157805182526020820191506020810190506020830392506118ce565b6001836020036101000a0380198251168184511680821785525050505050509050019150506000604051808303816000865af19150503d8060008114611953576040519150601f19603f3d011682016040523d82523d6000602084013e611958565b606091505b50915091508180156119985750600081511480611997575080806020019051602081101561198557600080fd5b81019080805190602001909291905050505b5b611a0a576040517f08c379a00000000000000000000000000000000000000000000000000000000081526004018080602001828103825260038152602001807f535446000000000000000000000000000000000000000000000000000000000081525060200191505060405180910390fd5b505050505050565b600081359050611a218161234f565b92915050565b600081519050611a368161234f565b92915050565b600081519050611a4b81612366565b92915050565b60008083601f840112611a6357600080fd5b8235905067ffffffffffffffff811115611a7c57600080fd5b602083019150836001820283011115611a9457600080fd5b9250929050565b600081519050611aaa8161237d565b92915050565b600060808284031215611ac257600080fd5b611acc6040612231565b90506000611adc84828501611b5c565b6000830152506060611af084828501611a12565b60208301525092915050565b600060608284031215611b0e57600080fd5b611b186060612231565b90506000611b2884828501611c25565b6000830152506020611b3c84828501611c25565b6020830152506040611b5084828501611a12565b60408301525092915050565b600060608284031215611b6e57600080fd5b611b786060612231565b90506000611b8884828501611a12565b6000830152506020611b9c84828501611a12565b6020830152506040611bb084828501611bfb565b60408301525092915050565b600081519050611bcb81612394565b92915050565b600081519050611be0816123c2565b92915050565b600081519050611bf5816123ab565b92915050565b600081359050611c0a816123d9565b92915050565b600081519050611c1f816123d9565b92915050565b600081359050611c34816123f0565b92915050565b600081519050611c49816123f0565b92915050565b600081519050611c5e81612407565b92915050565b600060208284031215611c7657600080fd5b6000611c8484828501611a27565b91505092915050565b600080600080600060808688031215611ca557600080fd5b6000611cb388828901611a12565b9550506020611cc488828901611a12565b9450506040611cd588828901611c25565b935050606086013567ffffffffffffffff811115611cf257600080fd5b611cfe88828901611a51565b92509250509295509295909350565b600080600060608486031215611d2257600080fd5b6000611d3086828701611a12565b9350506020611d4186828701611c25565b9250506040611d5286828701611a12565b9150509250925092565b600060208284031215611d6e57600080fd5b6000611d7c84828501611a9b565b91505092915050565b600060808284031215611d9757600080fd5b6000611da584828501611ab0565b91505092915050565b600060608284031215611dc057600080fd5b6000611dce84828501611afc565b91505092915050565b600080600080600080600060e0888a031215611df257600080fd5b6000611e008a828b01611bd1565b9750506020611e118a828b01611a9b565b9650506040611e228a828b01611be6565b9550506060611e338a828b01611be6565b9450506080611e448a828b01611be6565b93505060a0611e558a828b01611c4f565b92505060c0611e668a828b01611a3c565b91505092959891949750929550565b600060208284031215611e8757600080fd5b6000611e9584828501611c10565b91505092915050565b600060208284031215611eb057600080fd5b6000611ebe84828501611c25565b91505092915050565b60008060408385031215611eda57600080fd5b6000611ee885828601611c25565b9250506020611ef985828601611a12565b9150509250929050565b60008060008060808587031215611f1957600080fd5b6000611f2787828801611c3a565b9450506020611f3887828801611bbc565b9350506040611f4987828801611c3a565b9250506060611f5a87828801611c3a565b91505092959194509250565b60008060008060608587031215611f7c57600080fd5b6000611f8a87828801611c25565b9450506020611f9b87828801611c25565b935050604085013567ffffffffffffffff811115611fb857600080fd5b611fc487828801611a51565b925092505092959194509250565b611fdb81612262565b82525050565b611fea81612262565b82525050565b611ff981612280565b82525050565b61200881612329565b82525050565b612017816122ac565b82525050565b610160820160008201516120346000850182611fd2565b5060208201516120476020850182611fd2565b50604082015161205a604085018261210d565b50606082015161206d606085018261200e565b506080820151612080608085018261200e565b5060a082015161209360a085018261211c565b5060c08201516120a660c085018261211c565b5060e08201516120b960e085018261211c565b506101008201516120ce61010085018261211c565b506101208201516120e3610120850182611fd2565b506101408201516120f861014085018261211c565b50505050565b612107816122b9565b82525050565b61211681612303565b82525050565b61212581612312565b82525050565b61213481612312565b82525050565b600060208201905061214f6000830184611fe1565b92915050565b600060808201905061216a6000830187611fe1565b61217760208301866120fe565b6121846040830185611fe1565b6121916060830184611fe1565b95945050505050565b60006020820190506121af6000830184611ff0565b92915050565b60006020820190506121ca6000830184611fff565b92915050565b6000610160820190506121e6600083018461201d565b92915050565b6000608082019050612201600083018761212b565b61220e60208301866120fe565b61221b604083018561212b565b612228606083018461212b565b95945050505050565b6000604051905081810181811067ffffffffffffffff821117156122585761225761234d565b5b8060405250919050565b600061226d826122e3565b9050919050565b60008115159050919050565b60007fffffffff0000000000000000000000000000000000000000000000000000000082169050919050565b60008160020b9050919050565b60006fffffffffffffffffffffffffffffffff82169050919050565b600061ffff82169050919050565b600073ffffffffffffffffffffffffffffffffffffffff82169050919050565b600062ffffff82169050919050565b6000819050919050565b600060ff82169050919050565b60006123348261233b565b9050919050565b6000612346826122e3565b9050919050565bfe5b61235881612262565b811461236357600080fd5b50565b61236f81612274565b811461237a57600080fd5b50565b612386816122ac565b811461239157600080fd5b50565b61239d816122b9565b81146123a857600080fd5b50565b6123b4816122d5565b81146123bf57600080fd5b50565b6123cb816122e3565b81146123d657600080fd5b50565b6123e281612303565b81146123ed57600080fd5b50565b6123f981612312565b811461240457600080fd5b50565b6124108161231c565b811461241b57600080fd5b5056fea26469706673582212206d53fdd529c03df0bdff22fe854027295f51afdfe4cb3f6b070de8a61c278d0f64736f6c63430007060033",
  "linkReferences": {},
  "deployedLinkReferences": {}
}