{
  "_format": "hh-sol-artifact-1",
  "contractName": "PositionManager",
  "sourceName": "contracts/PositionManager.sol",
  "abi": [
    {
      "inputs": [
        {
          "internalType": "contract INonfungiblePositionManager",
          "name": "_nonfungiblePositionManager",
          "type": "address"
        },
        {
          "internalType": "contract ISwapRouter",
          "name": "_swaprouter",
          "type": "address"
        },
        {
          "internalType": "address",
          "name": "_factory",
          "type": "address"
        },
        {
          "internalType": "address",
          "name": "_WETH9",
          "type": "address"
        }
      ],
      "stateMutability": "nonpayable",
      "type": "constructor"
    },
    {
      "inputs": [],
      "name": "WETH9",
      "outputs": [
        {
          "internalType": "address",
          "name": "",
          "type": "address"
        }
      ],
      "stateMutability": "view",
      "type": "function"
    },
    {
      "inputs": [
        {
          "internalType": "uint256",
          "name": "",
          "type": "uint256"
        }
      ],
      "name": "deposits",
      "outputs": [
        {
          "internalType": "address",
          "name": "owner",
          "type": "address"
        },
        {
          "internalType": "uint128",
          "name": "liquidity",
          "type": "uint128"
        },
        {
          "internalType": "address",
          "name": "token0",
          "type": "address"
        },
        {
          "internalType": "address",
          "name": "token1",
          "type": "address"
        }
      ],
      "stateMutability": "view",
      "type": "function"
    },
    {
      "inputs": [],
      "name": "factory",
      "outputs": [
        {
          "internalType": "address",
          "name": "",
          "type": "address"
        }
      ],
      "stateMutability": "view",
      "type": "function"
    },
    {
      "inputs": [
        {
          "components": [
            {
              "internalType": "uint256",
              "name": "amount0ToMint",
              "type": "uint256"
            },
            {
              "internalType": "uint256",
              "name": "amount1ToMint",
              "type": "uint256"
            },
            {
              "internalType": "address",
              "name": "pool",
              "type": "address"
            },
            {
              "internalType": "uint24",
              "name": "poolFee",
              "type": "uint24"
            },
            {
              "internalType": "address",
              "name": "token0",
              "type": "address"
            },
            {
              "internalType": "address",
              "name": "token1",
              "type": "address"
            },
            {
              "internalType": "int24",
              "name": "tickSpacing",
              "type": "int24"
            },
            {
              "internalType": "int24",
              "name": "spacingMultiplier",
              "type": "int24"
            }
          ],
          "internalType": "struct PositionManager.MintParams",
          "name": "mintParams",
          "type": "tuple"
        }
      ],
      "name": "mintNewPosition",
      "outputs": [
        {
          "internalType": "uint256",
          "name": "tokenId",
          "type": "uint256"
        },
        {
          "internalType": "uint128",
          "name": "liquidity",
          "type": "uint128"
        },
        {
          "internalType": "uint256",
          "name": "amount0",
          "type": "uint256"
        },
        {
          "internalType": "uint256",
          "name": "amount1",
          "type": "uint256"
        }
      ],
      "stateMutability": "nonpayable",
      "type": "function"
    },
    {
      "inputs": [],
      "name": "nonfungiblePositionManager",
      "outputs": [
        {
          "internalType": "contract INonfungiblePositionManager",
          "name": "",
          "type": "address"
        }
      ],
      "stateMutability": "view",
      "type": "function"
    },
    {
      "inputs": [
        {
          "internalType": "address",
          "name": "",
          "type": "address"
        },
        {
          "internalType": "address",
          "name": "",
          "type": "address"
        },
        {
          "internalType": "uint256",
          "name": "",
          "type": "uint256"
        },
        {
          "internalType": "bytes",
          "name": "",
          "type": "bytes"
        }
      ],
      "name": "onERC721Received",
      "outputs": [
        {
          "internalType": "bytes4",
          "name": "",
          "type": "bytes4"
        }
      ],
      "stateMutability": "pure",
      "type": "function"
    },
    {
      "inputs": [],
      "name": "refundETH",
      "outputs": [],
      "stateMutability": "payable",
      "type": "function"
    },
    {
      "inputs": [],
      "name": "swapRouter",
      "outputs": [
        {
          "internalType": "contract ISwapRouter",
          "name": "",
          "type": "address"
        }
      ],
      "stateMutability": "view",
      "type": "function"
    },
    {
      "inputs": [
        {
          "internalType": "address",
          "name": "token",
          "type": "address"
        },
        {
          "internalType": "uint256",
          "name": "amountMinimum",
          "type": "uint256"
        },
        {
          "internalType": "address",
          "name": "recipient",
          "type": "address"
        }
      ],
      "name": "sweepToken",
      "outputs": [],
      "stateMutability": "payable",
      "type": "function"
    },
    {
      "inputs": [
        {
          "internalType": "address",
          "name": "token",
          "type": "address"
        },
        {
          "internalType": "uint256",
          "name": "amount",
          "type": "uint256"
        }
      ],
      "name": "tokenReturn",
      "outputs": [],
      "stateMutability": "nonpayable",
      "type": "function"
    },
    {
      "inputs": [
        {
          "internalType": "uint256",
          "name": "amount0Owed",
          "type": "uint256"
        },
        {
          "internalType": "uint256",
          "name": "amount1Owed",
          "type": "uint256"
        },
        {
          "internalType": "bytes",
          "name": "data",
          "type": "bytes"
        }
      ],
      "name": "uniswapV3MintCallback",
      "outputs": [],
      "stateMutability": "nonpayable",
      "type": "function"
    },
    {
      "inputs": [
        {
          "internalType": "uint256",
          "name": "amountMinimum",
          "type": "uint256"
        },
        {
          "internalType": "address",
          "name": "recipient",
          "type": "address"
        }
      ],
      "name": "unwrapWETH9",
      "outputs": [],
      "stateMutability": "payable",
      "type": "function"
    },
    {
      "stateMutability": "payable",
      "type": "receive"
    }
  ],
  "bytecode": "0x6101006040523480156200001257600080fd5b50604051620036f5380380620036f5833981810160405281019062000038919062000167565b81818173ffffffffffffffffffffffffffffffffffffffff1660808173ffffffffffffffffffffffffffffffffffffffff1660601b815250508073ffffffffffffffffffffffffffffffffffffffff1660a08173ffffffffffffffffffffffffffffffffffffffff1660601b8152505050508373ffffffffffffffffffffffffffffffffffffffff1660c08173ffffffffffffffffffffffffffffffffffffffff1660601b815250508273ffffffffffffffffffffffffffffffffffffffff1660e08173ffffffffffffffffffffffffffffffffffffffff1660601b81525050505050506200027d565b60008151905062000133816200022f565b92915050565b6000815190506200014a8162000249565b92915050565b600081519050620001618162000263565b92915050565b600080600080608085870312156200017e57600080fd5b60006200018e8782880162000139565b9450506020620001a18782880162000150565b9350506040620001b48782880162000122565b9250506060620001c78782880162000122565b91505092959194509250565b6000620001e0826200020f565b9050919050565b6000620001f482620001d3565b9050919050565b60006200020882620001d3565b9050919050565b600073ffffffffffffffffffffffffffffffffffffffff82169050919050565b6200023a81620001d3565b81146200024657600080fd5b50565b6200025481620001e7565b81146200026057600080fd5b50565b6200026e81620001fb565b81146200027a57600080fd5b50565b60805160601c60a05160601c60c05160601c60e05160601c613400620002f5600039806109e25280610c8e5250806104295280610458528061059d52806109be52508060b15280610710528061085352806108ee528061116752806111c75280611248525080610a065280610a4052506134006000f3fe6080604052600436106100aa5760003560e01c8063b02c43d011610064578063b02c43d01461026e578063b44a2722146102ae578063c31c9c07146102d9578063c45a015514610304578063d34879971461032f578063df2ab5bb1461035857610172565b8062294e401461017757806312210e8a146101b7578063150b7a02146101c15780633becd62a146101fe57806349404b7c146102275780634aa4a4fc1461024357610172565b36610172577f000000000000000000000000000000000000000000000000000000000000000073ffffffffffffffffffffffffffffffffffffffff163373ffffffffffffffffffffffffffffffffffffffff1614610170576040517f08c379a00000000000000000000000000000000000000000000000000000000081526004018080602001828103825260098152602001807f4e6f74205745544839000000000000000000000000000000000000000000000081525060200191505060405180910390fd5b005b600080fd5b34801561018357600080fd5b5061019e60048036038101906101999190612c3e565b610374565b6040516101ae9493929190613174565b60405180910390f35b6101bf6106d2565b005b3480156101cd57600080fd5b506101e860048036038101906101e39190612b0a565b6106e8565b6040516101f591906130eb565b60405180910390f35b34801561020a57600080fd5b5061022560048036038101906102209190612b8a565b6106fd565b005b610241600480360381019061023c9190612d58565b61070c565b005b34801561024f57600080fd5b506102586108ec565b604051610265919061308b565b60405180910390f35b34801561027a57600080fd5b5061029560048036038101906102909190612d06565b610910565b6040516102a594939291906130a6565b60405180910390f35b3480156102ba57600080fd5b506102c36109bc565b6040516102d09190613106565b60405180910390f35b3480156102e557600080fd5b506102ee6109e0565b6040516102fb9190613121565b60405180910390f35b34801561031057600080fd5b50610319610a04565b604051610326919061308b565b60405180910390f35b34801561033b57600080fd5b5061035660048036038101906103519190612df7565b610a28565b005b610372600480360381019061036d9190612bc6565b610ab5565b005b6000806000806000856040015190506000808273ffffffffffffffffffffffffffffffffffffffff16633850c7bd6040518163ffffffff1660e01b815260040160e06040518083038186803b1580156103cc57600080fd5b505afa1580156103e0573d6000803e3d6000fd5b505050506040513d601f19601f820116820180604052508101906104049190612c68565b50505050509150915060008061041b8a8486610bec565b9150915061044e8a608001517f000000000000000000000000000000000000000000000000000000000000000084610e3a565b61047d8a60a001517f000000000000000000000000000000000000000000000000000000000000000083610e3a565b61049c8a60c00151610493858d60c00151610e4a565b0360020b610e91565b6104bb8a60c001516104b2858d60c00151610e4a565b0160020b610e91565b60006040518061016001604052808c6080015173ffffffffffffffffffffffffffffffffffffffff1681526020018c60a0015173ffffffffffffffffffffffffffffffffffffffff1681526020018c6060015162ffffff1681526020018c60e001518d60c0015102610531878f60c00151610e4a565b0360020b81526020018c60e001518d60c0015102610553878f60c00151610e4a565b0160020b815260200184815260200183815260200160008152602001600081526020013373ffffffffffffffffffffffffffffffffffffffff168152602001601e420181525090507f000000000000000000000000000000000000000000000000000000000000000073ffffffffffffffffffffffffffffffffffffffff166388316456826040518263ffffffff1660e01b81526004016105f49190613158565b608060405180830381600087803b15801561060e57600080fd5b505af1158015610622573d6000803e3d6000fd5b505050506040513d601f19601f820116820180604052508101906106469190612d94565b809a50819b50829c50839d505050505060006040518060c001604052808a81526020018981526020018581526020018481526020018d6080015173ffffffffffffffffffffffffffffffffffffffff1681526020018d60a0015173ffffffffffffffffffffffffffffffffffffffff1681525090506106c481610f2a565b505050505050509193509193565b60004711156106e6576106e53347610f8d565b5b565b600063150b7a0260e01b905095945050505050565b610708823383611109565b5050565b60007f000000000000000000000000000000000000000000000000000000000000000073ffffffffffffffffffffffffffffffffffffffff166370a08231306040518263ffffffff1660e01b8152600401808273ffffffffffffffffffffffffffffffffffffffff16815260200191505060206040518083038186803b15801561079557600080fd5b505afa1580156107a9573d6000803e3d6000fd5b505050506040513d60208110156107bf57600080fd5b8101908080519060200190929190505050905082811015610848576040517f08c379a00000000000000000000000000000000000000000000000000000000081526004018080602001828103825260128152602001807f496e73756666696369656e74205745544839000000000000000000000000000081525060200191505060405180910390fd5b60008111156108e7577f000000000000000000000000000000000000000000000000000000000000000073ffffffffffffffffffffffffffffffffffffffff16632e1a7d4d826040518263ffffffff1660e01b815260040180828152602001915050600060405180830381600087803b1580156108c457600080fd5b505af11580156108d8573d6000803e3d6000fd5b505050506108e68282610f8d565b5b505050565b7f000000000000000000000000000000000000000000000000000000000000000081565b60006020528060005260406000206000915090508060000160009054906101000a900473ffffffffffffffffffffffffffffffffffffffff16908060010160009054906101000a90046fffffffffffffffffffffffffffffffff16908060020160009054906101000a900473ffffffffffffffffffffffffffffffffffffffff16908060030160009054906101000a900473ffffffffffffffffffffffffffffffffffffffff16905084565b7f000000000000000000000000000000000000000000000000000000000000000081565b7f000000000000000000000000000000000000000000000000000000000000000081565b7f000000000000000000000000000000000000000000000000000000000000000081565b60008282810190610a399190612c15565b9050610a697f00000000000000000000000000000000000000000000000000000000000000008260000151611119565b506000851115610a8c57610a8b81600001516000015182602001513388611165565b5b6000841115610aae57610aad81600001516020015182602001513387611165565b5b5050505050565b60008373ffffffffffffffffffffffffffffffffffffffff166370a08231306040518263ffffffff1660e01b8152600401808273ffffffffffffffffffffffffffffffffffffffff16815260200191505060206040518083038186803b158015610b1e57600080fd5b505afa158015610b32573d6000803e3d6000fd5b505050506040513d6020811015610b4857600080fd5b8101908080519060200190929190505050905082811015610bd1576040517f08c379a00000000000000000000000000000000000000000000000000000000081526004018080602001828103825260128152602001807f496e73756666696369656e7420746f6b656e000000000000000000000000000081525060200191505060405180910390fd5b6000811115610be657610be5848383611370565b5b50505050565b600080600080610bfd878787611571565b91509150610c406040518060400160405280600c81526020017f7a65726f20666f72206f6e65000000000000000000000000000000000000000081525083611743565b610c7f6040518060400160405280600c81526020017f616d6f756e74546f5377617000000000000000000000000000000000000000008152508261184c565b600060405180608001604052807f000000000000000000000000000000000000000000000000000000000000000073ffffffffffffffffffffffffffffffffffffffff16815260200184610cd7578960a00151610cdd565b89608001515b73ffffffffffffffffffffffffffffffffffffffff16815260200184610d07578960800151610d0d565b8960a001515b73ffffffffffffffffffffffffffffffffffffffff1681526020018381525090506000610d3982611953565b9050610d7a6040518060400160405280600a81526020017f616d6f756e74204f7574000000000000000000000000000000000000000000008152508261184c565b83610d8b5780896000015101610d93565b828960000151035b955083610da65782896020015103610dae565b808960200151015b9450610def6040518060400160405280600a81526020017f616d6f756e74304f7574000000000000000000000000000000000000000000008152508761184c565b610e2e6040518060400160405280600a81526020017f616d6f756e74314f7574000000000000000000000000000000000000000000008152508661184c565b50505050935093915050565b610e45838383611ab1565b505050565b6000808260020b8460020b81610e5c57fe5b05905082810290506000838203905080850360020b85830360020b1215610e8557819250610e89565b8092505b505092915050565b610f2781604051602401808281526020019150506040516020818303038152906040527f4e0c1d1d000000000000000000000000000000000000000000000000000000007bffffffffffffffffffffffffffffffffffffffffffffffffffffffff19166020820180517bffffffffffffffffffffffffffffffffffffffffffffffffffffffff8381831617835250505050611cb2565b50565b806040015181600001511015610f5a57600081600001518260400151039050610f5882608001513383611109565b505b806060015181602001511015610f8a57600081602001518260600151039050610f888260a001513383611109565b505b50565b60008273ffffffffffffffffffffffffffffffffffffffff1682600067ffffffffffffffff81118015610fbf57600080fd5b506040519080825280601f01601f191660200182016040528015610ff25781602001600182028036833780820191505090505b506040518082805190602001908083835b602083106110265780518252602082019150602081019050602083039250611003565b6001836020036101000a03801982511681845116808217855250505050505090500191505060006040518083038185875af1925050503d8060008114611088576040519150601f19603f3d011682016040523d82523d6000602084013e61108d565b606091505b5050905080611104576040517f08c379a00000000000000000000000000000000000000000000000000000000081526004018080602001828103825260038152602001807f535445000000000000000000000000000000000000000000000000000000000081525060200191505060405180910390fd5b505050565b611114838383611370565b505050565b60006111258383611cdb565b90508073ffffffffffffffffffffffffffffffffffffffff163373ffffffffffffffffffffffffffffffffffffffff161461115f57600080fd5b92915050565b7f000000000000000000000000000000000000000000000000000000000000000073ffffffffffffffffffffffffffffffffffffffff168473ffffffffffffffffffffffffffffffffffffffff161480156111c05750804710155b15611318577f000000000000000000000000000000000000000000000000000000000000000073ffffffffffffffffffffffffffffffffffffffff1663d0e30db0826040518263ffffffff1660e01b81526004016000604051808303818588803b15801561122d57600080fd5b505af1158015611241573d6000803e3d6000fd5b50505050507f000000000000000000000000000000000000000000000000000000000000000073ffffffffffffffffffffffffffffffffffffffff1663a9059cbb83836040518363ffffffff1660e01b8152600401808373ffffffffffffffffffffffffffffffffffffffff16815260200182815260200192505050602060405180830381600087803b1580156112d757600080fd5b505af11580156112eb573d6000803e3d6000fd5b505050506040513d602081101561130157600080fd5b81019080805190602001909291905050505061136a565b3073ffffffffffffffffffffffffffffffffffffffff168373ffffffffffffffffffffffffffffffffffffffff16141561135c57611357848383611370565b611369565b61136884848484611e36565b5b5b50505050565b6000808473ffffffffffffffffffffffffffffffffffffffff1663a9059cbb60e01b8585604051602401808373ffffffffffffffffffffffffffffffffffffffff16815260200182815260200192505050604051602081830303815290604052907bffffffffffffffffffffffffffffffffffffffffffffffffffffffff19166020820180517bffffffffffffffffffffffffffffffffffffffffffffffffffffffff83818316178352505050506040518082805190602001908083835b60208310611451578051825260208201915060208101905060208303925061142e565b6001836020036101000a0380198251168184511680821785525050505050509050019150506000604051808303816000865af19150503d80600081146114b3576040519150601f19603f3d011682016040523d82523d6000602084013e6114b8565b606091505b50915091508180156114f857506000815114806114f757508080602001905160208110156114e557600080fd5b81019080805190602001909291905050505b5b61156a576040517f08c379a00000000000000000000000000000000000000000000000000000000081526004018080602001828103825260028152602001807f535400000000000000000000000000000000000000000000000000000000000081525060200191505060405180910390fd5b5050505050565b600080600060405180606001604052808760c00151611594888a60c00151610e4a565b0160020b81526020018760c001516115b0888a60c00151610e4a565b0360020b81526020018573ffffffffffffffffffffffffffffffffffffffff16815250905060006115e082612056565b905060008760200151680100000000000000008960000151028161160057fe5b04905081811194508461162b57817001000000000000000000000000000000008161162757fe5b0491505b600080866116425789602001518a6000015161164d565b89600001518a602001515b91509150600070010000000000000000000000000000000060028a73ffffffffffffffffffffffffffffffffffffffff160a8161168657fe5b049050876116ac5780700100000000000000000000000000000000816116a857fe5b0490505b7001000000000000000000000000000000008186020170010000000000000000000000000000000068010000000000000000848802816116e857fe5b04850302816116f357fe5b0496506117356040518060400160405280600e81526020017f616d6f756e7420746f20737761700000000000000000000000000000000000008152508861184c565b505050505050935093915050565b611848828260405160240180806020018315158152602001828103825284818151815260200191508051906020019080838360005b83811015611793578082015181840152602081019050611778565b50505050905090810190601f1680156117c05780820380516001836020036101000a031916815260200191505b5093505050506040516020818303038152906040527fc3b55635000000000000000000000000000000000000000000000000000000007bffffffffffffffffffffffffffffffffffffffffffffffffffffffff19166020820180517bffffffffffffffffffffffffffffffffffffffffffffffffffffffff8381831617835250505050611cb2565b5050565b61194f82826040516024018080602001838152602001828103825284818151815260200191508051906020019080838360005b8381101561189a57808201518184015260208101905061187f565b50505050905090810190601f1680156118c75780820380516001836020036101000a031916815260200191505b5093505050506040516020818303038152906040527f9710a9d0000000000000000000000000000000000000000000000000000000007bffffffffffffffffffffffffffffffffffffffffffffffffffffffff19166020820180517bffffffffffffffffffffffffffffffffffffffffffffffffffffffff8381831617835250505050611cb2565b5050565b600061196c826020015183600001518460600151611ab1565b6000604051806101000160405280846020015173ffffffffffffffffffffffffffffffffffffffff168152602001846040015173ffffffffffffffffffffffffffffffffffffffff1681526020016101f462ffffff1681526020013073ffffffffffffffffffffffffffffffffffffffff168152602001601e420181526020018460600151815260200160008152602001600073ffffffffffffffffffffffffffffffffffffffff168152509050826000015173ffffffffffffffffffffffffffffffffffffffff1663414bf389826040518263ffffffff1660e01b8152600401611a57919061313c565b602060405180830381600087803b158015611a7157600080fd5b505af1158015611a85573d6000803e3d6000fd5b505050506040513d601f19601f82011682018060405250810190611aa99190612d2f565b915050919050565b6000808473ffffffffffffffffffffffffffffffffffffffff1663095ea7b360e01b8585604051602401808373ffffffffffffffffffffffffffffffffffffffff16815260200182815260200192505050604051602081830303815290604052907bffffffffffffffffffffffffffffffffffffffffffffffffffffffff19166020820180517bffffffffffffffffffffffffffffffffffffffffffffffffffffffff83818316178352505050506040518082805190602001908083835b60208310611b925780518252602082019150602081019050602083039250611b6f565b6001836020036101000a0380198251168184511680821785525050505050509050019150506000604051808303816000865af19150503d8060008114611bf4576040519150601f19603f3d011682016040523d82523d6000602084013e611bf9565b606091505b5091509150818015611c395750600081511480611c385750808060200190516020811015611c2657600080fd5b81019080805190602001909291905050505b5b611cab576040517f08c379a00000000000000000000000000000000000000000000000000000000081526004018080602001828103825260028152602001807f534100000000000000000000000000000000000000000000000000000000000081525060200191505060405180910390fd5b5050505050565b60008151905060006a636f6e736f6c652e6c6f679050602083016000808483855afa5050505050565b6000816020015173ffffffffffffffffffffffffffffffffffffffff16826000015173ffffffffffffffffffffffffffffffffffffffff1610611d1d57600080fd5b82826000015183602001518460400151604051602001808473ffffffffffffffffffffffffffffffffffffffff1681526020018373ffffffffffffffffffffffffffffffffffffffff1681526020018262ffffff1681526020019350505050604051602081830303815290604052805190602001207fe34f199b19b2b4f47f68442619d555527d244f78a3297ea89325f843f87b8b5460001b60405160200180807fff000000000000000000000000000000000000000000000000000000000000008152506001018473ffffffffffffffffffffffffffffffffffffffff1660601b815260140183815260200182815260200193505050506040516020818303038152906040528051906020012060001c905092915050565b6000808573ffffffffffffffffffffffffffffffffffffffff166323b872dd60e01b868686604051602401808473ffffffffffffffffffffffffffffffffffffffff1681526020018373ffffffffffffffffffffffffffffffffffffffff1681526020018281526020019350505050604051602081830303815290604052907bffffffffffffffffffffffffffffffffffffffffffffffffffffffff19166020820180517bffffffffffffffffffffffffffffffffffffffffffffffffffffffff83818316178352505050506040518082805190602001908083835b60208310611f355780518252602082019150602081019050602083039250611f12565b6001836020036101000a0380198251168184511680821785525050505050509050019150506000604051808303816000865af19150503d8060008114611f97576040519150601f19603f3d011682016040523d82523d6000602084013e611f9c565b606091505b5091509150818015611fdc5750600081511480611fdb5750808060200190516020811015611fc957600080fd5b81019080805190602001909291905050505b5b61204e576040517f08c379a00000000000000000000000000000000000000000000000000000000081526004018080602001828103825260038152602001807f535446000000000000000000000000000000000000000000000000000000000081525060200191505060405180910390fd5b505050505050565b60008061206683600001516120d1565b9050600061207784602001516120d1565b90506000670de0b6b3a76400009050600061209986604001518584600161250c565b905060006120ae876040015185856001612642565b905080680100000000000000008302816120c457fe5b0495505050505050919050565b60008060008360020b126120e8578260020b6120f0565b8260020b6000035b90507ffffffffffffffffffffffffffffffffffffffffffffffffffffffffffff2761860000360020b81111561218e576040517f08c379a00000000000000000000000000000000000000000000000000000000081526004018080602001828103825260018152602001807f540000000000000000000000000000000000000000000000000000000000000081525060200191505060405180910390fd5b6000806001831614156121b2577001000000000000000000000000000000006121c4565b6ffffcb933bd6fad37aa2d162d1a5940015b70ffffffffffffffffffffffffffffffffff169050600060028316146121fe5760806ffff97272373d413259a46990580e213a8202901c90505b600060048316146122235760806ffff2e50f5f656932ef12357cf3c7fdcc8202901c90505b600060088316146122485760806fffe5caca7e10e4e61c3624eaa0941cd08202901c90505b6000601083161461226d5760806fffcb9843d60f6159c9db58835c9266448202901c90505b600060208316146122925760806fff973b41fa98c081472e6896dfb254c08202901c90505b600060408316146122b75760806fff2ea16466c96a3843ec78b326b528618202901c90505b600060808316146122dc5760806ffe5dee046a99a2a811c461f1969c30538202901c90505b60006101008316146123025760806ffcbe86c7900a88aedcffc83b479aa3a48202901c90505b60006102008316146123285760806ff987a7253ac413176f2b074cf7815e548202901c90505b600061040083161461234e5760806ff3392b0822b70005940c7a398e4b70f38202901c90505b60006108008316146123745760806fe7159475a2c29b7443b29c7fa6e889d98202901c90505b600061100083161461239a5760806fd097f3bdfd2022b8845ad8f792aa58258202901c90505b60006120008316146123c05760806fa9f746462d870fdf8a65dc1f90e061e58202901c90505b60006140008316146123e65760806f70d869a156d2a1b890bb3df62baf32f78202901c90505b600061800083161461240c5760806f31be135f97d08fd981231505542fcfa68202901c90505b6000620100008316146124335760806f09aa508b5b7a84e1c677de54f3e99bc98202901c90505b6000620200008316146124595760806e5d6af8dedb81196699c329225ee6048202901c90505b60006204000083161461247e5760806d2216e584f5fa1ea926041bedfe988202901c90505b6000620800008316146124a15760806b048a170391f7dc42444e8fa28202901c90505b60008460020b13156124da57807fffffffffffffffffffffffffffffffffffffffffffffffffffffffffffffffff816124d657fe5b0490505b600064010000000082816124ea57fe5b06146124f75760016124fa565b60005b60ff16602082901c0192505050919050565b60008373ffffffffffffffffffffffffffffffffffffffff168573ffffffffffffffffffffffffffffffffffffffff16111561254d57838580955081965050505b6000606060ff16846fffffffffffffffffffffffffffffffff16901b9050600086860373ffffffffffffffffffffffffffffffffffffffff16905060008773ffffffffffffffffffffffffffffffffffffffff16116125ab57600080fd5b836125f5578673ffffffffffffffffffffffffffffffffffffffff166125e883838973ffffffffffffffffffffffffffffffffffffffff1661271c565b816125ef57fe5b04612636565b61263561261983838973ffffffffffffffffffffffffffffffffffffffff166127f6565b8873ffffffffffffffffffffffffffffffffffffffff16612854565b5b92505050949350505050565b60008373ffffffffffffffffffffffffffffffffffffffff168573ffffffffffffffffffffffffffffffffffffffff16111561268357838580955081965050505b816126cf576126ca836fffffffffffffffffffffffffffffffff1686860373ffffffffffffffffffffffffffffffffffffffff166c0100000000000000000000000061271c565b612712565b612711836fffffffffffffffffffffffffffffffff1686860373ffffffffffffffffffffffffffffffffffffffff166c010000000000000000000000006127f6565b5b9050949350505050565b600080600080198587098587029250828110838203039150506000811415612757576000841161274b57600080fd5b838204925050506127ef565b80841161276357600080fd5b600084868809905082811182039150808303925060008586600003169050808604955080840493506001818260000304019050808302841793506000600287600302189050808702600203810290508087026002038102905080870260020381029050808702600203810290508087026002038102905080870260020381029050808502955050505050505b9392505050565b600061280384848461271c565b90506000828061280f57fe5b848609111561284d577fffffffffffffffffffffffffffffffffffffffffffffffffffffffffffffffff811061284457600080fd5b80806001019150505b9392505050565b6000808284061182840401905092915050565b600081359050612876816132fb565b92915050565b60008151905061288b81613312565b92915050565b60008083601f8401126128a357600080fd5b8235905067ffffffffffffffff8111156128bc57600080fd5b6020830191508360018202830111156128d457600080fd5b9250929050565b6000813590506128ea81613329565b92915050565b6000815190506128ff81613329565b92915050565b60006080828403121561291757600080fd5b61292160406131b9565b9050600061293184828501612a17565b600083015250606061294584828501612867565b60208301525092915050565b6000610100828403121561296457600080fd5b61296f6101006131b9565b9050600061297f84828501612acb565b600083015250602061299384828501612acb565b60208301525060406129a784828501612867565b60408301525060606129bb84828501612ab6565b60608301525060806129cf84828501612867565b60808301525060a06129e384828501612867565b60a08301525060c06129f7848285016128db565b60c08301525060e0612a0b848285016128db565b60e08301525092915050565b600060608284031215612a2957600080fd5b612a3360606131b9565b90506000612a4384828501612867565b6000830152506020612a5784828501612867565b6020830152506040612a6b84828501612ab6565b60408301525092915050565b600081519050612a8681613340565b92915050565b600081519050612a9b8161336e565b92915050565b600081519050612ab081613357565b92915050565b600081359050612ac581613385565b92915050565b600081359050612ada8161339c565b92915050565b600081519050612aef8161339c565b92915050565b600081519050612b04816133b3565b92915050565b600080600080600060808688031215612b2257600080fd5b6000612b3088828901612867565b9550506020612b4188828901612867565b9450506040612b5288828901612acb565b935050606086013567ffffffffffffffff811115612b6f57600080fd5b612b7b88828901612891565b92509250509295509295909350565b60008060408385031215612b9d57600080fd5b6000612bab85828601612867565b9250506020612bbc85828601612acb565b9150509250929050565b600080600060608486031215612bdb57600080fd5b6000612be986828701612867565b9350506020612bfa86828701612acb565b9250506040612c0b86828701612867565b9150509250925092565b600060808284031215612c2757600080fd5b6000612c3584828501612905565b91505092915050565b60006101008284031215612c5157600080fd5b6000612c5f84828501612951565b91505092915050565b600080600080600080600060e0888a031215612c8357600080fd5b6000612c918a828b01612a8c565b9750506020612ca28a828b016128f0565b9650506040612cb38a828b01612aa1565b9550506060612cc48a828b01612aa1565b9450506080612cd58a828b01612aa1565b93505060a0612ce68a828b01612af5565b92505060c0612cf78a828b0161287c565b91505092959891949750929550565b600060208284031215612d1857600080fd5b6000612d2684828501612acb565b91505092915050565b600060208284031215612d4157600080fd5b6000612d4f84828501612ae0565b91505092915050565b60008060408385031215612d6b57600080fd5b6000612d7985828601612acb565b9250506020612d8a85828601612867565b9150509250929050565b60008060008060808587031215612daa57600080fd5b6000612db887828801612ae0565b9450506020612dc987828801612a77565b9350506040612dda87828801612ae0565b9250506060612deb87828801612ae0565b91505092959194509250565b60008060008060608587031215612e0d57600080fd5b6000612e1b87828801612acb565b9450506020612e2c87828801612acb565b935050604085013567ffffffffffffffff811115612e4957600080fd5b612e5587828801612891565b925092505092959194509250565b612e6c816131ea565b82525050565b612e7b816131ea565b82525050565b612e8a81613208565b82525050565b612e99816132b1565b82525050565b612ea8816132d5565b82525050565b612eb781613234565b82525050565b61010082016000820151612ed46000850182612e63565b506020820151612ee76020850182612e63565b506040820151612efa604085018261305e565b506060820151612f0d6060850182612e63565b506080820151612f20608085018261306d565b5060a0820151612f3360a085018261306d565b5060c0820151612f4660c085018261306d565b5060e0820151612f5960e085018261304f565b50505050565b61016082016000820151612f766000850182612e63565b506020820151612f896020850182612e63565b506040820151612f9c604085018261305e565b506060820151612faf6060850182612eae565b506080820151612fc26080850182612eae565b5060a0820151612fd560a085018261306d565b5060c0820151612fe860c085018261306d565b5060e0820151612ffb60e085018261306d565b5061010082015161301061010085018261306d565b50610120820151613025610120850182612e63565b5061014082015161303a61014085018261306d565b50505050565b61304981613241565b82525050565b6130588161326b565b82525050565b6130678161328b565b82525050565b6130768161329a565b82525050565b6130858161329a565b82525050565b60006020820190506130a06000830184612e72565b92915050565b60006080820190506130bb6000830187612e72565b6130c86020830186613040565b6130d56040830185612e72565b6130e26060830184612e72565b95945050505050565b60006020820190506131006000830184612e81565b92915050565b600060208201905061311b6000830184612e90565b92915050565b60006020820190506131366000830184612e9f565b92915050565b6000610100820190506131526000830184612ebd565b92915050565b60006101608201905061316e6000830184612f5f565b92915050565b6000608082019050613189600083018761307c565b6131966020830186613040565b6131a3604083018561307c565b6131b0606083018461307c565b95945050505050565b6000604051905081810181811067ffffffffffffffff821117156131e0576131df6132f9565b5b8060405250919050565b60006131f58261326b565b9050919050565b60008115159050919050565b60007fffffffff0000000000000000000000000000000000000000000000000000000082169050919050565b60008160020b9050919050565b60006fffffffffffffffffffffffffffffffff82169050919050565b600061ffff82169050919050565b600073ffffffffffffffffffffffffffffffffffffffff82169050919050565b600062ffffff82169050919050565b6000819050919050565b600060ff82169050919050565b60006132bc826132c3565b9050919050565b60006132ce8261326b565b9050919050565b60006132e0826132e7565b9050919050565b60006132f28261326b565b9050919050565bfe5b613304816131ea565b811461330f57600080fd5b50565b61331b816131fc565b811461332657600080fd5b50565b61333281613234565b811461333d57600080fd5b50565b61334981613241565b811461335457600080fd5b50565b6133608161325d565b811461336b57600080fd5b50565b6133778161326b565b811461338257600080fd5b50565b61338e8161328b565b811461339957600080fd5b50565b6133a58161329a565b81146133b057600080fd5b50565b6133bc816132a4565b81146133c757600080fd5b5056fea264697066735822122040ba24f6242ce640ecbeb875a8e150598d9562e71ec24e7cfd5dca1670afdcf564736f6c63430007060033",
  "linkReferences": {},
  "deployedLinkReferences": {}
}