{
  "_format": "hh-sol-artifact-1",
  "contractName": "PositionManager",
  "sourceName": "contracts/PositionManager.sol",
  "abi": [
    {
      "inputs": [
        {
          "internalType": "contract INonfungiblePositionManager",
          "name": "_nonfungiblePositionManager",
          "type": "address"
        },
        {
          "internalType": "contract ISwapRouter",
          "name": "_swaprouter",
          "type": "address"
        },
        {
          "internalType": "address",
          "name": "_factory",
          "type": "address"
        },
        {
          "internalType": "address",
          "name": "_WETH9",
          "type": "address"
        }
      ],
      "stateMutability": "nonpayable",
      "type": "constructor"
    },
    {
      "anonymous": false,
      "inputs": [
        {
          "indexed": false,
          "internalType": "address",
          "name": "token",
          "type": "address"
        },
        {
          "indexed": false,
          "internalType": "uint256",
          "name": "balance",
          "type": "uint256"
        }
      ],
      "name": "Balance",
      "type": "event"
    },
    {
      "inputs": [],
      "name": "WETH9",
      "outputs": [
        {
          "internalType": "address",
          "name": "",
          "type": "address"
        }
      ],
      "stateMutability": "view",
      "type": "function"
    },
    {
      "inputs": [],
      "name": "factory",
      "outputs": [
        {
          "internalType": "address",
          "name": "",
          "type": "address"
        }
      ],
      "stateMutability": "view",
      "type": "function"
    },
    {
      "inputs": [
        {
          "components": [
            {
              "internalType": "uint256",
              "name": "amount0ToMint",
              "type": "uint256"
            },
            {
              "internalType": "uint256",
              "name": "amount1ToMint",
              "type": "uint256"
            },
            {
              "internalType": "address",
              "name": "pool",
              "type": "address"
            },
            {
              "internalType": "uint24",
              "name": "poolFee",
              "type": "uint24"
            },
            {
              "internalType": "address",
              "name": "token0",
              "type": "address"
            },
            {
              "internalType": "address",
              "name": "token1",
              "type": "address"
            },
            {
              "internalType": "int24",
              "name": "tickSpacing",
              "type": "int24"
            },
            {
              "internalType": "int24",
              "name": "spacingMultiplier",
              "type": "int24"
            }
          ],
          "internalType": "struct PositionManager.MintParams",
          "name": "mintParams",
          "type": "tuple"
        }
      ],
      "name": "mint",
      "outputs": [],
      "stateMutability": "nonpayable",
      "type": "function"
    },
    {
      "inputs": [],
      "name": "nonfungiblePositionManager",
      "outputs": [
        {
          "internalType": "contract INonfungiblePositionManager",
          "name": "",
          "type": "address"
        }
      ],
      "stateMutability": "view",
      "type": "function"
    },
    {
      "inputs": [
        {
          "internalType": "address",
          "name": "",
          "type": "address"
        },
        {
          "internalType": "address",
          "name": "",
          "type": "address"
        },
        {
          "internalType": "uint256",
          "name": "",
          "type": "uint256"
        },
        {
          "internalType": "bytes",
          "name": "",
          "type": "bytes"
        }
      ],
      "name": "onERC721Received",
      "outputs": [
        {
          "internalType": "bytes4",
          "name": "",
          "type": "bytes4"
        }
      ],
      "stateMutability": "pure",
      "type": "function"
    },
    {
      "inputs": [],
      "name": "refundETH",
      "outputs": [],
      "stateMutability": "payable",
      "type": "function"
    },
    {
      "inputs": [
        {
          "components": [
            {
              "internalType": "uint256",
              "name": "tokenId",
              "type": "uint256"
            },
            {
              "internalType": "uint128",
              "name": "liquidity",
              "type": "uint128"
            },
            {
              "internalType": "address",
              "name": "token0",
              "type": "address"
            },
            {
              "internalType": "address",
              "name": "token1",
              "type": "address"
            }
          ],
          "internalType": "struct PositionManager.RemoveLiquidityParams",
          "name": "removeLiquidityParams",
          "type": "tuple"
        }
      ],
      "name": "removeLiquidity",
      "outputs": [],
      "stateMutability": "nonpayable",
      "type": "function"
    },
    {
      "inputs": [
        {
          "components": [
            {
              "internalType": "uint256",
              "name": "tokenId",
              "type": "uint256"
            },
            {
              "internalType": "uint128",
              "name": "liquidity",
              "type": "uint128"
            },
            {
              "internalType": "address",
              "name": "token0",
              "type": "address"
            },
            {
              "internalType": "address",
              "name": "token1",
              "type": "address"
            }
          ],
          "internalType": "struct PositionManager.RemoveLiquidityParams",
          "name": "removeParams",
          "type": "tuple"
        },
        {
          "components": [
            {
              "internalType": "uint256",
              "name": "amount0ToMint",
              "type": "uint256"
            },
            {
              "internalType": "uint256",
              "name": "amount1ToMint",
              "type": "uint256"
            },
            {
              "internalType": "address",
              "name": "pool",
              "type": "address"
            },
            {
              "internalType": "uint24",
              "name": "poolFee",
              "type": "uint24"
            },
            {
              "internalType": "address",
              "name": "token0",
              "type": "address"
            },
            {
              "internalType": "address",
              "name": "token1",
              "type": "address"
            },
            {
              "internalType": "int24",
              "name": "tickSpacing",
              "type": "int24"
            },
            {
              "internalType": "int24",
              "name": "spacingMultiplier",
              "type": "int24"
            }
          ],
          "internalType": "struct PositionManager.MintParams",
          "name": "mintParams",
          "type": "tuple"
        }
      ],
      "name": "resetPosition",
      "outputs": [],
      "stateMutability": "nonpayable",
      "type": "function"
    },
    {
      "inputs": [],
      "name": "swapRouter",
      "outputs": [
        {
          "internalType": "contract ISwapRouter",
          "name": "",
          "type": "address"
        }
      ],
      "stateMutability": "view",
      "type": "function"
    },
    {
      "inputs": [
        {
          "internalType": "address",
          "name": "token",
          "type": "address"
        },
        {
          "internalType": "uint256",
          "name": "amountMinimum",
          "type": "uint256"
        },
        {
          "internalType": "address",
          "name": "recipient",
          "type": "address"
        }
      ],
      "name": "sweepToken",
      "outputs": [],
      "stateMutability": "payable",
      "type": "function"
    },
    {
      "inputs": [
        {
          "internalType": "address",
          "name": "token",
          "type": "address"
        },
        {
          "internalType": "uint256",
          "name": "amount",
          "type": "uint256"
        }
      ],
      "name": "tokenReturn",
      "outputs": [],
      "stateMutability": "nonpayable",
      "type": "function"
    },
    {
      "inputs": [
        {
          "internalType": "uint256",
          "name": "amount0Owed",
          "type": "uint256"
        },
        {
          "internalType": "uint256",
          "name": "amount1Owed",
          "type": "uint256"
        },
        {
          "internalType": "bytes",
          "name": "data",
          "type": "bytes"
        }
      ],
      "name": "uniswapV3MintCallback",
      "outputs": [],
      "stateMutability": "nonpayable",
      "type": "function"
    },
    {
      "inputs": [
        {
          "internalType": "uint256",
          "name": "amountMinimum",
          "type": "uint256"
        },
        {
          "internalType": "address",
          "name": "recipient",
          "type": "address"
        }
      ],
      "name": "unwrapWETH9",
      "outputs": [],
      "stateMutability": "payable",
      "type": "function"
    },
    {
      "stateMutability": "payable",
      "type": "receive"
    }
  ],
  "bytecode": "0x6101006040523480156200001257600080fd5b5060405162003be038038062003be0833981810160405281019062000038919062000167565b81818173ffffffffffffffffffffffffffffffffffffffff1660808173ffffffffffffffffffffffffffffffffffffffff1660601b815250508073ffffffffffffffffffffffffffffffffffffffff1660a08173ffffffffffffffffffffffffffffffffffffffff1660601b8152505050508373ffffffffffffffffffffffffffffffffffffffff1660c08173ffffffffffffffffffffffffffffffffffffffff1660601b815250508273ffffffffffffffffffffffffffffffffffffffff1660e08173ffffffffffffffffffffffffffffffffffffffff1660601b81525050505050506200027d565b60008151905062000133816200022f565b92915050565b6000815190506200014a8162000249565b92915050565b600081519050620001618162000263565b92915050565b600080600080608085870312156200017e57600080fd5b60006200018e8782880162000139565b9450506020620001a18782880162000150565b9350506040620001b48782880162000122565b9250506060620001c78782880162000122565b91505092959194509250565b6000620001e0826200020f565b9050919050565b6000620001f482620001d3565b9050919050565b60006200020882620001d3565b9050919050565b600073ffffffffffffffffffffffffffffffffffffffff82169050919050565b6200023a81620001d3565b81146200024657600080fd5b50565b6200025481620001e7565b81146200026057600080fd5b50565b6200026e81620001fb565b81146200027a57600080fd5b50565b60805160601c60a05160601c60c05160601c60e05160601c6138e1620002ff600039806109fd5280611635525080610418528061052752806109d95280610eea5280610f19528061103a52508060cd5280610603528061074652806107e152806111de528061123e52806112bf525080610a215280610a5b52506138e16000f3fe6080604052600436106100c65760003560e01c80634aa4a4fc1161007f578063c31c9c0711610059578063c31c9c07146102f0578063c45a01551461031b578063d348799714610346578063df2ab5bb1461036f5761018e565b80634aa4a4fc146102715780635b1a08301461029c578063b44a2722146102c55761018e565b806312210e8a14610193578063150b7a021461019d578063267ff7ef146101da5780632985cf90146102035780633becd62a1461022c57806349404b7c146102555761018e565b3661018e577f000000000000000000000000000000000000000000000000000000000000000073ffffffffffffffffffffffffffffffffffffffff163373ffffffffffffffffffffffffffffffffffffffff161461018c576040517f08c379a00000000000000000000000000000000000000000000000000000000081526004018080602001828103825260098152602001807f4e6f74205745544839000000000000000000000000000000000000000000000081525060200191505060405180910390fd5b005b600080fd5b61019b61038b565b005b3480156101a957600080fd5b506101c460048036038101906101bf9190612e80565b6103a1565b6040516101d191906135a5565b60405180910390f35b3480156101e657600080fd5b5061020160048036038101906101fc9190613007565b6103b6565b005b34801561020f57600080fd5b5061022a60048036038101906102259190612fde565b6103cc565b005b34801561023857600080fd5b50610253600480360381019061024e9190612f00565b6105d6565b005b61026f600480360381019061026a919061310b565b6105ff565b005b34801561027d57600080fd5b506102866107df565b6040516102939190613546565b60405180910390f35b3480156102a857600080fd5b506102c360048036038101906102be9190612fb4565b610803565b005b3480156102d157600080fd5b506102da6109d7565b6040516102e791906135c0565b60405180910390f35b3480156102fc57600080fd5b506103056109fb565b60405161031291906135db565b60405180910390f35b34801561032757600080fd5b50610330610a1f565b60405161033d9190613546565b60405180910390f35b34801561035257600080fd5b5061036d600480360381019061036891906131e6565b610a43565b005b61038960048036038101906103849190612f3c565b610ad0565b005b600047111561039f5761039e3347610c07565b5b565b600063150b7a0260e01b905095945050505050565b6103bf826103cc565b6103c881610803565b5050565b60006040518060a001604052808360000151815260200183602001516fffffffffffffffffffffffffffffffff1681526020016000815260200160008152602001601e420181525090507f000000000000000000000000000000000000000000000000000000000000000073ffffffffffffffffffffffffffffffffffffffff16630c49ccbe826040518263ffffffff1660e01b815260040161046f9190613611565b6040805180830381600087803b15801561048857600080fd5b505af115801561049c573d6000803e3d6000fd5b505050506040513d601f19601f820116820180604052508101906104c091906131aa565b505060006040518060800160405280846000015181526020013073ffffffffffffffffffffffffffffffffffffffff1681526020016fffffffffffffffffffffffffffffffff801681526020016fffffffffffffffffffffffffffffffff801681525090507f000000000000000000000000000000000000000000000000000000000000000073ffffffffffffffffffffffffffffffffffffffff1663fc6f7865826040518263ffffffff1660e01b815260040161057e91906135f6565b6040805180830381600087803b15801561059757600080fd5b505af11580156105ab573d6000803e3d6000fd5b505050506040513d601f19601f820116820180604052508101906105cf91906131aa565b5050505050565b60007325cca0d866e36b00d3a5c07339122123aef918f190506105fa838284610d83565b505050565b60007f000000000000000000000000000000000000000000000000000000000000000073ffffffffffffffffffffffffffffffffffffffff166370a08231306040518263ffffffff1660e01b8152600401808273ffffffffffffffffffffffffffffffffffffffff16815260200191505060206040518083038186803b15801561068857600080fd5b505afa15801561069c573d6000803e3d6000fd5b505050506040513d60208110156106b257600080fd5b810190808051906020019092919050505090508281101561073b576040517f08c379a00000000000000000000000000000000000000000000000000000000081526004018080602001828103825260128152602001807f496e73756666696369656e74205745544839000000000000000000000000000081525060200191505060405180910390fd5b60008111156107da577f000000000000000000000000000000000000000000000000000000000000000073ffffffffffffffffffffffffffffffffffffffff16632e1a7d4d826040518263ffffffff1660e01b815260040180828152602001915050600060405180830381600087803b1580156107b757600080fd5b505af11580156107cb573d6000803e3d6000fd5b505050506107d98282610c07565b5b505050565b7f000000000000000000000000000000000000000000000000000000000000000081565b6000816080015173ffffffffffffffffffffffffffffffffffffffff166370a08231306040518263ffffffff1660e01b81526004016108429190613561565b60206040518083038186803b15801561085a57600080fd5b505afa15801561086e573d6000803e3d6000fd5b505050506040513d601f19601f8201168201806040525081019061089291906130e2565b905060008260a0015173ffffffffffffffffffffffffffffffffffffffff166370a08231306040518263ffffffff1660e01b81526004016108d39190613561565b60206040518083038186803b1580156108eb57600080fd5b505afa1580156108ff573d6000803e3d6000fd5b505050506040513d601f19601f8201168201806040525081019061092391906130e2565b90507f134e340554ff8a7d64280a2a28b982df554e2595e5bf45cd39368f31099172a683608001518360405161095a92919061357c565b60405180910390a17f134e340554ff8a7d64280a2a28b982df554e2595e5bf45cd39368f31099172a68360a001518260405161099792919061357c565b60405180910390a181836000018181525050808360200181815250506109c583600001518460200151610d93565b6109ce83610e35565b50505050505050565b7f000000000000000000000000000000000000000000000000000000000000000081565b7f000000000000000000000000000000000000000000000000000000000000000081565b7f000000000000000000000000000000000000000000000000000000000000000081565b60008282810190610a549190612f8b565b9050610a847f00000000000000000000000000000000000000000000000000000000000000008260000151611190565b506000851115610aa757610aa6816000015160000151826020015133886111dc565b5b6000841115610ac957610ac8816000015160200151826020015133876111dc565b5b5050505050565b60008373ffffffffffffffffffffffffffffffffffffffff166370a08231306040518263ffffffff1660e01b8152600401808273ffffffffffffffffffffffffffffffffffffffff16815260200191505060206040518083038186803b158015610b3957600080fd5b505afa158015610b4d573d6000803e3d6000fd5b505050506040513d6020811015610b6357600080fd5b8101908080519060200190929190505050905082811015610bec576040517f08c379a00000000000000000000000000000000000000000000000000000000081526004018080602001828103825260128152602001807f496e73756666696369656e7420746f6b656e000000000000000000000000000081525060200191505060405180910390fd5b6000811115610c0157610c008483836113e7565b5b50505050565b60008273ffffffffffffffffffffffffffffffffffffffff1682600067ffffffffffffffff81118015610c3957600080fd5b506040519080825280601f01601f191660200182016040528015610c6c5781602001600182028036833780820191505090505b506040518082805190602001908083835b60208310610ca05780518252602082019150602081019050602083039250610c7d565b6001836020036101000a03801982511681845116808217855250505050505090500191505060006040518083038185875af1925050503d8060008114610d02576040519150601f19603f3d011682016040523d82523d6000602084013e610d07565b606091505b5050905080610d7e576040517f08c379a00000000000000000000000000000000000000000000000000000000081526004018080602001828103825260038152602001807f535445000000000000000000000000000000000000000000000000000000000081525060200191505060405180910390fd5b505050565b610d8e8383836113e7565b505050565b610e31828260405160240180838152602001828152602001925050506040516020818303038152906040527f6c0f6980000000000000000000000000000000000000000000000000000000007bffffffffffffffffffffffffffffffffffffffffffffffffffffffff19166020820180517bffffffffffffffffffffffffffffffffffffffffffffffffffffffff83818316178352505050506115e8565b5050565b6000806000806000856040015190506000808273ffffffffffffffffffffffffffffffffffffffff16633850c7bd6040518163ffffffff1660e01b815260040160e06040518083038186803b158015610e8d57600080fd5b505afa158015610ea1573d6000803e3d6000fd5b505050506040513d601f19601f82011682018060405250810190610ec59190613044565b505050505091509150600080610edc8a8486611611565b91509150610f0f8a608001517f000000000000000000000000000000000000000000000000000000000000000084611724565b610f3e8a60a001517f000000000000000000000000000000000000000000000000000000000000000083611724565b60006040518061016001604052808c6080015173ffffffffffffffffffffffffffffffffffffffff1681526020018c60a0015173ffffffffffffffffffffffffffffffffffffffff1681526020018c6060015162ffffff1681526020018c60e001518d60c0015102610fb4878f60c00151611734565b0360020b81526020018c60e001518d60c0015102610fd6878f60c00151611734565b0160020b8152602001848152602001838152602001610ffa856103e36103e86117cd565b815260200161100e846103e36103e86117cd565b81526020013073ffffffffffffffffffffffffffffffffffffffff168152602001601e420181525090507f000000000000000000000000000000000000000000000000000000000000000073ffffffffffffffffffffffffffffffffffffffff166388316456826040518263ffffffff1660e01b81526004016110919190613648565b608060405180830381600087803b1580156110ab57600080fd5b505af11580156110bf573d6000803e3d6000fd5b505050506040513d601f19601f820116820180604052508101906110e39190613147565b809a50819b50829c50839d50505050506111446040518060400160405280600981526020017f6c697175696469747900000000000000000000000000000000000000000000008152508a6fffffffffffffffffffffffffffffffff166118a7565b6111836040518060400160405280600781526020017f746f6b656e4944000000000000000000000000000000000000000000000000008152508b6118a7565b5050505050509193509193565b600061119c83836119ae565b90508073ffffffffffffffffffffffffffffffffffffffff163373ffffffffffffffffffffffffffffffffffffffff16146111d657600080fd5b92915050565b7f000000000000000000000000000000000000000000000000000000000000000073ffffffffffffffffffffffffffffffffffffffff168473ffffffffffffffffffffffffffffffffffffffff161480156112375750804710155b1561138f577f000000000000000000000000000000000000000000000000000000000000000073ffffffffffffffffffffffffffffffffffffffff1663d0e30db0826040518263ffffffff1660e01b81526004016000604051808303818588803b1580156112a457600080fd5b505af11580156112b8573d6000803e3d6000fd5b50505050507f000000000000000000000000000000000000000000000000000000000000000073ffffffffffffffffffffffffffffffffffffffff1663a9059cbb83836040518363ffffffff1660e01b8152600401808373ffffffffffffffffffffffffffffffffffffffff16815260200182815260200192505050602060405180830381600087803b15801561134e57600080fd5b505af1158015611362573d6000803e3d6000fd5b505050506040513d602081101561137857600080fd5b8101908080519060200190929190505050506113e1565b3073ffffffffffffffffffffffffffffffffffffffff168373ffffffffffffffffffffffffffffffffffffffff1614156113d3576113ce8483836113e7565b6113e0565b6113df84848484611b09565b5b5b50505050565b6000808473ffffffffffffffffffffffffffffffffffffffff1663a9059cbb60e01b8585604051602401808373ffffffffffffffffffffffffffffffffffffffff16815260200182815260200192505050604051602081830303815290604052907bffffffffffffffffffffffffffffffffffffffffffffffffffffffff19166020820180517bffffffffffffffffffffffffffffffffffffffffffffffffffffffff83818316178352505050506040518082805190602001908083835b602083106114c857805182526020820191506020810190506020830392506114a5565b6001836020036101000a0380198251168184511680821785525050505050509050019150506000604051808303816000865af19150503d806000811461152a576040519150601f19603f3d011682016040523d82523d6000602084013e61152f565b606091505b509150915081801561156f575060008151148061156e575080806020019051602081101561155c57600080fd5b81019080805190602001909291905050505b5b6115e1576040517f08c379a00000000000000000000000000000000000000000000000000000000081526004018080602001828103825260028152602001807f535400000000000000000000000000000000000000000000000000000000000081525060200191505060405180910390fd5b5050505050565b60008151905060006a636f6e736f6c652e6c6f679050602083016000808483855afa5050505050565b600080600080611622878787611d29565b91509150600060405180608001604052807f000000000000000000000000000000000000000000000000000000000000000073ffffffffffffffffffffffffffffffffffffffff1681526020018461167e578960a00151611684565b89608001515b73ffffffffffffffffffffffffffffffffffffffff168152602001846116ae5789608001516116b4565b8960a001515b73ffffffffffffffffffffffffffffffffffffffff16815260200183815250905060006116e082611ec8565b9050836116f357808960000151016116fb565b828960000151035b95508361170e5782896020015103611716565b808960200151015b945050505050935093915050565b61172f838383612026565b505050565b6000808360020b13156117865760008260020b8460020b8161175257fe5b05905082810290506000838201905081850360020b85820360020b121561177b5780925061177f565b8192505b50506117c7565b60008260020b8460020b8161179757fe5b05905082810290506000838203905080850360020b85830360020b12156117c0578192506117c4565b8092505b50505b92915050565b60008060008019858709858702925082811083820303915050600081141561180857600084116117fc57600080fd5b838204925050506118a0565b80841161181457600080fd5b600084868809905082811182039150808303925060008586600003169050808604955080840493506001818260000304019050808302841793506000600287600302189050808702600203810290508087026002038102905080870260020381029050808702600203810290508087026002038102905080870260020381029050808502955050505050505b9392505050565b6119aa82826040516024018080602001838152602001828103825284818151815260200191508051906020019080838360005b838110156118f55780820151818401526020810190506118da565b50505050905090810190601f1680156119225780820380516001836020036101000a031916815260200191505b5093505050506040516020818303038152906040527f9710a9d0000000000000000000000000000000000000000000000000000000007bffffffffffffffffffffffffffffffffffffffffffffffffffffffff19166020820180517bffffffffffffffffffffffffffffffffffffffffffffffffffffffff83818316178352505050506115e8565b5050565b6000816020015173ffffffffffffffffffffffffffffffffffffffff16826000015173ffffffffffffffffffffffffffffffffffffffff16106119f057600080fd5b82826000015183602001518460400151604051602001808473ffffffffffffffffffffffffffffffffffffffff1681526020018373ffffffffffffffffffffffffffffffffffffffff1681526020018262ffffff1681526020019350505050604051602081830303815290604052805190602001207fe34f199b19b2b4f47f68442619d555527d244f78a3297ea89325f843f87b8b5460001b60405160200180807fff000000000000000000000000000000000000000000000000000000000000008152506001018473ffffffffffffffffffffffffffffffffffffffff1660601b815260140183815260200182815260200193505050506040516020818303038152906040528051906020012060001c905092915050565b6000808573ffffffffffffffffffffffffffffffffffffffff166323b872dd60e01b868686604051602401808473ffffffffffffffffffffffffffffffffffffffff1681526020018373ffffffffffffffffffffffffffffffffffffffff1681526020018281526020019350505050604051602081830303815290604052907bffffffffffffffffffffffffffffffffffffffffffffffffffffffff19166020820180517bffffffffffffffffffffffffffffffffffffffffffffffffffffffff83818316178352505050506040518082805190602001908083835b60208310611c085780518252602082019150602081019050602083039250611be5565b6001836020036101000a0380198251168184511680821785525050505050509050019150506000604051808303816000865af19150503d8060008114611c6a576040519150601f19603f3d011682016040523d82523d6000602084013e611c6f565b606091505b5091509150818015611caf5750600081511480611cae5750808060200190516020811015611c9c57600080fd5b81019080805190602001909291905050505b5b611d21576040517f08c379a00000000000000000000000000000000000000000000000000000000081526004018080602001828103825260038152602001807f535446000000000000000000000000000000000000000000000000000000000081525060200191505060405180910390fd5b505050505050565b600080600060405180606001604052808760e001518860c0015102611d52888a60c00151611734565b0160020b81526020018760e001518860c0015102611d74888a60c00151611734565b0360020b81526020018573ffffffffffffffffffffffffffffffffffffffff1681525090506000611da482612227565b9050600087602001516801000000000000000089600001510281611dc457fe5b049050818111945084611def578170010000000000000000000000000000000081611deb57fe5b0491505b60008086611e065789602001518a60000151611e11565b89600001518a602001515b91509150600070010000000000000000000000000000000060028a73ffffffffffffffffffffffffffffffffffffffff160a81611e4a57fe5b04905087611e70578070010000000000000000000000000000000081611e6c57fe5b0490505b700100000000000000000000000000000000818602017001000000000000000000000000000000006801000000000000000084880281611eac57fe5b0485030281611eb757fe5b049650505050505050935093915050565b6000611ee1826020015183600001518460600151612026565b6000604051806101000160405280846020015173ffffffffffffffffffffffffffffffffffffffff168152602001846040015173ffffffffffffffffffffffffffffffffffffffff1681526020016101f462ffffff1681526020013073ffffffffffffffffffffffffffffffffffffffff168152602001601e420181526020018460600151815260200160008152602001600073ffffffffffffffffffffffffffffffffffffffff168152509050826000015173ffffffffffffffffffffffffffffffffffffffff1663414bf389826040518263ffffffff1660e01b8152600401611fcc919061362c565b602060405180830381600087803b158015611fe657600080fd5b505af1158015611ffa573d6000803e3d6000fd5b505050506040513d601f19601f8201168201806040525081019061201e91906130e2565b915050919050565b6000808473ffffffffffffffffffffffffffffffffffffffff1663095ea7b360e01b8585604051602401808373ffffffffffffffffffffffffffffffffffffffff16815260200182815260200192505050604051602081830303815290604052907bffffffffffffffffffffffffffffffffffffffffffffffffffffffff19166020820180517bffffffffffffffffffffffffffffffffffffffffffffffffffffffff83818316178352505050506040518082805190602001908083835b6020831061210757805182526020820191506020810190506020830392506120e4565b6001836020036101000a0380198251168184511680821785525050505050509050019150506000604051808303816000865af19150503d8060008114612169576040519150601f19603f3d011682016040523d82523d6000602084013e61216e565b606091505b50915091508180156121ae57506000815114806121ad575080806020019051602081101561219b57600080fd5b81019080805190602001909291905050505b5b612220576040517f08c379a00000000000000000000000000000000000000000000000000000000081526004018080602001828103825260028152602001807f534100000000000000000000000000000000000000000000000000000000000081525060200191505060405180910390fd5b5050505050565b60006122676040518060400160405280600e81526020017f7570706572202f206c6f7765723a000000000000000000000000000000000000815250612301565b612277826000015160020b6123ff565b612287826020015160020b6123ff565b60006122968360000151612498565b905060006122a78460200151612498565b90506000670de0b6b3a7640000905060006122c98660400151858460016128d3565b905060006122de876040015185856001612a09565b905080680100000000000000008302816122f457fe5b0495505050505050919050565b6123fc816040516024018080602001828103825283818151815260200191508051906020019080838360005b8381101561234857808201518184015260208101905061232d565b50505050905090810190601f1680156123755780820380516001836020036101000a031916815260200191505b50925050506040516020818303038152906040527f41304fac000000000000000000000000000000000000000000000000000000007bffffffffffffffffffffffffffffffffffffffffffffffffffffffff19166020820180517bffffffffffffffffffffffffffffffffffffffffffffffffffffffff83818316178352505050506115e8565b50565b61249581604051602401808281526020019150506040516020818303038152906040527f4e0c1d1d000000000000000000000000000000000000000000000000000000007bffffffffffffffffffffffffffffffffffffffffffffffffffffffff19166020820180517bffffffffffffffffffffffffffffffffffffffffffffffffffffffff83818316178352505050506115e8565b50565b60008060008360020b126124af578260020b6124b7565b8260020b6000035b90507ffffffffffffffffffffffffffffffffffffffffffffffffffffffffffff2761860000360020b811115612555576040517f08c379a00000000000000000000000000000000000000000000000000000000081526004018080602001828103825260018152602001807f540000000000000000000000000000000000000000000000000000000000000081525060200191505060405180910390fd5b6000806001831614156125795770010000000000000000000000000000000061258b565b6ffffcb933bd6fad37aa2d162d1a5940015b70ffffffffffffffffffffffffffffffffff169050600060028316146125c55760806ffff97272373d413259a46990580e213a8202901c90505b600060048316146125ea5760806ffff2e50f5f656932ef12357cf3c7fdcc8202901c90505b6000600883161461260f5760806fffe5caca7e10e4e61c3624eaa0941cd08202901c90505b600060108316146126345760806fffcb9843d60f6159c9db58835c9266448202901c90505b600060208316146126595760806fff973b41fa98c081472e6896dfb254c08202901c90505b6000604083161461267e5760806fff2ea16466c96a3843ec78b326b528618202901c90505b600060808316146126a35760806ffe5dee046a99a2a811c461f1969c30538202901c90505b60006101008316146126c95760806ffcbe86c7900a88aedcffc83b479aa3a48202901c90505b60006102008316146126ef5760806ff987a7253ac413176f2b074cf7815e548202901c90505b60006104008316146127155760806ff3392b0822b70005940c7a398e4b70f38202901c90505b600061080083161461273b5760806fe7159475a2c29b7443b29c7fa6e889d98202901c90505b60006110008316146127615760806fd097f3bdfd2022b8845ad8f792aa58258202901c90505b60006120008316146127875760806fa9f746462d870fdf8a65dc1f90e061e58202901c90505b60006140008316146127ad5760806f70d869a156d2a1b890bb3df62baf32f78202901c90505b60006180008316146127d35760806f31be135f97d08fd981231505542fcfa68202901c90505b6000620100008316146127fa5760806f09aa508b5b7a84e1c677de54f3e99bc98202901c90505b6000620200008316146128205760806e5d6af8dedb81196699c329225ee6048202901c90505b6000620400008316146128455760806d2216e584f5fa1ea926041bedfe988202901c90505b6000620800008316146128685760806b048a170391f7dc42444e8fa28202901c90505b60008460020b13156128a157807fffffffffffffffffffffffffffffffffffffffffffffffffffffffffffffffff8161289d57fe5b0490505b600064010000000082816128b157fe5b06146128be5760016128c1565b60005b60ff16602082901c0192505050919050565b60008373ffffffffffffffffffffffffffffffffffffffff168573ffffffffffffffffffffffffffffffffffffffff16111561291457838580955081965050505b6000606060ff16846fffffffffffffffffffffffffffffffff16901b9050600086860373ffffffffffffffffffffffffffffffffffffffff16905060008773ffffffffffffffffffffffffffffffffffffffff161161297257600080fd5b836129bc578673ffffffffffffffffffffffffffffffffffffffff166129af83838973ffffffffffffffffffffffffffffffffffffffff166117cd565b816129b657fe5b046129fd565b6129fc6129e083838973ffffffffffffffffffffffffffffffffffffffff16612ae3565b8873ffffffffffffffffffffffffffffffffffffffff16612b41565b5b92505050949350505050565b60008373ffffffffffffffffffffffffffffffffffffffff168573ffffffffffffffffffffffffffffffffffffffff161115612a4a57838580955081965050505b81612a9657612a91836fffffffffffffffffffffffffffffffff1686860373ffffffffffffffffffffffffffffffffffffffff166c010000000000000000000000006117cd565b612ad9565b612ad8836fffffffffffffffffffffffffffffffff1686860373ffffffffffffffffffffffffffffffffffffffff166c01000000000000000000000000612ae3565b5b9050949350505050565b6000612af08484846117cd565b905060008280612afc57fe5b8486091115612b3a577fffffffffffffffffffffffffffffffffffffffffffffffffffffffffffffffff8110612b3157600080fd5b80806001019150505b9392505050565b6000808284061182840401905092915050565b600081359050612b63816137dc565b92915050565b600081519050612b78816137f3565b92915050565b60008083601f840112612b9057600080fd5b8235905067ffffffffffffffff811115612ba957600080fd5b602083019150836001820283011115612bc157600080fd5b9250929050565b600081359050612bd78161380a565b92915050565b600081519050612bec8161380a565b92915050565b600060808284031215612c0457600080fd5b612c0e6040613664565b90506000612c1e84828501612d04565b6000830152506060612c3284828501612b54565b60208301525092915050565b60006101008284031215612c5157600080fd5b612c5c610100613664565b90506000612c6c84828501612e41565b6000830152506020612c8084828501612e41565b6020830152506040612c9484828501612b54565b6040830152506060612ca884828501612e2c565b6060830152506080612cbc84828501612b54565b60808301525060a0612cd084828501612b54565b60a08301525060c0612ce484828501612bc8565b60c08301525060e0612cf884828501612bc8565b60e08301525092915050565b600060608284031215612d1657600080fd5b612d206060613664565b90506000612d3084828501612b54565b6000830152506020612d4484828501612b54565b6020830152506040612d5884828501612e2c565b60408301525092915050565b600060808284031215612d7657600080fd5b612d806080613664565b90506000612d9084828501612e41565b6000830152506020612da484828501612dd8565b6020830152506040612db884828501612b54565b6040830152506060612dcc84828501612b54565b60608301525092915050565b600081359050612de781613821565b92915050565b600081519050612dfc81613821565b92915050565b600081519050612e118161384f565b92915050565b600081519050612e2681613838565b92915050565b600081359050612e3b81613866565b92915050565b600081359050612e508161387d565b92915050565b600081519050612e658161387d565b92915050565b600081519050612e7a81613894565b92915050565b600080600080600060808688031215612e9857600080fd5b6000612ea688828901612b54565b9550506020612eb788828901612b54565b9450506040612ec888828901612e41565b935050606086013567ffffffffffffffff811115612ee557600080fd5b612ef188828901612b7e565b92509250509295509295909350565b60008060408385031215612f1357600080fd5b6000612f2185828601612b54565b9250506020612f3285828601612e41565b9150509250929050565b600080600060608486031215612f5157600080fd5b6000612f5f86828701612b54565b9350506020612f7086828701612e41565b9250506040612f8186828701612b54565b9150509250925092565b600060808284031215612f9d57600080fd5b6000612fab84828501612bf2565b91505092915050565b60006101008284031215612fc757600080fd5b6000612fd584828501612c3e565b91505092915050565b600060808284031215612ff057600080fd5b6000612ffe84828501612d64565b91505092915050565b600080610180838503121561301b57600080fd5b600061302985828601612d64565b925050608061303a85828601612c3e565b9150509250929050565b600080600080600080600060e0888a03121561305f57600080fd5b600061306d8a828b01612e02565b975050602061307e8a828b01612bdd565b965050604061308f8a828b01612e17565b95505060606130a08a828b01612e17565b94505060806130b18a828b01612e17565b93505060a06130c28a828b01612e6b565b92505060c06130d38a828b01612b69565b91505092959891949750929550565b6000602082840312156130f457600080fd5b600061310284828501612e56565b91505092915050565b6000806040838503121561311e57600080fd5b600061312c85828601612e41565b925050602061313d85828601612b54565b9150509250929050565b6000806000806080858703121561315d57600080fd5b600061316b87828801612e56565b945050602061317c87828801612ded565b935050604061318d87828801612e56565b925050606061319e87828801612e56565b91505092959194509250565b600080604083850312156131bd57600080fd5b60006131cb85828601612e56565b92505060206131dc85828601612e56565b9150509250929050565b600080600080606085870312156131fc57600080fd5b600061320a87828801612e41565b945050602061321b87828801612e41565b935050604085013567ffffffffffffffff81111561323857600080fd5b61324487828801612b7e565b925092505092959194509250565b61325b8161375c565b82525050565b61326a81613695565b82525050565b61327981613695565b82525050565b613288816136b3565b82525050565b6132978161376e565b82525050565b6132a681613792565b82525050565b6132b5816136df565b82525050565b6080820160008201516132d16000850182613528565b5060208201516132e46020850182613261565b5060408201516132f760408501826134fb565b50606082015161330a60608501826134fb565b50505050565b60a0820160008201516133266000850182613528565b50602082015161333960208501826134fb565b50604082015161334c6040850182613528565b50606082015161335f6060850182613528565b5060808201516133726080850182613528565b50505050565b6101008201600082015161338f6000850182613261565b5060208201516133a26020850182613261565b5060408201516133b56040850182613519565b5060608201516133c86060850182613261565b5060808201516133db6080850182613528565b5060a08201516133ee60a0850182613528565b5060c082015161340160c0850182613528565b5060e082015161341460e085018261350a565b50505050565b610160820160008201516134316000850182613261565b5060208201516134446020850182613261565b5060408201516134576040850182613519565b50606082015161346a60608501826132ac565b50608082015161347d60808501826132ac565b5060a082015161349060a0850182613528565b5060c08201516134a360c0850182613528565b5060e08201516134b660e0850182613528565b506101008201516134cb610100850182613528565b506101208201516134e0610120850182613261565b506101408201516134f5610140850182613528565b50505050565b613504816136ec565b82525050565b61351381613716565b82525050565b61352281613736565b82525050565b61353181613745565b82525050565b61354081613745565b82525050565b600060208201905061355b6000830184613270565b92915050565b60006020820190506135766000830184613252565b92915050565b60006040820190506135916000830185613270565b61359e6020830184613537565b9392505050565b60006020820190506135ba600083018461327f565b92915050565b60006020820190506135d5600083018461328e565b92915050565b60006020820190506135f0600083018461329d565b92915050565b600060808201905061360b60008301846132bb565b92915050565b600060a0820190506136266000830184613310565b92915050565b6000610100820190506136426000830184613378565b92915050565b60006101608201905061365e600083018461341a565b92915050565b6000604051905081810181811067ffffffffffffffff8211171561368b5761368a6137da565b5b8060405250919050565b60006136a082613716565b9050919050565b60008115159050919050565b60007fffffffff0000000000000000000000000000000000000000000000000000000082169050919050565b60008160020b9050919050565b60006fffffffffffffffffffffffffffffffff82169050919050565b600061ffff82169050919050565b600073ffffffffffffffffffffffffffffffffffffffff82169050919050565b600062ffffff82169050919050565b6000819050919050565b600060ff82169050919050565b6000613767826137b6565b9050919050565b600061377982613780565b9050919050565b600061378b82613716565b9050919050565b600061379d826137a4565b9050919050565b60006137af82613716565b9050919050565b60006137c1826137c8565b9050919050565b60006137d382613716565b9050919050565bfe5b6137e581613695565b81146137f057600080fd5b50565b6137fc816136a7565b811461380757600080fd5b50565b613813816136df565b811461381e57600080fd5b50565b61382a816136ec565b811461383557600080fd5b50565b61384181613708565b811461384c57600080fd5b50565b61385881613716565b811461386357600080fd5b50565b61386f81613736565b811461387a57600080fd5b50565b61388681613745565b811461389157600080fd5b50565b61389d8161374f565b81146138a857600080fd5b5056fea2646970667358221220a3f07fa673023cf356548454b6a285b04a54bf70f8494376d58bf89484c8203064736f6c63430007060033",
  "linkReferences": {},
  "deployedLinkReferences": {}
}