{
  "_format": "hh-sol-artifact-1",
  "contractName": "PositionManager",
  "sourceName": "contracts/PositionManager.sol",
  "abi": [
    {
      "inputs": [
        {
          "internalType": "contract INonfungiblePositionManager",
          "name": "_nonfungiblePositionManager",
          "type": "address"
        },
        {
          "internalType": "contract ISwapRouter",
          "name": "_swaprouter",
          "type": "address"
        },
        {
          "internalType": "address",
          "name": "_factory",
          "type": "address"
        },
        {
          "internalType": "address",
          "name": "_WETH9",
          "type": "address"
        }
      ],
      "stateMutability": "nonpayable",
      "type": "constructor"
    },
    {
      "inputs": [],
      "name": "WETH9",
      "outputs": [
        {
          "internalType": "address",
          "name": "",
          "type": "address"
        }
      ],
      "stateMutability": "view",
      "type": "function"
    },
    {
      "inputs": [],
      "name": "factory",
      "outputs": [
        {
          "internalType": "address",
          "name": "",
          "type": "address"
        }
      ],
      "stateMutability": "view",
      "type": "function"
    },
    {
      "inputs": [
        {
          "components": [
            {
              "internalType": "uint256",
              "name": "amount0ToMint",
              "type": "uint256"
            },
            {
              "internalType": "uint256",
              "name": "amount1ToMint",
              "type": "uint256"
            },
            {
              "internalType": "address",
              "name": "pool",
              "type": "address"
            },
            {
              "internalType": "uint24",
              "name": "poolFee",
              "type": "uint24"
            },
            {
              "internalType": "address",
              "name": "token0",
              "type": "address"
            },
            {
              "internalType": "address",
              "name": "token1",
              "type": "address"
            },
            {
              "internalType": "int24",
              "name": "tickSpacing",
              "type": "int24"
            },
            {
              "internalType": "int24",
              "name": "spacingMultiplier",
              "type": "int24"
            }
          ],
          "internalType": "struct PositionManager.MintParams",
          "name": "mintParams",
          "type": "tuple"
        }
      ],
      "name": "mint",
      "outputs": [],
      "stateMutability": "nonpayable",
      "type": "function"
    },
    {
      "inputs": [],
      "name": "nonfungiblePositionManager",
      "outputs": [
        {
          "internalType": "contract INonfungiblePositionManager",
          "name": "",
          "type": "address"
        }
      ],
      "stateMutability": "view",
      "type": "function"
    },
    {
      "inputs": [
        {
          "internalType": "address",
          "name": "",
          "type": "address"
        },
        {
          "internalType": "address",
          "name": "",
          "type": "address"
        },
        {
          "internalType": "uint256",
          "name": "",
          "type": "uint256"
        },
        {
          "internalType": "bytes",
          "name": "",
          "type": "bytes"
        }
      ],
      "name": "onERC721Received",
      "outputs": [
        {
          "internalType": "bytes4",
          "name": "",
          "type": "bytes4"
        }
      ],
      "stateMutability": "pure",
      "type": "function"
    },
    {
      "inputs": [],
      "name": "refundETH",
      "outputs": [],
      "stateMutability": "payable",
      "type": "function"
    },
    {
      "inputs": [
        {
          "components": [
            {
              "internalType": "uint256",
              "name": "tokenId",
              "type": "uint256"
            },
            {
              "internalType": "uint128",
              "name": "liquidity",
              "type": "uint128"
            },
            {
              "internalType": "address",
              "name": "token0",
              "type": "address"
            },
            {
              "internalType": "address",
              "name": "token1",
              "type": "address"
            }
          ],
          "internalType": "struct PositionManager.RemoveLiquidityParams",
          "name": "removeLiquidityParams",
          "type": "tuple"
        }
      ],
      "name": "removeLiquidity",
      "outputs": [],
      "stateMutability": "nonpayable",
      "type": "function"
    },
    {
      "inputs": [
        {
          "components": [
            {
              "internalType": "uint256",
              "name": "tokenId",
              "type": "uint256"
            },
            {
              "internalType": "uint128",
              "name": "liquidity",
              "type": "uint128"
            },
            {
              "internalType": "address",
              "name": "token0",
              "type": "address"
            },
            {
              "internalType": "address",
              "name": "token1",
              "type": "address"
            }
          ],
          "internalType": "struct PositionManager.RemoveLiquidityParams",
          "name": "removeParams",
          "type": "tuple"
        },
        {
          "components": [
            {
              "internalType": "uint256",
              "name": "amount0ToMint",
              "type": "uint256"
            },
            {
              "internalType": "uint256",
              "name": "amount1ToMint",
              "type": "uint256"
            },
            {
              "internalType": "address",
              "name": "pool",
              "type": "address"
            },
            {
              "internalType": "uint24",
              "name": "poolFee",
              "type": "uint24"
            },
            {
              "internalType": "address",
              "name": "token0",
              "type": "address"
            },
            {
              "internalType": "address",
              "name": "token1",
              "type": "address"
            },
            {
              "internalType": "int24",
              "name": "tickSpacing",
              "type": "int24"
            },
            {
              "internalType": "int24",
              "name": "spacingMultiplier",
              "type": "int24"
            }
          ],
          "internalType": "struct PositionManager.MintParams",
          "name": "mintParams",
          "type": "tuple"
        }
      ],
      "name": "resetPosition",
      "outputs": [],
      "stateMutability": "nonpayable",
      "type": "function"
    },
    {
      "inputs": [],
      "name": "swapRouter",
      "outputs": [
        {
          "internalType": "contract ISwapRouter",
          "name": "",
          "type": "address"
        }
      ],
      "stateMutability": "view",
      "type": "function"
    },
    {
      "inputs": [
        {
          "internalType": "address",
          "name": "token",
          "type": "address"
        },
        {
          "internalType": "uint256",
          "name": "amountMinimum",
          "type": "uint256"
        },
        {
          "internalType": "address",
          "name": "recipient",
          "type": "address"
        }
      ],
      "name": "sweepToken",
      "outputs": [],
      "stateMutability": "payable",
      "type": "function"
    },
    {
      "inputs": [
        {
          "internalType": "address",
          "name": "token",
          "type": "address"
        },
        {
          "internalType": "uint256",
          "name": "amount",
          "type": "uint256"
        }
      ],
      "name": "tokenReturn",
      "outputs": [],
      "stateMutability": "nonpayable",
      "type": "function"
    },
    {
      "inputs": [
        {
          "internalType": "uint256",
          "name": "amount0Owed",
          "type": "uint256"
        },
        {
          "internalType": "uint256",
          "name": "amount1Owed",
          "type": "uint256"
        },
        {
          "internalType": "bytes",
          "name": "data",
          "type": "bytes"
        }
      ],
      "name": "uniswapV3MintCallback",
      "outputs": [],
      "stateMutability": "nonpayable",
      "type": "function"
    },
    {
      "inputs": [
        {
          "internalType": "uint256",
          "name": "amountMinimum",
          "type": "uint256"
        },
        {
          "internalType": "address",
          "name": "recipient",
          "type": "address"
        }
      ],
      "name": "unwrapWETH9",
      "outputs": [],
      "stateMutability": "payable",
      "type": "function"
    },
    {
      "stateMutability": "payable",
      "type": "receive"
    }
  ],
  "bytecode": "0x6101006040523480156200001257600080fd5b5060405162003afa38038062003afa833981810160405281019062000038919062000167565b81818173ffffffffffffffffffffffffffffffffffffffff1660808173ffffffffffffffffffffffffffffffffffffffff1660601b815250508073ffffffffffffffffffffffffffffffffffffffff1660a08173ffffffffffffffffffffffffffffffffffffffff1660601b8152505050508373ffffffffffffffffffffffffffffffffffffffff1660c08173ffffffffffffffffffffffffffffffffffffffff1660601b815250508273ffffffffffffffffffffffffffffffffffffffff1660e08173ffffffffffffffffffffffffffffffffffffffff1660601b81525050505050506200027d565b60008151905062000133816200022f565b92915050565b6000815190506200014a8162000249565b92915050565b600081519050620001618162000263565b92915050565b600080600080608085870312156200017e57600080fd5b60006200018e8782880162000139565b9450506020620001a18782880162000150565b9350506040620001b48782880162000122565b9250506060620001c78782880162000122565b91505092959194509250565b6000620001e0826200020f565b9050919050565b6000620001f482620001d3565b9050919050565b60006200020882620001d3565b9050919050565b600073ffffffffffffffffffffffffffffffffffffffff82169050919050565b6200023a81620001d3565b81146200024657600080fd5b50565b6200025481620001e7565b81146200026057600080fd5b50565b6200026e81620001fb565b81146200027a57600080fd5b50565b60805160601c60a05160601c60c05160601c60e05160601c6137fb620002ff600039806109695280611587525080610418528061052752806109455280610e565280610e855280610f8c52508060cd52806105e9528061072c52806107c752806111305280611190528061121152508061098d52806109c752506137fb6000f3fe6080604052600436106100c65760003560e01c80634aa4a4fc1161007f578063c31c9c0711610059578063c31c9c07146102f0578063c45a01551461031b578063d348799714610346578063df2ab5bb1461036f5761018e565b80634aa4a4fc146102715780635b1a08301461029c578063b44a2722146102c55761018e565b806312210e8a14610193578063150b7a021461019d578063267ff7ef146101da5780632985cf90146102035780633becd62a1461022c57806349404b7c146102555761018e565b3661018e577f000000000000000000000000000000000000000000000000000000000000000073ffffffffffffffffffffffffffffffffffffffff163373ffffffffffffffffffffffffffffffffffffffff161461018c576040517f08c379a00000000000000000000000000000000000000000000000000000000081526004018080602001828103825260098152602001807f4e6f74205745544839000000000000000000000000000000000000000000000081525060200191505060405180910390fd5b005b600080fd5b61019b61038b565b005b3480156101a957600080fd5b506101c460048036038101906101bf9190612dd2565b6103a1565b6040516101d191906134bf565b60405180910390f35b3480156101e657600080fd5b5061020160048036038101906101fc9190612f59565b6103b6565b005b34801561020f57600080fd5b5061022a60048036038101906102259190612f30565b6103cc565b005b34801561023857600080fd5b50610253600480360381019061024e9190612e52565b6105d6565b005b61026f600480360381019061026a919061305d565b6105e5565b005b34801561027d57600080fd5b506102866107c5565b6040516102939190613489565b60405180910390f35b3480156102a857600080fd5b506102c360048036038101906102be9190612f06565b6107e9565b005b3480156102d157600080fd5b506102da610943565b6040516102e791906134da565b60405180910390f35b3480156102fc57600080fd5b50610305610967565b60405161031291906134f5565b60405180910390f35b34801561032757600080fd5b5061033061098b565b60405161033d9190613489565b60405180910390f35b34801561035257600080fd5b5061036d60048036038101906103689190613138565b6109af565b005b61038960048036038101906103849190612e8e565b610a3c565b005b600047111561039f5761039e3347610b73565b5b565b600063150b7a0260e01b905095945050505050565b6103bf826103cc565b6103c8816107e9565b5050565b60006040518060a001604052808360000151815260200183602001516fffffffffffffffffffffffffffffffff1681526020016000815260200160008152602001601e420181525090507f000000000000000000000000000000000000000000000000000000000000000073ffffffffffffffffffffffffffffffffffffffff16630c49ccbe826040518263ffffffff1660e01b815260040161046f919061352b565b6040805180830381600087803b15801561048857600080fd5b505af115801561049c573d6000803e3d6000fd5b505050506040513d601f19601f820116820180604052508101906104c091906130fc565b505060006040518060800160405280846000015181526020013073ffffffffffffffffffffffffffffffffffffffff1681526020016fffffffffffffffffffffffffffffffff801681526020016fffffffffffffffffffffffffffffffff801681525090507f000000000000000000000000000000000000000000000000000000000000000073ffffffffffffffffffffffffffffffffffffffff1663fc6f7865826040518263ffffffff1660e01b815260040161057e9190613510565b6040805180830381600087803b15801561059757600080fd5b505af11580156105ab573d6000803e3d6000fd5b505050506040513d601f19601f820116820180604052508101906105cf91906130fc565b5050505050565b6105e1823383610cef565b5050565b60007f000000000000000000000000000000000000000000000000000000000000000073ffffffffffffffffffffffffffffffffffffffff166370a08231306040518263ffffffff1660e01b8152600401808273ffffffffffffffffffffffffffffffffffffffff16815260200191505060206040518083038186803b15801561066e57600080fd5b505afa158015610682573d6000803e3d6000fd5b505050506040513d602081101561069857600080fd5b8101908080519060200190929190505050905082811015610721576040517f08c379a00000000000000000000000000000000000000000000000000000000081526004018080602001828103825260128152602001807f496e73756666696369656e74205745544839000000000000000000000000000081525060200191505060405180910390fd5b60008111156107c0577f000000000000000000000000000000000000000000000000000000000000000073ffffffffffffffffffffffffffffffffffffffff16632e1a7d4d826040518263ffffffff1660e01b815260040180828152602001915050600060405180830381600087803b15801561079d57600080fd5b505af11580156107b1573d6000803e3d6000fd5b505050506107bf8282610b73565b5b505050565b7f000000000000000000000000000000000000000000000000000000000000000081565b6000816080015173ffffffffffffffffffffffffffffffffffffffff166370a08231306040518263ffffffff1660e01b815260040161082891906134a4565b60206040518083038186803b15801561084057600080fd5b505afa158015610854573d6000803e3d6000fd5b505050506040513d601f19601f820116820180604052508101906108789190613034565b905060008260a0015173ffffffffffffffffffffffffffffffffffffffff166370a08231306040518263ffffffff1660e01b81526004016108b991906134a4565b60206040518083038186803b1580156108d157600080fd5b505afa1580156108e5573d6000803e3d6000fd5b505050506040513d601f19601f820116820180604052508101906109099190613034565b9050818360000181815250508083602001818152505061093183600001518460200151610cff565b61093a83610da1565b50505050505050565b7f000000000000000000000000000000000000000000000000000000000000000081565b7f000000000000000000000000000000000000000000000000000000000000000081565b7f000000000000000000000000000000000000000000000000000000000000000081565b600082828101906109c09190612edd565b90506109f07f000000000000000000000000000000000000000000000000000000000000000082600001516110e2565b506000851115610a1357610a128160000151600001518260200151338861112e565b5b6000841115610a3557610a348160000151602001518260200151338761112e565b5b5050505050565b60008373ffffffffffffffffffffffffffffffffffffffff166370a08231306040518263ffffffff1660e01b8152600401808273ffffffffffffffffffffffffffffffffffffffff16815260200191505060206040518083038186803b158015610aa557600080fd5b505afa158015610ab9573d6000803e3d6000fd5b505050506040513d6020811015610acf57600080fd5b8101908080519060200190929190505050905082811015610b58576040517f08c379a00000000000000000000000000000000000000000000000000000000081526004018080602001828103825260128152602001807f496e73756666696369656e7420746f6b656e000000000000000000000000000081525060200191505060405180910390fd5b6000811115610b6d57610b6c848383611339565b5b50505050565b60008273ffffffffffffffffffffffffffffffffffffffff1682600067ffffffffffffffff81118015610ba557600080fd5b506040519080825280601f01601f191660200182016040528015610bd85781602001600182028036833780820191505090505b506040518082805190602001908083835b60208310610c0c5780518252602082019150602081019050602083039250610be9565b6001836020036101000a03801982511681845116808217855250505050505090500191505060006040518083038185875af1925050503d8060008114610c6e576040519150601f19603f3d011682016040523d82523d6000602084013e610c73565b606091505b5050905080610cea576040517f08c379a00000000000000000000000000000000000000000000000000000000081526004018080602001828103825260038152602001807f535445000000000000000000000000000000000000000000000000000000000081525060200191505060405180910390fd5b505050565b610cfa838383611339565b505050565b610d9d828260405160240180838152602001828152602001925050506040516020818303038152906040527f6c0f6980000000000000000000000000000000000000000000000000000000007bffffffffffffffffffffffffffffffffffffffffffffffffffffffff19166020820180517bffffffffffffffffffffffffffffffffffffffffffffffffffffffff838183161783525050505061153a565b5050565b6000806000806000856040015190506000808273ffffffffffffffffffffffffffffffffffffffff16633850c7bd6040518163ffffffff1660e01b815260040160e06040518083038186803b158015610df957600080fd5b505afa158015610e0d573d6000803e3d6000fd5b505050506040513d601f19601f82011682018060405250810190610e319190612f96565b505050505091509150600080610e488a8486611563565b91509150610e7b8a608001517f000000000000000000000000000000000000000000000000000000000000000084611676565b610eaa8a60a001517f000000000000000000000000000000000000000000000000000000000000000083611676565b60006040518061016001604052808c6080015173ffffffffffffffffffffffffffffffffffffffff1681526020018c60a0015173ffffffffffffffffffffffffffffffffffffffff1681526020018c6060015162ffffff1681526020018c60e001518d60c0015102610f20878f60c00151611686565b0360020b81526020018c60e001518d60c0015102610f42878f60c00151611686565b0160020b815260200184815260200183815260200160008152602001600081526020013073ffffffffffffffffffffffffffffffffffffffff168152602001601e420181525090507f000000000000000000000000000000000000000000000000000000000000000073ffffffffffffffffffffffffffffffffffffffff166388316456826040518263ffffffff1660e01b8152600401610fe39190613562565b608060405180830381600087803b158015610ffd57600080fd5b505af1158015611011573d6000803e3d6000fd5b505050506040513d601f19601f820116820180604052508101906110359190613099565b809a50819b50829c50839d50505050506110966040518060400160405280600981526020017f6c697175696469747900000000000000000000000000000000000000000000008152508a6fffffffffffffffffffffffffffffffff1661171f565b6110d56040518060400160405280600781526020017f746f6b656e4944000000000000000000000000000000000000000000000000008152508b61171f565b5050505050509193509193565b60006110ee8383611826565b90508073ffffffffffffffffffffffffffffffffffffffff163373ffffffffffffffffffffffffffffffffffffffff161461112857600080fd5b92915050565b7f000000000000000000000000000000000000000000000000000000000000000073ffffffffffffffffffffffffffffffffffffffff168473ffffffffffffffffffffffffffffffffffffffff161480156111895750804710155b156112e1577f000000000000000000000000000000000000000000000000000000000000000073ffffffffffffffffffffffffffffffffffffffff1663d0e30db0826040518263ffffffff1660e01b81526004016000604051808303818588803b1580156111f657600080fd5b505af115801561120a573d6000803e3d6000fd5b50505050507f000000000000000000000000000000000000000000000000000000000000000073ffffffffffffffffffffffffffffffffffffffff1663a9059cbb83836040518363ffffffff1660e01b8152600401808373ffffffffffffffffffffffffffffffffffffffff16815260200182815260200192505050602060405180830381600087803b1580156112a057600080fd5b505af11580156112b4573d6000803e3d6000fd5b505050506040513d60208110156112ca57600080fd5b810190808051906020019092919050505050611333565b3073ffffffffffffffffffffffffffffffffffffffff168373ffffffffffffffffffffffffffffffffffffffff16141561132557611320848383611339565b611332565b61133184848484611981565b5b5b50505050565b6000808473ffffffffffffffffffffffffffffffffffffffff1663a9059cbb60e01b8585604051602401808373ffffffffffffffffffffffffffffffffffffffff16815260200182815260200192505050604051602081830303815290604052907bffffffffffffffffffffffffffffffffffffffffffffffffffffffff19166020820180517bffffffffffffffffffffffffffffffffffffffffffffffffffffffff83818316178352505050506040518082805190602001908083835b6020831061141a57805182526020820191506020810190506020830392506113f7565b6001836020036101000a0380198251168184511680821785525050505050509050019150506000604051808303816000865af19150503d806000811461147c576040519150601f19603f3d011682016040523d82523d6000602084013e611481565b606091505b50915091508180156114c157506000815114806114c057508080602001905160208110156114ae57600080fd5b81019080805190602001909291905050505b5b611533576040517f08c379a00000000000000000000000000000000000000000000000000000000081526004018080602001828103825260028152602001807f535400000000000000000000000000000000000000000000000000000000000081525060200191505060405180910390fd5b5050505050565b60008151905060006a636f6e736f6c652e6c6f679050602083016000808483855afa5050505050565b600080600080611574878787611ba1565b91509150600060405180608001604052807f000000000000000000000000000000000000000000000000000000000000000073ffffffffffffffffffffffffffffffffffffffff168152602001846115d0578960a001516115d6565b89608001515b73ffffffffffffffffffffffffffffffffffffffff16815260200184611600578960800151611606565b8960a001515b73ffffffffffffffffffffffffffffffffffffffff168152602001838152509050600061163282611d40565b905083611645578089600001510161164d565b828960000151035b9550836116605782896020015103611668565b808960200151015b945050505050935093915050565b611681838383611e9e565b505050565b6000808360020b13156116d85760008260020b8460020b816116a457fe5b05905082810290506000838201905081850360020b85820360020b12156116cd578092506116d1565b8192505b5050611719565b60008260020b8460020b816116e957fe5b05905082810290506000838203905080850360020b85830360020b121561171257819250611716565b8092505b50505b92915050565b61182282826040516024018080602001838152602001828103825284818151815260200191508051906020019080838360005b8381101561176d578082015181840152602081019050611752565b50505050905090810190601f16801561179a5780820380516001836020036101000a031916815260200191505b5093505050506040516020818303038152906040527f9710a9d0000000000000000000000000000000000000000000000000000000007bffffffffffffffffffffffffffffffffffffffffffffffffffffffff19166020820180517bffffffffffffffffffffffffffffffffffffffffffffffffffffffff838183161783525050505061153a565b5050565b6000816020015173ffffffffffffffffffffffffffffffffffffffff16826000015173ffffffffffffffffffffffffffffffffffffffff161061186857600080fd5b82826000015183602001518460400151604051602001808473ffffffffffffffffffffffffffffffffffffffff1681526020018373ffffffffffffffffffffffffffffffffffffffff1681526020018262ffffff1681526020019350505050604051602081830303815290604052805190602001207fe34f199b19b2b4f47f68442619d555527d244f78a3297ea89325f843f87b8b5460001b60405160200180807fff000000000000000000000000000000000000000000000000000000000000008152506001018473ffffffffffffffffffffffffffffffffffffffff1660601b815260140183815260200182815260200193505050506040516020818303038152906040528051906020012060001c905092915050565b6000808573ffffffffffffffffffffffffffffffffffffffff166323b872dd60e01b868686604051602401808473ffffffffffffffffffffffffffffffffffffffff1681526020018373ffffffffffffffffffffffffffffffffffffffff1681526020018281526020019350505050604051602081830303815290604052907bffffffffffffffffffffffffffffffffffffffffffffffffffffffff19166020820180517bffffffffffffffffffffffffffffffffffffffffffffffffffffffff83818316178352505050506040518082805190602001908083835b60208310611a805780518252602082019150602081019050602083039250611a5d565b6001836020036101000a0380198251168184511680821785525050505050509050019150506000604051808303816000865af19150503d8060008114611ae2576040519150601f19603f3d011682016040523d82523d6000602084013e611ae7565b606091505b5091509150818015611b275750600081511480611b265750808060200190516020811015611b1457600080fd5b81019080805190602001909291905050505b5b611b99576040517f08c379a00000000000000000000000000000000000000000000000000000000081526004018080602001828103825260038152602001807f535446000000000000000000000000000000000000000000000000000000000081525060200191505060405180910390fd5b505050505050565b600080600060405180606001604052808760e001518860c0015102611bca888a60c00151611686565b0160020b81526020018760e001518860c0015102611bec888a60c00151611686565b0360020b81526020018573ffffffffffffffffffffffffffffffffffffffff1681525090506000611c1c8261209f565b9050600087602001516801000000000000000089600001510281611c3c57fe5b049050818111945084611c67578170010000000000000000000000000000000081611c6357fe5b0491505b60008086611c7e5789602001518a60000151611c89565b89600001518a602001515b91509150600070010000000000000000000000000000000060028a73ffffffffffffffffffffffffffffffffffffffff160a81611cc257fe5b04905087611ce8578070010000000000000000000000000000000081611ce457fe5b0490505b700100000000000000000000000000000000818602017001000000000000000000000000000000006801000000000000000084880281611d2457fe5b0485030281611d2f57fe5b049650505050505050935093915050565b6000611d59826020015183600001518460600151611e9e565b6000604051806101000160405280846020015173ffffffffffffffffffffffffffffffffffffffff168152602001846040015173ffffffffffffffffffffffffffffffffffffffff1681526020016101f462ffffff1681526020013073ffffffffffffffffffffffffffffffffffffffff168152602001601e420181526020018460600151815260200160008152602001600073ffffffffffffffffffffffffffffffffffffffff168152509050826000015173ffffffffffffffffffffffffffffffffffffffff1663414bf389826040518263ffffffff1660e01b8152600401611e449190613546565b602060405180830381600087803b158015611e5e57600080fd5b505af1158015611e72573d6000803e3d6000fd5b505050506040513d601f19601f82011682018060405250810190611e969190613034565b915050919050565b6000808473ffffffffffffffffffffffffffffffffffffffff1663095ea7b360e01b8585604051602401808373ffffffffffffffffffffffffffffffffffffffff16815260200182815260200192505050604051602081830303815290604052907bffffffffffffffffffffffffffffffffffffffffffffffffffffffff19166020820180517bffffffffffffffffffffffffffffffffffffffffffffffffffffffff83818316178352505050506040518082805190602001908083835b60208310611f7f5780518252602082019150602081019050602083039250611f5c565b6001836020036101000a0380198251168184511680821785525050505050509050019150506000604051808303816000865af19150503d8060008114611fe1576040519150601f19603f3d011682016040523d82523d6000602084013e611fe6565b606091505b50915091508180156120265750600081511480612025575080806020019051602081101561201357600080fd5b81019080805190602001909291905050505b5b612098576040517f08c379a00000000000000000000000000000000000000000000000000000000081526004018080602001828103825260028152602001807f534100000000000000000000000000000000000000000000000000000000000081525060200191505060405180910390fd5b5050505050565b60006120df6040518060400160405280600e81526020017f7570706572202f206c6f7765723a000000000000000000000000000000000000815250612179565b6120ef826000015160020b612277565b6120ff826020015160020b612277565b600061210e8360000151612310565b9050600061211f8460200151612310565b90506000670de0b6b3a76400009050600061214186604001518584600161274b565b90506000612156876040015185856001612881565b9050806801000000000000000083028161216c57fe5b0495505050505050919050565b612274816040516024018080602001828103825283818151815260200191508051906020019080838360005b838110156121c05780820151818401526020810190506121a5565b50505050905090810190601f1680156121ed5780820380516001836020036101000a031916815260200191505b50925050506040516020818303038152906040527f41304fac000000000000000000000000000000000000000000000000000000007bffffffffffffffffffffffffffffffffffffffffffffffffffffffff19166020820180517bffffffffffffffffffffffffffffffffffffffffffffffffffffffff838183161783525050505061153a565b50565b61230d81604051602401808281526020019150506040516020818303038152906040527f4e0c1d1d000000000000000000000000000000000000000000000000000000007bffffffffffffffffffffffffffffffffffffffffffffffffffffffff19166020820180517bffffffffffffffffffffffffffffffffffffffffffffffffffffffff838183161783525050505061153a565b50565b60008060008360020b12612327578260020b61232f565b8260020b6000035b90507ffffffffffffffffffffffffffffffffffffffffffffffffffffffffffff2761860000360020b8111156123cd576040517f08c379a00000000000000000000000000000000000000000000000000000000081526004018080602001828103825260018152602001807f540000000000000000000000000000000000000000000000000000000000000081525060200191505060405180910390fd5b6000806001831614156123f157700100000000000000000000000000000000612403565b6ffffcb933bd6fad37aa2d162d1a5940015b70ffffffffffffffffffffffffffffffffff1690506000600283161461243d5760806ffff97272373d413259a46990580e213a8202901c90505b600060048316146124625760806ffff2e50f5f656932ef12357cf3c7fdcc8202901c90505b600060088316146124875760806fffe5caca7e10e4e61c3624eaa0941cd08202901c90505b600060108316146124ac5760806fffcb9843d60f6159c9db58835c9266448202901c90505b600060208316146124d15760806fff973b41fa98c081472e6896dfb254c08202901c90505b600060408316146124f65760806fff2ea16466c96a3843ec78b326b528618202901c90505b6000608083161461251b5760806ffe5dee046a99a2a811c461f1969c30538202901c90505b60006101008316146125415760806ffcbe86c7900a88aedcffc83b479aa3a48202901c90505b60006102008316146125675760806ff987a7253ac413176f2b074cf7815e548202901c90505b600061040083161461258d5760806ff3392b0822b70005940c7a398e4b70f38202901c90505b60006108008316146125b35760806fe7159475a2c29b7443b29c7fa6e889d98202901c90505b60006110008316146125d95760806fd097f3bdfd2022b8845ad8f792aa58258202901c90505b60006120008316146125ff5760806fa9f746462d870fdf8a65dc1f90e061e58202901c90505b60006140008316146126255760806f70d869a156d2a1b890bb3df62baf32f78202901c90505b600061800083161461264b5760806f31be135f97d08fd981231505542fcfa68202901c90505b6000620100008316146126725760806f09aa508b5b7a84e1c677de54f3e99bc98202901c90505b6000620200008316146126985760806e5d6af8dedb81196699c329225ee6048202901c90505b6000620400008316146126bd5760806d2216e584f5fa1ea926041bedfe988202901c90505b6000620800008316146126e05760806b048a170391f7dc42444e8fa28202901c90505b60008460020b131561271957807fffffffffffffffffffffffffffffffffffffffffffffffffffffffffffffffff8161271557fe5b0490505b6000640100000000828161272957fe5b0614612736576001612739565b60005b60ff16602082901c0192505050919050565b60008373ffffffffffffffffffffffffffffffffffffffff168573ffffffffffffffffffffffffffffffffffffffff16111561278c57838580955081965050505b6000606060ff16846fffffffffffffffffffffffffffffffff16901b9050600086860373ffffffffffffffffffffffffffffffffffffffff16905060008773ffffffffffffffffffffffffffffffffffffffff16116127ea57600080fd5b83612834578673ffffffffffffffffffffffffffffffffffffffff1661282783838973ffffffffffffffffffffffffffffffffffffffff1661295b565b8161282e57fe5b04612875565b61287461285883838973ffffffffffffffffffffffffffffffffffffffff16612a35565b8873ffffffffffffffffffffffffffffffffffffffff16612a93565b5b92505050949350505050565b60008373ffffffffffffffffffffffffffffffffffffffff168573ffffffffffffffffffffffffffffffffffffffff1611156128c257838580955081965050505b8161290e57612909836fffffffffffffffffffffffffffffffff1686860373ffffffffffffffffffffffffffffffffffffffff166c0100000000000000000000000061295b565b612951565b612950836fffffffffffffffffffffffffffffffff1686860373ffffffffffffffffffffffffffffffffffffffff166c01000000000000000000000000612a35565b5b9050949350505050565b600080600080198587098587029250828110838203039150506000811415612996576000841161298a57600080fd5b83820492505050612a2e565b8084116129a257600080fd5b600084868809905082811182039150808303925060008586600003169050808604955080840493506001818260000304019050808302841793506000600287600302189050808702600203810290508087026002038102905080870260020381029050808702600203810290508087026002038102905080870260020381029050808502955050505050505b9392505050565b6000612a4284848461295b565b905060008280612a4e57fe5b8486091115612a8c577fffffffffffffffffffffffffffffffffffffffffffffffffffffffffffffffff8110612a8357600080fd5b80806001019150505b9392505050565b6000808284061182840401905092915050565b600081359050612ab5816136f6565b92915050565b600081519050612aca8161370d565b92915050565b60008083601f840112612ae257600080fd5b8235905067ffffffffffffffff811115612afb57600080fd5b602083019150836001820283011115612b1357600080fd5b9250929050565b600081359050612b2981613724565b92915050565b600081519050612b3e81613724565b92915050565b600060808284031215612b5657600080fd5b612b60604061357e565b90506000612b7084828501612c56565b6000830152506060612b8484828501612aa6565b60208301525092915050565b60006101008284031215612ba357600080fd5b612bae61010061357e565b90506000612bbe84828501612d93565b6000830152506020612bd284828501612d93565b6020830152506040612be684828501612aa6565b6040830152506060612bfa84828501612d7e565b6060830152506080612c0e84828501612aa6565b60808301525060a0612c2284828501612aa6565b60a08301525060c0612c3684828501612b1a565b60c08301525060e0612c4a84828501612b1a565b60e08301525092915050565b600060608284031215612c6857600080fd5b612c72606061357e565b90506000612c8284828501612aa6565b6000830152506020612c9684828501612aa6565b6020830152506040612caa84828501612d7e565b60408301525092915050565b600060808284031215612cc857600080fd5b612cd2608061357e565b90506000612ce284828501612d93565b6000830152506020612cf684828501612d2a565b6020830152506040612d0a84828501612aa6565b6040830152506060612d1e84828501612aa6565b60608301525092915050565b600081359050612d398161373b565b92915050565b600081519050612d4e8161373b565b92915050565b600081519050612d6381613769565b92915050565b600081519050612d7881613752565b92915050565b600081359050612d8d81613780565b92915050565b600081359050612da281613797565b92915050565b600081519050612db781613797565b92915050565b600081519050612dcc816137ae565b92915050565b600080600080600060808688031215612dea57600080fd5b6000612df888828901612aa6565b9550506020612e0988828901612aa6565b9450506040612e1a88828901612d93565b935050606086013567ffffffffffffffff811115612e3757600080fd5b612e4388828901612ad0565b92509250509295509295909350565b60008060408385031215612e6557600080fd5b6000612e7385828601612aa6565b9250506020612e8485828601612d93565b9150509250929050565b600080600060608486031215612ea357600080fd5b6000612eb186828701612aa6565b9350506020612ec286828701612d93565b9250506040612ed386828701612aa6565b9150509250925092565b600060808284031215612eef57600080fd5b6000612efd84828501612b44565b91505092915050565b60006101008284031215612f1957600080fd5b6000612f2784828501612b90565b91505092915050565b600060808284031215612f4257600080fd5b6000612f5084828501612cb6565b91505092915050565b6000806101808385031215612f6d57600080fd5b6000612f7b85828601612cb6565b9250506080612f8c85828601612b90565b9150509250929050565b600080600080600080600060e0888a031215612fb157600080fd5b6000612fbf8a828b01612d54565b9750506020612fd08a828b01612b2f565b9650506040612fe18a828b01612d69565b9550506060612ff28a828b01612d69565b94505060806130038a828b01612d69565b93505060a06130148a828b01612dbd565b92505060c06130258a828b01612abb565b91505092959891949750929550565b60006020828403121561304657600080fd5b600061305484828501612da8565b91505092915050565b6000806040838503121561307057600080fd5b600061307e85828601612d93565b925050602061308f85828601612aa6565b9150509250929050565b600080600080608085870312156130af57600080fd5b60006130bd87828801612da8565b94505060206130ce87828801612d3f565b93505060406130df87828801612da8565b92505060606130f087828801612da8565b91505092959194509250565b6000806040838503121561310f57600080fd5b600061311d85828601612da8565b925050602061312e85828601612da8565b9150509250929050565b6000806000806060858703121561314e57600080fd5b600061315c87828801612d93565b945050602061316d87828801612d93565b935050604085013567ffffffffffffffff81111561318a57600080fd5b61319687828801612ad0565b925092505092959194509250565b6131ad81613676565b82525050565b6131bc816135af565b82525050565b6131cb816135af565b82525050565b6131da816135cd565b82525050565b6131e981613688565b82525050565b6131f8816136ac565b82525050565b613207816135f9565b82525050565b608082016000820151613223600085018261347a565b50602082015161323660208501826131b3565b506040820151613249604085018261344d565b50606082015161325c606085018261344d565b50505050565b60a082016000820151613278600085018261347a565b50602082015161328b602085018261344d565b50604082015161329e604085018261347a565b5060608201516132b1606085018261347a565b5060808201516132c4608085018261347a565b50505050565b610100820160008201516132e160008501826131b3565b5060208201516132f460208501826131b3565b506040820151613307604085018261346b565b50606082015161331a60608501826131b3565b50608082015161332d608085018261347a565b5060a082015161334060a085018261347a565b5060c082015161335360c085018261347a565b5060e082015161336660e085018261345c565b50505050565b6101608201600082015161338360008501826131b3565b50602082015161339660208501826131b3565b5060408201516133a9604085018261346b565b5060608201516133bc60608501826131fe565b5060808201516133cf60808501826131fe565b5060a08201516133e260a085018261347a565b5060c08201516133f560c085018261347a565b5060e082015161340860e085018261347a565b5061010082015161341d61010085018261347a565b506101208201516134326101208501826131b3565b5061014082015161344761014085018261347a565b50505050565b61345681613606565b82525050565b61346581613630565b82525050565b61347481613650565b82525050565b6134838161365f565b82525050565b600060208201905061349e60008301846131c2565b92915050565b60006020820190506134b960008301846131a4565b92915050565b60006020820190506134d460008301846131d1565b92915050565b60006020820190506134ef60008301846131e0565b92915050565b600060208201905061350a60008301846131ef565b92915050565b6000608082019050613525600083018461320d565b92915050565b600060a0820190506135406000830184613262565b92915050565b60006101008201905061355c60008301846132ca565b92915050565b600061016082019050613578600083018461336c565b92915050565b6000604051905081810181811067ffffffffffffffff821117156135a5576135a46136f4565b5b8060405250919050565b60006135ba82613630565b9050919050565b60008115159050919050565b60007fffffffff0000000000000000000000000000000000000000000000000000000082169050919050565b60008160020b9050919050565b60006fffffffffffffffffffffffffffffffff82169050919050565b600061ffff82169050919050565b600073ffffffffffffffffffffffffffffffffffffffff82169050919050565b600062ffffff82169050919050565b6000819050919050565b600060ff82169050919050565b6000613681826136d0565b9050919050565b60006136938261369a565b9050919050565b60006136a582613630565b9050919050565b60006136b7826136be565b9050919050565b60006136c982613630565b9050919050565b60006136db826136e2565b9050919050565b60006136ed82613630565b9050919050565bfe5b6136ff816135af565b811461370a57600080fd5b50565b613716816135c1565b811461372157600080fd5b50565b61372d816135f9565b811461373857600080fd5b50565b61374481613606565b811461374f57600080fd5b50565b61375b81613622565b811461376657600080fd5b50565b61377281613630565b811461377d57600080fd5b50565b61378981613650565b811461379457600080fd5b50565b6137a08161365f565b81146137ab57600080fd5b50565b6137b781613669565b81146137c257600080fd5b5056fea2646970667358221220dd11a09791d7e0e9f581f7934e1ebb26d7d0cc242fb82c678ebafe87b9ff63d464736f6c63430007060033",
  "linkReferences": {},
  "deployedLinkReferences": {}
}