{
  "_format": "hh-sol-artifact-1",
  "contractName": "PositionManager",
  "sourceName": "contracts/PositionManager.sol",
  "abi": [
    {
      "inputs": [
        {
          "internalType": "contract INonfungiblePositionManager",
          "name": "_nonfungiblePositionManager",
          "type": "address"
        },
        {
          "internalType": "address",
          "name": "_factory",
          "type": "address"
        },
        {
          "internalType": "address",
          "name": "_WETH9",
          "type": "address"
        }
      ],
      "stateMutability": "nonpayable",
      "type": "constructor"
    },
    {
      "inputs": [],
      "name": "WETH9",
      "outputs": [
        {
          "internalType": "address",
          "name": "",
          "type": "address"
        }
      ],
      "stateMutability": "view",
      "type": "function"
    },
    {
      "inputs": [
        {
          "internalType": "uint256",
          "name": "",
          "type": "uint256"
        }
      ],
      "name": "deposits",
      "outputs": [
        {
          "internalType": "address",
          "name": "owner",
          "type": "address"
        },
        {
          "internalType": "uint128",
          "name": "liquidity",
          "type": "uint128"
        },
        {
          "internalType": "address",
          "name": "token0",
          "type": "address"
        },
        {
          "internalType": "address",
          "name": "token1",
          "type": "address"
        }
      ],
      "stateMutability": "view",
      "type": "function"
    },
    {
      "inputs": [],
      "name": "factory",
      "outputs": [
        {
          "internalType": "address",
          "name": "",
          "type": "address"
        }
      ],
      "stateMutability": "view",
      "type": "function"
    },
    {
      "inputs": [
        {
          "components": [
            {
              "internalType": "uint256",
              "name": "amount0ToMint",
              "type": "uint256"
            },
            {
              "internalType": "uint256",
              "name": "amount1ToMint",
              "type": "uint256"
            },
            {
              "internalType": "contract IUniswapV3Pool",
              "name": "pool",
              "type": "address"
            }
          ],
          "internalType": "struct PositionManager.MintParams",
          "name": "mintParams",
          "type": "tuple"
        }
      ],
      "name": "mintNewPosition",
      "outputs": [
        {
          "internalType": "uint256",
          "name": "tokenId",
          "type": "uint256"
        },
        {
          "internalType": "uint128",
          "name": "liquidity",
          "type": "uint128"
        },
        {
          "internalType": "uint256",
          "name": "amount0",
          "type": "uint256"
        },
        {
          "internalType": "uint256",
          "name": "amount1",
          "type": "uint256"
        }
      ],
      "stateMutability": "nonpayable",
      "type": "function"
    },
    {
      "inputs": [],
      "name": "nonfungiblePositionManager",
      "outputs": [
        {
          "internalType": "contract INonfungiblePositionManager",
          "name": "",
          "type": "address"
        }
      ],
      "stateMutability": "view",
      "type": "function"
    },
    {
      "inputs": [
        {
          "internalType": "address",
          "name": "",
          "type": "address"
        },
        {
          "internalType": "address",
          "name": "",
          "type": "address"
        },
        {
          "internalType": "uint256",
          "name": "",
          "type": "uint256"
        },
        {
          "internalType": "bytes",
          "name": "",
          "type": "bytes"
        }
      ],
      "name": "onERC721Received",
      "outputs": [
        {
          "internalType": "bytes4",
          "name": "",
          "type": "bytes4"
        }
      ],
      "stateMutability": "pure",
      "type": "function"
    },
    {
      "inputs": [],
      "name": "refundETH",
      "outputs": [],
      "stateMutability": "payable",
      "type": "function"
    },
    {
      "inputs": [
        {
          "internalType": "address",
          "name": "token",
          "type": "address"
        },
        {
          "internalType": "uint256",
          "name": "amountMinimum",
          "type": "uint256"
        },
        {
          "internalType": "address",
          "name": "recipient",
          "type": "address"
        }
      ],
      "name": "sweepToken",
      "outputs": [],
      "stateMutability": "payable",
      "type": "function"
    },
    {
      "inputs": [
        {
          "internalType": "uint256",
          "name": "amount0Owed",
          "type": "uint256"
        },
        {
          "internalType": "uint256",
          "name": "amount1Owed",
          "type": "uint256"
        },
        {
          "internalType": "bytes",
          "name": "data",
          "type": "bytes"
        }
      ],
      "name": "uniswapV3MintCallback",
      "outputs": [],
      "stateMutability": "nonpayable",
      "type": "function"
    },
    {
      "inputs": [
        {
          "internalType": "uint256",
          "name": "amountMinimum",
          "type": "uint256"
        },
        {
          "internalType": "address",
          "name": "recipient",
          "type": "address"
        }
      ],
      "name": "unwrapWETH9",
      "outputs": [],
      "stateMutability": "payable",
      "type": "function"
    },
    {
      "stateMutability": "payable",
      "type": "receive"
    }
  ],
  "bytecode": "0x60e06040523480156200001157600080fd5b506040516200271638038062002716833981810160405281019062000037919062000117565b81818173ffffffffffffffffffffffffffffffffffffffff1660808173ffffffffffffffffffffffffffffffffffffffff1660601b815250508073ffffffffffffffffffffffffffffffffffffffff1660a08173ffffffffffffffffffffffffffffffffffffffff1660601b8152505050508273ffffffffffffffffffffffffffffffffffffffff1660c08173ffffffffffffffffffffffffffffffffffffffff1660601b81525050505050620001e9565b600081519050620000fa81620001b5565b92915050565b6000815190506200011181620001cf565b92915050565b6000806000606084860312156200012d57600080fd5b60006200013d8682870162000100565b93505060206200015086828701620000e9565b92505060406200016386828701620000e9565b9150509250925092565b60006200017a8262000195565b9050919050565b60006200018e826200016d565b9050919050565b600073ffffffffffffffffffffffffffffffffffffffff82169050919050565b620001c0816200016d565b8114620001cc57600080fd5b50565b620001da8162000181565b8114620001e657600080fd5b50565b60805160601c60a05160601c60c05160601c6124c662000250600039806105e852806109bc52806109eb5280610a16525080609c528061033a528061047d528061051852806110dc528061113c52806111bd525080610cc55280610cff52506124c66000f3fe6080604052600436106100955760003560e01c8063b44a272211610059578063b44a272214610230578063b4a648ff1461025b578063c45a01551461029b578063d3487997146102c6578063df2ab5bb146102ef5761015d565b806312210e8a14610162578063150b7a021461016c57806349404b7c146101a95780634aa4a4fc146101c5578063b02c43d0146101f05761015d565b3661015d577f000000000000000000000000000000000000000000000000000000000000000073ffffffffffffffffffffffffffffffffffffffff163373ffffffffffffffffffffffffffffffffffffffff161461015b576040517f08c379a00000000000000000000000000000000000000000000000000000000081526004018080602001828103825260098152602001807f4e6f74205745544839000000000000000000000000000000000000000000000081525060200191505060405180910390fd5b005b600080fd5b61016a61030b565b005b34801561017857600080fd5b50610193600480360381019061018e9190611cad565b610321565b6040516101a091906121e3565b60405180910390f35b6101c360048036038101906101be9190611f10565b610336565b005b3480156101d157600080fd5b506101da610516565b6040516101e79190612183565b60405180910390f35b3480156101fc57600080fd5b5061021760048036038101906102129190611ee7565b61053a565b604051610227949392919061219e565b60405180910390f35b34801561023c57600080fd5b506102456105e6565b60405161025291906121fe565b60405180910390f35b34801561026757600080fd5b50610282600480360381019061027d9190611df7565b61060a565b6040516102929493929190612235565b60405180910390f35b3480156102a757600080fd5b506102b0610cc3565b6040516102bd9190612183565b60405180910390f35b3480156102d257600080fd5b506102ed60048036038101906102e89190611faf565b610ce7565b005b61030960048036038101906103049190611d2d565b610d74565b005b600047111561031f5761031e3347610eab565b5b565b600063150b7a0260e01b905095945050505050565b60007f000000000000000000000000000000000000000000000000000000000000000073ffffffffffffffffffffffffffffffffffffffff166370a08231306040518263ffffffff1660e01b8152600401808273ffffffffffffffffffffffffffffffffffffffff16815260200191505060206040518083038186803b1580156103bf57600080fd5b505afa1580156103d3573d6000803e3d6000fd5b505050506040513d60208110156103e957600080fd5b8101908080519060200190929190505050905082811015610472576040517f08c379a00000000000000000000000000000000000000000000000000000000081526004018080602001828103825260128152602001807f496e73756666696369656e74205745544839000000000000000000000000000081525060200191505060405180910390fd5b6000811115610511577f000000000000000000000000000000000000000000000000000000000000000073ffffffffffffffffffffffffffffffffffffffff16632e1a7d4d826040518263ffffffff1660e01b815260040180828152602001915050600060405180830381600087803b1580156104ee57600080fd5b505af1158015610502573d6000803e3d6000fd5b505050506105108282610eab565b5b505050565b7f000000000000000000000000000000000000000000000000000000000000000081565b60006020528060005260406000206000915090508060000160009054906101000a900473ffffffffffffffffffffffffffffffffffffffff16908060010160009054906101000a90046fffffffffffffffffffffffffffffffff16908060020160009054906101000a900473ffffffffffffffffffffffffffffffffffffffff16908060030160009054906101000a900473ffffffffffffffffffffffffffffffffffffffff16905084565b7f000000000000000000000000000000000000000000000000000000000000000081565b60008060008060008560400160208101906106259190611d7c565b73ffffffffffffffffffffffffffffffffffffffff16633850c7bd6040518163ffffffff1660e01b815260040160e06040518083038186803b15801561066a57600080fd5b505afa15801561067e573d6000803e3d6000fd5b505050506040513d601f19601f820116820180604052508101906106a29190611e20565b505050505091505060008660400160208101906106bf9190611d7c565b73ffffffffffffffffffffffffffffffffffffffff1663ddca3f436040518163ffffffff1660e01b815260040160206040518083038186803b15801561070457600080fd5b505afa158015610718573d6000803e3d6000fd5b505050506040513d601f19601f8201168201806040525081019061073c9190611ebe565b905060008760400160208101906107539190611d7c565b73ffffffffffffffffffffffffffffffffffffffff16630dfe16816040518163ffffffff1660e01b815260040160206040518083038186803b15801561079857600080fd5b505afa1580156107ac573d6000803e3d6000fd5b505050506040513d601f19601f820116820180604052508101906107d09190611c84565b905060008860400160208101906107e79190611d7c565b73ffffffffffffffffffffffffffffffffffffffff1663d21220a76040518163ffffffff1660e01b815260040160206040518083038186803b15801561082c57600080fd5b505afa158015610840573d6000803e3d6000fd5b505050506040513d601f19601f820116820180604052508101906108649190611c84565b9050600089604001602081019061087b9190611d7c565b73ffffffffffffffffffffffffffffffffffffffff1663d0c93a7c6040518163ffffffff1660e01b815260040160206040518083038186803b1580156108c057600080fd5b505afa1580156108d4573d6000803e3d6000fd5b505050506040513d601f19601f820116820180604052508101906108f89190611da5565b905060006109068683611027565b905060006040518061016001604052808673ffffffffffffffffffffffffffffffffffffffff1681526020018573ffffffffffffffffffffffffffffffffffffffff1681526020018762ffffff16815260200184840360020b815260200184840160020b81526020018d6000013581526020018d60200135815260200160008152602001600081526020013373ffffffffffffffffffffffffffffffffffffffff168152602001601e420181525090506109e5857f00000000000000000000000000000000000000000000000000000000000000008e6000013561106e565b610a14847f00000000000000000000000000000000000000000000000000000000000000008e6020013561106e565b7f000000000000000000000000000000000000000000000000000000000000000073ffffffffffffffffffffffffffffffffffffffff166388316456826040518263ffffffff1660e01b8152600401610a6d9190612219565b608060405180830381600087803b158015610a8757600080fd5b505af1158015610a9b573d6000803e3d6000fd5b505050506040513d601f19601f82011682018060405250810190610abf9190611f4c565b809b50819c50829d50839e505050505060405180608001604052803373ffffffffffffffffffffffffffffffffffffffff1681526020018b6fffffffffffffffffffffffffffffffff1681526020018673ffffffffffffffffffffffffffffffffffffffff1681526020018573ffffffffffffffffffffffffffffffffffffffff168152506000808d815260200190815260200160002060008201518160000160006101000a81548173ffffffffffffffffffffffffffffffffffffffff021916908373ffffffffffffffffffffffffffffffffffffffff16021790555060208201518160010160006101000a8154816fffffffffffffffffffffffffffffffff02191690836fffffffffffffffffffffffffffffffff16021790555060408201518160020160006101000a81548173ffffffffffffffffffffffffffffffffffffffff021916908373ffffffffffffffffffffffffffffffffffffffff16021790555060608201518160030160006101000a81548173ffffffffffffffffffffffffffffffffffffffff021916908373ffffffffffffffffffffffffffffffffffffffff1602179055509050508b60000135891015610c91576000898d60000135039050610c8f86338361107e565b505b8b60200135881015610cb5576000888d60200135039050610cb385338361107e565b505b505050505050509193509193565b7f000000000000000000000000000000000000000000000000000000000000000081565b60008282810190610cf89190611dce565b9050610d287f0000000000000000000000000000000000000000000000000000000000000000826000015161108e565b506000851115610d4b57610d4a816000015160000151826020015133886110da565b5b6000841115610d6d57610d6c816000015160200151826020015133876110da565b5b5050505050565b60008373ffffffffffffffffffffffffffffffffffffffff166370a08231306040518263ffffffff1660e01b8152600401808273ffffffffffffffffffffffffffffffffffffffff16815260200191505060206040518083038186803b158015610ddd57600080fd5b505afa158015610df1573d6000803e3d6000fd5b505050506040513d6020811015610e0757600080fd5b8101908080519060200190929190505050905082811015610e90576040517f08c379a00000000000000000000000000000000000000000000000000000000081526004018080602001828103825260128152602001807f496e73756666696369656e7420746f6b656e000000000000000000000000000081525060200191505060405180910390fd5b6000811115610ea557610ea48483836112e5565b5b50505050565b60008273ffffffffffffffffffffffffffffffffffffffff1682600067ffffffffffffffff81118015610edd57600080fd5b506040519080825280601f01601f191660200182016040528015610f105781602001600182028036833780820191505090505b506040518082805190602001908083835b60208310610f445780518252602082019150602081019050602083039250610f21565b6001836020036101000a03801982511681845116808217855250505050505090500191505060006040518083038185875af1925050503d8060008114610fa6576040519150601f19603f3d011682016040523d82523d6000602084013e610fab565b606091505b5050905080611022576040517f08c379a00000000000000000000000000000000000000000000000000000000081526004018080602001828103825260038152602001807f535445000000000000000000000000000000000000000000000000000000000081525060200191505060405180910390fd5b505050565b6000808260020b8460020b8161103957fe5b05905082810290506000838201905081850360020b85820360020b121561106257809250611066565b8192505b505092915050565b6110798383836114e6565b505050565b6110898383836112e5565b505050565b600061109a83836116e7565b90508073ffffffffffffffffffffffffffffffffffffffff163373ffffffffffffffffffffffffffffffffffffffff16146110d457600080fd5b92915050565b7f000000000000000000000000000000000000000000000000000000000000000073ffffffffffffffffffffffffffffffffffffffff168473ffffffffffffffffffffffffffffffffffffffff161480156111355750804710155b1561128d577f000000000000000000000000000000000000000000000000000000000000000073ffffffffffffffffffffffffffffffffffffffff1663d0e30db0826040518263ffffffff1660e01b81526004016000604051808303818588803b1580156111a257600080fd5b505af11580156111b6573d6000803e3d6000fd5b50505050507f000000000000000000000000000000000000000000000000000000000000000073ffffffffffffffffffffffffffffffffffffffff1663a9059cbb83836040518363ffffffff1660e01b8152600401808373ffffffffffffffffffffffffffffffffffffffff16815260200182815260200192505050602060405180830381600087803b15801561124c57600080fd5b505af1158015611260573d6000803e3d6000fd5b505050506040513d602081101561127657600080fd5b8101908080519060200190929190505050506112df565b3073ffffffffffffffffffffffffffffffffffffffff168373ffffffffffffffffffffffffffffffffffffffff1614156112d1576112cc8483836112e5565b6112de565b6112dd84848484611842565b5b5b50505050565b6000808473ffffffffffffffffffffffffffffffffffffffff1663a9059cbb60e01b8585604051602401808373ffffffffffffffffffffffffffffffffffffffff16815260200182815260200192505050604051602081830303815290604052907bffffffffffffffffffffffffffffffffffffffffffffffffffffffff19166020820180517bffffffffffffffffffffffffffffffffffffffffffffffffffffffff83818316178352505050506040518082805190602001908083835b602083106113c657805182526020820191506020810190506020830392506113a3565b6001836020036101000a0380198251168184511680821785525050505050509050019150506000604051808303816000865af19150503d8060008114611428576040519150601f19603f3d011682016040523d82523d6000602084013e61142d565b606091505b509150915081801561146d575060008151148061146c575080806020019051602081101561145a57600080fd5b81019080805190602001909291905050505b5b6114df576040517f08c379a00000000000000000000000000000000000000000000000000000000081526004018080602001828103825260028152602001807f535400000000000000000000000000000000000000000000000000000000000081525060200191505060405180910390fd5b5050505050565b6000808473ffffffffffffffffffffffffffffffffffffffff1663095ea7b360e01b8585604051602401808373ffffffffffffffffffffffffffffffffffffffff16815260200182815260200192505050604051602081830303815290604052907bffffffffffffffffffffffffffffffffffffffffffffffffffffffff19166020820180517bffffffffffffffffffffffffffffffffffffffffffffffffffffffff83818316178352505050506040518082805190602001908083835b602083106115c757805182526020820191506020810190506020830392506115a4565b6001836020036101000a0380198251168184511680821785525050505050509050019150506000604051808303816000865af19150503d8060008114611629576040519150601f19603f3d011682016040523d82523d6000602084013e61162e565b606091505b509150915081801561166e575060008151148061166d575080806020019051602081101561165b57600080fd5b81019080805190602001909291905050505b5b6116e0576040517f08c379a00000000000000000000000000000000000000000000000000000000081526004018080602001828103825260028152602001807f534100000000000000000000000000000000000000000000000000000000000081525060200191505060405180910390fd5b5050505050565b6000816020015173ffffffffffffffffffffffffffffffffffffffff16826000015173ffffffffffffffffffffffffffffffffffffffff161061172957600080fd5b82826000015183602001518460400151604051602001808473ffffffffffffffffffffffffffffffffffffffff1681526020018373ffffffffffffffffffffffffffffffffffffffff1681526020018262ffffff1681526020019350505050604051602081830303815290604052805190602001207fe34f199b19b2b4f47f68442619d555527d244f78a3297ea89325f843f87b8b5460001b60405160200180807fff000000000000000000000000000000000000000000000000000000000000008152506001018473ffffffffffffffffffffffffffffffffffffffff1660601b815260140183815260200182815260200193505050506040516020818303038152906040528051906020012060001c905092915050565b6000808573ffffffffffffffffffffffffffffffffffffffff166323b872dd60e01b868686604051602401808473ffffffffffffffffffffffffffffffffffffffff1681526020018373ffffffffffffffffffffffffffffffffffffffff1681526020018281526020019350505050604051602081830303815290604052907bffffffffffffffffffffffffffffffffffffffffffffffffffffffff19166020820180517bffffffffffffffffffffffffffffffffffffffffffffffffffffffff83818316178352505050506040518082805190602001908083835b60208310611941578051825260208201915060208101905060208303925061191e565b6001836020036101000a0380198251168184511680821785525050505050509050019150506000604051808303816000865af19150503d80600081146119a3576040519150601f19603f3d011682016040523d82523d6000602084013e6119a8565b606091505b50915091508180156119e857506000815114806119e757508080602001905160208110156119d557600080fd5b81019080805190602001909291905050505b5b611a5a576040517f08c379a00000000000000000000000000000000000000000000000000000000081526004018080602001828103825260038152602001807f535446000000000000000000000000000000000000000000000000000000000081525060200191505060405180910390fd5b505050505050565b600081359050611a71816123aa565b92915050565b600081519050611a86816123aa565b92915050565b600081519050611a9b816123c1565b92915050565b60008083601f840112611ab357600080fd5b8235905067ffffffffffffffff811115611acc57600080fd5b602083019150836001820283011115611ae457600080fd5b9250929050565b600081359050611afa816123d8565b92915050565b600081519050611b0f816123ef565b92915050565b600060808284031215611b2757600080fd5b611b31604061227a565b90506000611b4184828501611b7c565b6000830152506060611b5584828501611a62565b60208301525092915050565b600060608284031215611b7357600080fd5b81905092915050565b600060608284031215611b8e57600080fd5b611b98606061227a565b90506000611ba884828501611a62565b6000830152506020611bbc84828501611a62565b6020830152506040611bd084828501611c1b565b60408301525092915050565b600081519050611beb81612406565b92915050565b600081519050611c0081612434565b92915050565b600081519050611c158161241d565b92915050565b600081359050611c2a8161244b565b92915050565b600081519050611c3f8161244b565b92915050565b600081359050611c5481612462565b92915050565b600081519050611c6981612462565b92915050565b600081519050611c7e81612479565b92915050565b600060208284031215611c9657600080fd5b6000611ca484828501611a77565b91505092915050565b600080600080600060808688031215611cc557600080fd5b6000611cd388828901611a62565b9550506020611ce488828901611a62565b9450506040611cf588828901611c45565b935050606086013567ffffffffffffffff811115611d1257600080fd5b611d1e88828901611aa1565b92509250509295509295909350565b600080600060608486031215611d4257600080fd5b6000611d5086828701611a62565b9350506020611d6186828701611c45565b9250506040611d7286828701611a62565b9150509250925092565b600060208284031215611d8e57600080fd5b6000611d9c84828501611aeb565b91505092915050565b600060208284031215611db757600080fd5b6000611dc584828501611b00565b91505092915050565b600060808284031215611de057600080fd5b6000611dee84828501611b15565b91505092915050565b600060608284031215611e0957600080fd5b6000611e1784828501611b61565b91505092915050565b600080600080600080600060e0888a031215611e3b57600080fd5b6000611e498a828b01611bf1565b9750506020611e5a8a828b01611b00565b9650506040611e6b8a828b01611c06565b9550506060611e7c8a828b01611c06565b9450506080611e8d8a828b01611c06565b93505060a0611e9e8a828b01611c6f565b92505060c0611eaf8a828b01611a8c565b91505092959891949750929550565b600060208284031215611ed057600080fd5b6000611ede84828501611c30565b91505092915050565b600060208284031215611ef957600080fd5b6000611f0784828501611c45565b91505092915050565b60008060408385031215611f2357600080fd5b6000611f3185828601611c45565b9250506020611f4285828601611a62565b9150509250929050565b60008060008060808587031215611f6257600080fd5b6000611f7087828801611c5a565b9450506020611f8187828801611bdc565b9350506040611f9287828801611c5a565b9250506060611fa387828801611c5a565b91505092959194509250565b60008060008060608587031215611fc557600080fd5b6000611fd387828801611c45565b9450506020611fe487828801611c45565b935050604085013567ffffffffffffffff81111561200157600080fd5b61200d87828801611aa1565b925092505092959194509250565b612024816122ab565b82525050565b612033816122ab565b82525050565b612042816122c9565b82525050565b61205181612384565b82525050565b61206081612307565b82525050565b6101608201600082015161207d600085018261201b565b506020820151612090602085018261201b565b5060408201516120a36040850182612156565b5060608201516120b66060850182612057565b5060808201516120c96080850182612057565b5060a08201516120dc60a0850182612165565b5060c08201516120ef60c0850182612165565b5060e082015161210260e0850182612165565b50610100820151612117610100850182612165565b5061012082015161212c61012085018261201b565b50610140820151612141610140850182612165565b50505050565b61215081612314565b82525050565b61215f8161235e565b82525050565b61216e8161236d565b82525050565b61217d8161236d565b82525050565b6000602082019050612198600083018461202a565b92915050565b60006080820190506121b3600083018761202a565b6121c06020830186612147565b6121cd604083018561202a565b6121da606083018461202a565b95945050505050565b60006020820190506121f86000830184612039565b92915050565b60006020820190506122136000830184612048565b92915050565b60006101608201905061222f6000830184612066565b92915050565b600060808201905061224a6000830187612174565b6122576020830186612147565b6122646040830185612174565b6122716060830184612174565b95945050505050565b6000604051905081810181811067ffffffffffffffff821117156122a1576122a06123a8565b5b8060405250919050565b60006122b68261233e565b9050919050565b60008115159050919050565b60007fffffffff0000000000000000000000000000000000000000000000000000000082169050919050565b6000612300826122ab565b9050919050565b60008160020b9050919050565b60006fffffffffffffffffffffffffffffffff82169050919050565b600061ffff82169050919050565b600073ffffffffffffffffffffffffffffffffffffffff82169050919050565b600062ffffff82169050919050565b6000819050919050565b600060ff82169050919050565b600061238f82612396565b9050919050565b60006123a18261233e565b9050919050565bfe5b6123b3816122ab565b81146123be57600080fd5b50565b6123ca816122bd565b81146123d557600080fd5b50565b6123e1816122f5565b81146123ec57600080fd5b50565b6123f881612307565b811461240357600080fd5b50565b61240f81612314565b811461241a57600080fd5b50565b61242681612330565b811461243157600080fd5b50565b61243d8161233e565b811461244857600080fd5b50565b6124548161235e565b811461245f57600080fd5b50565b61246b8161236d565b811461247657600080fd5b50565b61248281612377565b811461248d57600080fd5b5056fea2646970667358221220311e0cca985dfabccc20ab8dc178b632eddc42d6f1a14946952a20f2916c8dfe64736f6c63430007060033",
  "linkReferences": {},
  "deployedLinkReferences": {}
}