{
  "_format": "hh-sol-artifact-1",
  "contractName": "Meta",
  "sourceName": "contracts/Meta.sol",
  "abi": [
    {
      "inputs": [],
      "stateMutability": "nonpayable",
      "type": "constructor"
    },
    {
      "anonymous": false,
      "inputs": [
        {
          "indexed": false,
          "internalType": "address",
          "name": "",
          "type": "address"
        }
      ],
      "name": "GotData",
      "type": "event"
    },
    {
      "inputs": [],
      "name": "getValue",
      "outputs": [],
      "stateMutability": "nonpayable",
      "type": "function"
    }
  ],
  "bytecode": "0x608060405234801561001057600080fd5b50610118806100206000396000f3fe6080604052348015600f57600080fd5b506004361060285760003560e01c80632096525514602d575b600080fd5b60336035565b005b7fa6d9b9a1523583dca58813d1827940cd304a9e3e767319d11967f57c5541c5c033604051606291906079565b60405180910390a1565b60738160b2565b82525050565b6000602082019050608c6000830184606c565b92915050565b600073ffffffffffffffffffffffffffffffffffffffff82169050919050565b600060bb8260c2565b9050919050565b600060cb8260d2565b9050919050565b600060db826092565b905091905056fea2646970667358221220d8c24ca2b3cff828be26532f48cf8c3ad6605a3381d54c5355ecc6772b7818b764736f6c63430007060033",
  "linkReferences": {},
  "deployedLinkReferences": {}
}